{
  "_format": "hh-sol-artifact-1",
  "contractName": "TestPrecompileSelfCallRevert",
  "sourceName": "contracts/TestPrecompileSelfCallRevert.sol",
  "abi": [
    {
      "inputs": [
        {
          "internalType": "address",
          "name": "erc20_",
          "type": "address"
        }
      ],
      "stateMutability": "payable",
      "type": "constructor"
    },
    {
      "inputs": [
        {
          "internalType": "address payable",
          "name": "nativeRecipient",
          "type": "address"
        },
        {
          "internalType": "uint256",
          "name": "nativeAmount",
          "type": "uint256"
        },
        {
          "internalType": "string",
          "name": "precompileRecipient",
          "type": "string"
        },
        {
          "internalType": "uint256",
          "name": "precompileAmount",
          "type": "uint256"
        }
      ],
      "name": "selfCallTransferFunds",
      "outputs": [],
      "stateMutability": "nonpayable",
      "type": "function"
    },
    {
      "inputs": [
        {
          "internalType": "address payable",
          "name": "nativeRecipient",
          "type": "address"
        },
        {
          "internalType": "uint256",
          "name": "nativeAmount",
          "type": "uint256"
        },
        {
          "internalType": "string",
          "name": "precompileRecipient",
          "type": "string"
        },
        {
          "internalType": "uint256",
          "name": "precompileAmount",
          "type": "uint256"
        }
      ],
      "name": "transferFunds",
      "outputs": [],
      "stateMutability": "nonpayable",
      "type": "function"
    }
  ],
  "bytecode": "0x6080601f61066738819003918201601f19168301916001600160401b038311848410176100755780849260209460405283398101031261007057516001600160a01b0381169081900361007057600060015560018060a01b031960005416176000556040516105db908161008c8239f35b600080fd5b634e487b7160e01b600052604160045260246000fdfe6040608081526004908136101561001557600080fd5b600090813560e01c80636ad4fe96146101045763705964db1461003757600080fd5b34610100576100453661034c565b6100546001959492955461041d565b600155303b156100fc57835163356a7f4b60e11b81526001600160a01b0390921687830152602482019290925260806044820152928491849182919061009e9060848401906103f8565b906064830152038183305af193846100d1575b50505090156000146100ce576100c860015461041d565b60015580f35b80f35b6001600160401b0383116100e95750523880806100b1565b634e487b7160e01b845260419052602483fd5b8580fd5b5080fd5b509134610100576101143661034c565b90929591858080808460018060a01b039b8c839183156102ee575b1690f1156102b557859661016f9654169383519463e77a47bf60e01b865286860152826024860152606060448601528480602098899360648301906103f8565b03818a6108005af19384156102ab578794610276575b5061018f90610442565b9261024a607361019e84610442565b9585519687917f4946756e546f6b656e2e73656e64546f42616e6b2073756363656564656420628b8401527f7574207472616e73666572726564207468652077726f6e6720616d6f756e7400888401526a039b2b73a20b6b7bab73a160ad1b605f840152610215815180928d606a870191016103d5565b820168032bc3832b1ba32b2160bd1b606a82015261023b825180938d87850191016103d5565b010360538101875201856102f8565b03610253578480fd5b90610272915193849362461bcd60e51b855284015260248301906103f8565b0390fd5b9093508581813d83116102a4575b61028e81836102f8565b810103126102a057519261018f610185565b8680fd5b503d610284565b83513d89823e3d90fd5b825162461bcd60e51b81526020818701526013602482015272115512081d1c985b9cd9995c8819985a5b1959606a1b6044820152606490fd5b6108fc925061012f565b601f909101601f19168101906001600160401b0382119082101761031b57604052565b634e487b7160e01b600052604160045260246000fd5b6001600160401b03811161031b57601f01601f191660200190565b60806003198201126103d0576004356001600160a01b03811681036103d05791602435916044356001600160401b0381116103d057816023820112156103d05780600401359061039b82610331565b926103a960405194856102f8565b828452602483830101116103d0578160009260246020930183860137830101529060643590565b600080fd5b60005b8381106103e85750506000910152565b81810151838201526020016103d8565b90602091610411815180928185528580860191016103d5565b601f01601f1916010190565b600019811461042c5760010190565b634e487b7160e01b600052601160045260246000fd5b6000908072184f03e93ff9f4daa797ed6e38ed64bf6a1f0160401b80821015610597575b506904ee2d6d415b85acef8160201b80831015610588575b50662386f26fc1000080831015610579575b506305f5e1008083101561056a575b506127108083101561055b575b50606482101561054b575b600a80921015610541575b60019081602160018601956104d687610331565b966104e460405198896102f8565b8088526104f3601f1991610331565b01366020890137860101905b61050b575b5050505090565b600019019083906f181899199a1a9b1b9c1cb0b131b232b360811b8282061a83530491821561053c579190826104ff565b610504565b91600101916104c2565b91906064600291049101916104b7565b600491939204910191386104ac565b6008919392049101913861049f565b60109193920491019138610490565b6020919392049101913861047e565b60409350810491503861046656fea2646970667358221220b3f847f231fd96454ebf4d73db0aee039da515beacd6df91a71b0f9f756886b864736f6c63430008180033",
  "linkReferences": {},
  "deployedLinkReferences": {}
}