{
  "_format": "hh-sol-artifact-1",
  "contractName": "InifiniteLoopGas",
  "sourceName": "contracts/InfiniteLoopGas.sol",
  "abi": [
    {
      "inputs": [],
      "name": "counter",
      "outputs": [
        {
          "internalType": "uint256",
          "name": "",
          "type": "uint256"
        }
      ],
      "stateMutability": "view",
      "type": "function"
    },
    {
      "inputs": [],
      "name": "forever",
      "outputs": [],
      "stateMutability": "nonpayable",
      "type": "function"
    }
  ],
  "bytecode": "0x60806040526000805534801561001457600080fd5b5061015e806100246000396000f3fe608060405234801561001057600080fd5b50600436106100365760003560e01c806361bc221a1461003b5780639ff9a60314610059575b600080fd5b610043610063565b60405161005091906100aa565b60405180910390f35b610061610069565b005b60005481565b5b60011561008f57600160008082825461008391906100f4565b9250508190555061006a565b565b6000819050919050565b6100a481610091565b82525050565b60006020820190506100bf600083018461009b565b92915050565b7f4e487b7100000000000000000000000000000000000000000000000000000000600052601160045260246000fd5b60006100ff82610091565b915061010a83610091565b9250828201905080821115610122576101216100c5565b5b9291505056fea2646970667358221220946d430ff7d8c16c5401d4156ff1b5d75c112460fbba0fb343581bd3c86cfe1c64736f6c63430008180033",
  "linkReferences": {},
  "deployedLinkReferences": {}
}