{
  "_format": "hh-sol-artifact-1",
  "contractName": "ERC20MinterWithMetadataUpdates",
  "sourceName": "contracts/ERC20MinterWithMetadataUpdates.sol",
  "abi": [
    {
      "inputs": [
        {
          "internalType": "string",
          "name": "name_",
          "type": "string"
        },
        {
          "internalType": "string",
          "name": "symbol_",
          "type": "string"
        },
        {
          "internalType": "uint8",
          "name": "decimals_",
          "type": "uint8"
        }
      ],
      "stateMutability": "nonpayable",
      "type": "constructor"
    },
    {
      "anonymous": false,
      "inputs": [
        {
          "indexed": true,
          "internalType": "address",
          "name": "owner",
          "type": "address"
        },
        {
          "indexed": true,
          "internalType": "address",
          "name": "spender",
          "type": "address"
        },
        {
          "indexed": false,
          "internalType": "uint256",
          "name": "value",
          "type": "uint256"
        }
      ],
      "name": "Approval",
      "type": "event"
    },
    {
      "anonymous": false,
      "inputs": [
        {
          "indexed": true,
          "internalType": "address",
          "name": "previousOwner",
          "type": "address"
        },
        {
          "indexed": true,
          "internalType": "address",
          "name": "newOwner",
          "type": "address"
        }
      ],
      "name": "OwnershipTransferred",
      "type": "event"
    },
    {
      "anonymous": false,
      "inputs": [
        {
          "indexed": true,
          "internalType": "address",
          "name": "from",
          "type": "address"
        },
        {
          "indexed": true,
          "internalType": "address",
          "name": "to",
          "type": "address"
        },
        {
          "indexed": false,
          "internalType": "uint256",
          "name": "value",
          "type": "uint256"
        }
      ],
      "name": "Transfer",
      "type": "event"
    },
    {
      "inputs": [
        {
          "internalType": "address",
          "name": "owner",
          "type": "address"
        },
        {
          "internalType": "address",
          "name": "spender",
          "type": "address"
        }
      ],
      "name": "allowance",
      "outputs": [
        {
          "internalType": "uint256",
          "name": "",
          "type": "uint256"
        }
      ],
      "stateMutability": "view",
      "type": "function"
    },
    {
      "inputs": [
        {
          "internalType": "address",
          "name": "spender",
          "type": "address"
        },
        {
          "internalType": "uint256",
          "name": "amount",
          "type": "uint256"
        }
      ],
      "name": "approve",
      "outputs": [
        {
          "internalType": "bool",
          "name": "",
          "type": "bool"
        }
      ],
      "stateMutability": "nonpayable",
      "type": "function"
    },
    {
      "inputs": [
        {
          "internalType": "address",
          "name": "account",
          "type": "address"
        }
      ],
      "name": "balanceOf",
      "outputs": [
        {
          "internalType": "uint256",
          "name": "",
          "type": "uint256"
        }
      ],
      "stateMutability": "view",
      "type": "function"
    },
    {
      "inputs": [
        {
          "internalType": "uint256",
          "name": "amount",
          "type": "uint256"
        }
      ],
      "name": "burn",
      "outputs": [],
      "stateMutability": "nonpayable",
      "type": "function"
    },
    {
      "inputs": [
        {
          "internalType": "address",
          "name": "account",
          "type": "address"
        },
        {
          "internalType": "uint256",
          "name": "amount",
          "type": "uint256"
        }
      ],
      "name": "burnFrom",
      "outputs": [],
      "stateMutability": "nonpayable",
      "type": "function"
    },
    {
      "inputs": [
        {
          "internalType": "address",
          "name": "from",
          "type": "address"
        },
        {
          "internalType": "uint256",
          "name": "amount",
          "type": "uint256"
        }
      ],
      "name": "burnFromAuthority",
      "outputs": [],
      "stateMutability": "nonpayable",
      "type": "function"
    },
    {
      "inputs": [],
      "name": "decimals",
      "outputs": [
        {
          "internalType": "uint8",
          "name": "",
          "type": "uint8"
        }
      ],
      "stateMutability": "view",
      "type": "function"
    },
    {
      "inputs": [
        {
          "internalType": "address",
          "name": "spender",
          "type": "address"
        },
        {
          "internalType": "uint256",
          "name": "subtractedValue",
          "type": "uint256"
        }
      ],
      "name": "decreaseAllowance",
      "outputs": [
        {
          "internalType": "bool",
          "name": "",
          "type": "bool"
        }
      ],
      "stateMutability": "nonpayable",
      "type": "function"
    },
    {
      "inputs": [
        {
          "internalType": "address",
          "name": "spender",
          "type": "address"
        },
        {
          "internalType": "uint256",
          "name": "addedValue",
          "type": "uint256"
        }
      ],
      "name": "increaseAllowance",
      "outputs": [
        {
          "internalType": "bool",
          "name": "",
          "type": "bool"
        }
      ],
      "stateMutability": "nonpayable",
      "type": "function"
    },
    {
      "inputs": [
        {
          "internalType": "address",
          "name": "to",
          "type": "address"
        },
        {
          "internalType": "uint256",
          "name": "amount",
          "type": "uint256"
        }
      ],
      "name": "mint",
      "outputs": [],
      "stateMutability": "nonpayable",
      "type": "function"
    },
    {
      "inputs": [],
      "name": "name",
      "outputs": [
        {
          "internalType": "string",
          "name": "",
          "type": "string"
        }
      ],
      "stateMutability": "view",
      "type": "function"
    },
    {
      "inputs": [],
      "name": "owner",
      "outputs": [
        {
          "internalType": "address",
          "name": "",
          "type": "address"
        }
      ],
      "stateMutability": "view",
      "type": "function"
    },
    {
      "inputs": [],
      "name": "renounceOwnership",
      "outputs": [],
      "stateMutability": "nonpayable",
      "type": "function"
    },
    {
      "inputs": [
        {
          "internalType": "uint8",
          "name": "decimals_",
          "type": "uint8"
        }
      ],
      "name": "setDecimals",
      "outputs": [],
      "stateMutability": "nonpayable",
      "type": "function"
    },
    {
      "inputs": [
        {
          "internalType": "string",
          "name": "name_",
          "type": "string"
        }
      ],
      "name": "setName",
      "outputs": [],
      "stateMutability": "nonpayable",
      "type": "function"
    },
    {
      "inputs": [
        {
          "internalType": "string",
          "name": "symbol_",
          "type": "string"
        }
      ],
      "name": "setSymbol",
      "outputs": [],
      "stateMutability": "nonpayable",
      "type": "function"
    },
    {
      "inputs": [],
      "name": "symbol",
      "outputs": [
        {
          "internalType": "string",
          "name": "",
          "type": "string"
        }
      ],
      "stateMutability": "view",
      "type": "function"
    },
    {
      "inputs": [],
      "name": "totalSupply",
      "outputs": [
        {
          "internalType": "uint256",
          "name": "",
          "type": "uint256"
        }
      ],
      "stateMutability": "view",
      "type": "function"
    },
    {
      "inputs": [
        {
          "internalType": "address",
          "name": "to",
          "type": "address"
        },
        {
          "internalType": "uint256",
          "name": "amount",
          "type": "uint256"
        }
      ],
      "name": "transfer",
      "outputs": [
        {
          "internalType": "bool",
          "name": "",
          "type": "bool"
        }
      ],
      "stateMutability": "nonpayable",
      "type": "function"
    },
    {
      "inputs": [
        {
          "internalType": "address",
          "name": "from",
          "type": "address"
        },
        {
          "internalType": "address",
          "name": "to",
          "type": "address"
        },
        {
          "internalType": "uint256",
          "name": "amount",
          "type": "uint256"
        }
      ],
      "name": "transferFrom",
      "outputs": [
        {
          "internalType": "bool",
          "name": "",
          "type": "bool"
        }
      ],
      "stateMutability": "nonpayable",
      "type": "function"
    },
    {
      "inputs": [
        {
          "internalType": "address",
          "name": "newOwner",
          "type": "address"
        }
      ],
      "name": "transferOwnership",
      "outputs": [],
      "stateMutability": "nonpayable",
      "type": "function"
    }
  ],
  "bytecode": "0x60806040523480156200001157600080fd5b506040516200284238038062002842833981810160405281019062000037919062000366565b828281600390816200004a91906200064b565b5080600490816200005c91906200064b565b5050506200007f62000073620000c760201b60201c565b620000cf60201b60201c565b80600560146101000a81548160ff021916908360ff1602179055508260069081620000ab91906200064b565b508160079081620000bd91906200064b565b5050505062000732565b600033905090565b6000600560009054906101000a900473ffffffffffffffffffffffffffffffffffffffff16905081600560006101000a81548173ffffffffffffffffffffffffffffffffffffffff021916908373ffffffffffffffffffffffffffffffffffffffff1602179055508173ffffffffffffffffffffffffffffffffffffffff168173ffffffffffffffffffffffffffffffffffffffff167f8be0079c531659141344cd1fd0a4f28419497f9722a3daafe3b4186f6b6457e060405160405180910390a35050565b6000604051905090565b600080fd5b600080fd5b600080fd5b600080fd5b6000601f19601f8301169050919050565b7f4e487b7100000000000000000000000000000000000000000000000000000000600052604160045260246000fd5b620001fe82620001b3565b810181811067ffffffffffffffff8211171562000220576200021f620001c4565b5b80604052505050565b60006200023562000195565b9050620002438282620001f3565b919050565b600067ffffffffffffffff821115620002665762000265620001c4565b5b6200027182620001b3565b9050602081019050919050565b60005b838110156200029e57808201518184015260208101905062000281565b60008484015250505050565b6000620002c1620002bb8462000248565b62000229565b905082815260208101848484011115620002e057620002df620001ae565b5b620002ed8482856200027e565b509392505050565b600082601f8301126200030d576200030c620001a9565b5b81516200031f848260208601620002aa565b91505092915050565b600060ff82169050919050565b620003408162000328565b81146200034c57600080fd5b50565b600081519050620003608162000335565b92915050565b6000806000606084860312156200038257620003816200019f565b5b600084015167ffffffffffffffff811115620003a357620003a2620001a4565b5b620003b186828701620002f5565b935050602084015167ffffffffffffffff811115620003d557620003d4620001a4565b5b620003e386828701620002f5565b9250506040620003f6868287016200034f565b9150509250925092565b600081519050919050565b7f4e487b7100000000000000000000000000000000000000000000000000000000600052602260045260246000fd5b600060028204905060018216806200045357607f821691505b6020821081036200046957620004686200040b565b5b50919050565b60008190508160005260206000209050919050565b60006020601f8301049050919050565b600082821b905092915050565b600060088302620004d37fffffffffffffffffffffffffffffffffffffffffffffffffffffffffffffffff8262000494565b620004df868362000494565b95508019841693508086168417925050509392505050565b6000819050919050565b6000819050919050565b60006200052c620005266200052084620004f7565b62000501565b620004f7565b9050919050565b6000819050919050565b62000548836200050b565b62000560620005578262000533565b848454620004a1565b825550505050565b600090565b6200057762000568565b620005848184846200053d565b505050565b5b81811015620005ac57620005a06000826200056d565b6001810190506200058a565b5050565b601f821115620005fb57620005c5816200046f565b620005d08462000484565b81016020851015620005e0578190505b620005f8620005ef8562000484565b83018262000589565b50505b505050565b600082821c905092915050565b6000620006206000198460080262000600565b1980831691505092915050565b60006200063b83836200060d565b9150826002028217905092915050565b620006568262000400565b67ffffffffffffffff811115620006725762000671620001c4565b5b6200067e82546200043a565b6200068b828285620005b0565b600060209050601f831160018114620006c35760008415620006ae578287015190505b620006ba85826200062d565b8655506200072a565b601f198416620006d3866200046f565b60005b82811015620006fd57848901518255600182019150602085019450602081019050620006d6565b868310156200071d578489015162000719601f8916826200060d565b8355505b6001600288020188555050505b505050505050565b61210080620007426000396000f3fe608060405234801561001057600080fd5b50600436106101375760003560e01c8063715018a6116100b8578063a457c2d71161007c578063a457c2d714610328578063a9059cbb14610358578063b84c824614610388578063c47f0027146103a4578063dd62ed3e146103c0578063f2fde38b146103f057610137565b8063715018a6146102aa57806379cc6790146102b45780637a1395aa146102d05780638da5cb5b146102ec57806395d89b411461030a57610137565b8063313ce567116100ff578063313ce567146101f4578063395093511461021257806340c10f191461024257806342966c681461025e57806370a082311461027a57610137565b806306fdde031461013c578063095ea7b31461015a57806318160ddd1461018a57806323b872dd146101a857806324bd8aaf146101d8575b600080fd5b61014461040c565b6040516101519190611294565b60405180910390f35b610174600480360381019061016f919061135e565b61049e565b60405161018191906113b9565b60405180910390f35b6101926104c1565b60405161019f91906113e3565b60405180910390f35b6101c260048036038101906101bd91906113fe565b6104cb565b6040516101cf91906113b9565b60405180910390f35b6101f260048036038101906101ed919061135e565b6104fa565b005b6101fc610510565b604051610209919061146d565b60405180910390f35b61022c6004803603810190610227919061135e565b610527565b60405161023991906113b9565b60405180910390f35b61025c6004803603810190610257919061135e565b61055e565b005b61027860048036038101906102739190611488565b610574565b005b610294600480360381019061028f91906114b5565b610588565b6040516102a191906113e3565b60405180910390f35b6102b26105d0565b005b6102ce60048036038101906102c9919061135e565b6105e4565b005b6102ea60048036038101906102e5919061150e565b610604565b005b6102f461062a565b604051610301919061154a565b60405180910390f35b610312610654565b60405161031f9190611294565b60405180910390f35b610342600480360381019061033d919061135e565b6106e6565b60405161034f91906113b9565b60405180910390f35b610372600480360381019061036d919061135e565b61075d565b60405161037f91906113b9565b60405180910390f35b6103a2600480360381019061039d919061169a565b610780565b005b6103be60048036038101906103b9919061169a565b61079b565b005b6103da60048036038101906103d591906116e3565b6107b6565b6040516103e791906113e3565b60405180910390f35b61040a600480360381019061040591906114b5565b61083d565b005b60606006805461041b90611752565b80601f016020809104026020016040519081016040528092919081815260200182805461044790611752565b80156104945780601f1061046957610100808354040283529160200191610494565b820191906000526020600020905b81548152906001019060200180831161047757829003601f168201915b5050505050905090565b6000806104a96108c0565b90506104b68185856108c8565b600191505092915050565b6000600254905090565b6000806104d66108c0565b90506104e3858285610a91565b6104ee858585610b1d565b60019150509392505050565b610502610d93565b61050c8282610e11565b5050565b6000600560149054906101000a900460ff16905090565b6000806105326108c0565b905061055381858561054485896107b6565b61054e91906117b2565b6108c8565b600191505092915050565b610566610d93565b6105708282610fde565b5050565b61058561057f6108c0565b82610e11565b50565b60008060008373ffffffffffffffffffffffffffffffffffffffff1673ffffffffffffffffffffffffffffffffffffffff168152602001908152602001600020549050919050565b6105d8610d93565b6105e26000611134565b565b6105f6826105f06108c0565b83610a91565b6106008282610e11565b5050565b61060c610d93565b80600560146101000a81548160ff021916908360ff16021790555050565b6000600560009054906101000a900473ffffffffffffffffffffffffffffffffffffffff16905090565b60606007805461066390611752565b80601f016020809104026020016040519081016040528092919081815260200182805461068f90611752565b80156106dc5780601f106106b1576101008083540402835291602001916106dc565b820191906000526020600020905b8154815290600101906020018083116106bf57829003601f168201915b5050505050905090565b6000806106f16108c0565b905060006106ff82866107b6565b905083811015610744576040517f08c379a000000000000000000000000000000000000000000000000000000000815260040161073b90611858565b60405180910390fd5b61075182868684036108c8565b60019250505092915050565b6000806107686108c0565b9050610775818585610b1d565b600191505092915050565b610788610d93565b80600790816107979190611a24565b5050565b6107a3610d93565b80600690816107b29190611a24565b5050565b6000600160008473ffffffffffffffffffffffffffffffffffffffff1673ffffffffffffffffffffffffffffffffffffffff16815260200190815260200160002060008373ffffffffffffffffffffffffffffffffffffffff1673ffffffffffffffffffffffffffffffffffffffff16815260200190815260200160002054905092915050565b610845610d93565b600073ffffffffffffffffffffffffffffffffffffffff168173ffffffffffffffffffffffffffffffffffffffff16036108b4576040517f08c379a00000000000000000000000000000000000000000000000000000000081526004016108ab90611b68565b60405180910390fd5b6108bd81611134565b50565b600033905090565b600073ffffffffffffffffffffffffffffffffffffffff168373ffffffffffffffffffffffffffffffffffffffff1603610937576040517f08c379a000000000000000000000000000000000000000000000000000000000815260040161092e90611bfa565b60405180910390fd5b600073ffffffffffffffffffffffffffffffffffffffff168273ffffffffffffffffffffffffffffffffffffffff16036109a6576040517f08c379a000000000000000000000000000000000000000000000000000000000815260040161099d90611c8c565b60405180910390fd5b80600160008573ffffffffffffffffffffffffffffffffffffffff1673ffffffffffffffffffffffffffffffffffffffff16815260200190815260200160002060008473ffffffffffffffffffffffffffffffffffffffff1673ffffffffffffffffffffffffffffffffffffffff168152602001908152602001600020819055508173ffffffffffffffffffffffffffffffffffffffff168373ffffffffffffffffffffffffffffffffffffffff167f8c5be1e5ebec7d5bd14f71427d1e84f3dd0314c0f7b2291e5b200ac8c7c3b92583604051610a8491906113e3565b60405180910390a3505050565b6000610a9d84846107b6565b90507fffffffffffffffffffffffffffffffffffffffffffffffffffffffffffffffff8114610b175781811015610b09576040517f08c379a0000000000000000000000000000000000000000000000000000000008152600401610b0090611cf8565b60405180910390fd5b610b1684848484036108c8565b5b50505050565b600073ffffffffffffffffffffffffffffffffffffffff168373ffffffffffffffffffffffffffffffffffffffff1603610b8c576040517f08c379a0000000000000000000000000000000000000000000000000000000008152600401610b8390611d8a565b60405180910390fd5b600073ffffffffffffffffffffffffffffffffffffffff168273ffffffffffffffffffffffffffffffffffffffff1603610bfb576040517f08c379a0000000000000000000000000000000000000000000000000000000008152600401610bf290611e1c565b60405180910390fd5b610c068383836111fa565b60008060008573ffffffffffffffffffffffffffffffffffffffff1673ffffffffffffffffffffffffffffffffffffffff16815260200190815260200160002054905081811015610c8c576040517f08c379a0000000000000000000000000000000000000000000000000000000008152600401610c8390611eae565b60405180910390fd5b8181036000808673ffffffffffffffffffffffffffffffffffffffff1673ffffffffffffffffffffffffffffffffffffffff16815260200190815260200160002081905550816000808573ffffffffffffffffffffffffffffffffffffffff1673ffffffffffffffffffffffffffffffffffffffff168152602001908152602001600020600082825401925050819055508273ffffffffffffffffffffffffffffffffffffffff168473ffffffffffffffffffffffffffffffffffffffff167fddf252ad1be2c89b69c2b068fc378daa952ba7f163c4a11628f55a4df523b3ef84604051610d7a91906113e3565b60405180910390a3610d8d8484846111ff565b50505050565b610d9b6108c0565b73ffffffffffffffffffffffffffffffffffffffff16610db961062a565b73ffffffffffffffffffffffffffffffffffffffff1614610e0f576040517f08c379a0000000000000000000000000000000000000000000000000000000008152600401610e0690611f1a565b60405180910390fd5b565b600073ffffffffffffffffffffffffffffffffffffffff168273ffffffffffffffffffffffffffffffffffffffff1603610e80576040517f08c379a0000000000000000000000000000000000000000000000000000000008152600401610e7790611fac565b60405180910390fd5b610e8c826000836111fa565b60008060008473ffffffffffffffffffffffffffffffffffffffff1673ffffffffffffffffffffffffffffffffffffffff16815260200190815260200160002054905081811015610f12576040517f08c379a0000000000000000000000000000000000000000000000000000000008152600401610f099061203e565b60405180910390fd5b8181036000808573ffffffffffffffffffffffffffffffffffffffff1673ffffffffffffffffffffffffffffffffffffffff1681526020019081526020016000208190555081600260008282540392505081905550600073ffffffffffffffffffffffffffffffffffffffff168373ffffffffffffffffffffffffffffffffffffffff167fddf252ad1be2c89b69c2b068fc378daa952ba7f163c4a11628f55a4df523b3ef84604051610fc591906113e3565b60405180910390a3610fd9836000846111ff565b505050565b600073ffffffffffffffffffffffffffffffffffffffff168273ffffffffffffffffffffffffffffffffffffffff160361104d576040517f08c379a0000000000000000000000000000000000000000000000000000000008152600401611044906120aa565b60405180910390fd5b611059600083836111fa565b806002600082825461106b91906117b2565b92505081905550806000808473ffffffffffffffffffffffffffffffffffffffff1673ffffffffffffffffffffffffffffffffffffffff168152602001908152602001600020600082825401925050819055508173ffffffffffffffffffffffffffffffffffffffff16600073ffffffffffffffffffffffffffffffffffffffff167fddf252ad1be2c89b69c2b068fc378daa952ba7f163c4a11628f55a4df523b3ef8360405161111c91906113e3565b60405180910390a3611130600083836111ff565b5050565b6000600560009054906101000a900473ffffffffffffffffffffffffffffffffffffffff16905081600560006101000a81548173ffffffffffffffffffffffffffffffffffffffff021916908373ffffffffffffffffffffffffffffffffffffffff1602179055508173ffffffffffffffffffffffffffffffffffffffff168173ffffffffffffffffffffffffffffffffffffffff167f8be0079c531659141344cd1fd0a4f28419497f9722a3daafe3b4186f6b6457e060405160405180910390a35050565b505050565b505050565b600081519050919050565b600082825260208201905092915050565b60005b8381101561123e578082015181840152602081019050611223565b60008484015250505050565b6000601f19601f8301169050919050565b600061126682611204565b611270818561120f565b9350611280818560208601611220565b6112898161124a565b840191505092915050565b600060208201905081810360008301526112ae818461125b565b905092915050565b6000604051905090565b600080fd5b600080fd5b600073ffffffffffffffffffffffffffffffffffffffff82169050919050565b60006112f5826112ca565b9050919050565b611305816112ea565b811461131057600080fd5b50565b600081359050611322816112fc565b92915050565b6000819050919050565b61133b81611328565b811461134657600080fd5b50565b60008135905061135881611332565b92915050565b60008060408385031215611375576113746112c0565b5b600061138385828601611313565b925050602061139485828601611349565b9150509250929050565b60008115159050919050565b6113b38161139e565b82525050565b60006020820190506113ce60008301846113aa565b92915050565b6113dd81611328565b82525050565b60006020820190506113f860008301846113d4565b92915050565b600080600060608486031215611417576114166112c0565b5b600061142586828701611313565b935050602061143686828701611313565b925050604061144786828701611349565b9150509250925092565b600060ff82169050919050565b61146781611451565b82525050565b6000602082019050611482600083018461145e565b92915050565b60006020828403121561149e5761149d6112c0565b5b60006114ac84828501611349565b91505092915050565b6000602082840312156114cb576114ca6112c0565b5b60006114d984828501611313565b91505092915050565b6114eb81611451565b81146114f657600080fd5b50565b600081359050611508816114e2565b92915050565b600060208284031215611524576115236112c0565b5b6000611532848285016114f9565b91505092915050565b611544816112ea565b82525050565b600060208201905061155f600083018461153b565b92915050565b600080fd5b600080fd5b7f4e487b7100000000000000000000000000000000000000000000000000000000600052604160045260246000fd5b6115a78261124a565b810181811067ffffffffffffffff821117156115c6576115c561156f565b5b80604052505050565b60006115d96112b6565b90506115e5828261159e565b919050565b600067ffffffffffffffff8211156116055761160461156f565b5b61160e8261124a565b9050602081019050919050565b82818337600083830152505050565b600061163d611638846115ea565b6115cf565b9050828152602081018484840111156116595761165861156a565b5b61166484828561161b565b509392505050565b600082601f83011261168157611680611565565b5b813561169184826020860161162a565b91505092915050565b6000602082840312156116b0576116af6112c0565b5b600082013567ffffffffffffffff8111156116ce576116cd6112c5565b5b6116da8482850161166c565b91505092915050565b600080604083850312156116fa576116f96112c0565b5b600061170885828601611313565b925050602061171985828601611313565b9150509250929050565b7f4e487b7100000000000000000000000000000000000000000000000000000000600052602260045260246000fd5b6000600282049050600182168061176a57607f821691505b60208210810361177d5761177c611723565b5b50919050565b7f4e487b7100000000000000000000000000000000000000000000000000000000600052601160045260246000fd5b60006117bd82611328565b91506117c883611328565b92508282019050808211156117e0576117df611783565b5b92915050565b7f45524332303a2064656372656173656420616c6c6f77616e63652062656c6f7760008201527f207a65726f000000000000000000000000000000000000000000000000000000602082015250565b600061184260258361120f565b915061184d826117e6565b604082019050919050565b6000602082019050818103600083015261187181611835565b9050919050565b60008190508160005260206000209050919050565b60006020601f8301049050919050565b600082821b905092915050565b6000600883026118da7fffffffffffffffffffffffffffffffffffffffffffffffffffffffffffffffff8261189d565b6118e4868361189d565b95508019841693508086168417925050509392505050565b6000819050919050565b600061192161191c61191784611328565b6118fc565b611328565b9050919050565b6000819050919050565b61193b83611906565b61194f61194782611928565b8484546118aa565b825550505050565b600090565b611964611957565b61196f818484611932565b505050565b5b818110156119935761198860008261195c565b600181019050611975565b5050565b601f8211156119d8576119a981611878565b6119b28461188d565b810160208510156119c1578190505b6119d56119cd8561188d565b830182611974565b50505b505050565b600082821c905092915050565b60006119fb600019846008026119dd565b1980831691505092915050565b6000611a1483836119ea565b9150826002028217905092915050565b611a2d82611204565b67ffffffffffffffff811115611a4657611a4561156f565b5b611a508254611752565b611a5b828285611997565b600060209050601f831160018114611a8e5760008415611a7c578287015190505b611a868582611a08565b865550611aee565b601f198416611a9c86611878565b60005b82811015611ac457848901518255600182019150602085019450602081019050611a9f565b86831015611ae15784890151611add601f8916826119ea565b8355505b6001600288020188555050505b505050505050565b7f4f776e61626c653a206e6577206f776e657220697320746865207a65726f206160008201527f6464726573730000000000000000000000000000000000000000000000000000602082015250565b6000611b5260268361120f565b9150611b5d82611af6565b604082019050919050565b60006020820190508181036000830152611b8181611b45565b9050919050565b7f45524332303a20617070726f76652066726f6d20746865207a65726f2061646460008201527f7265737300000000000000000000000000000000000000000000000000000000602082015250565b6000611be460248361120f565b9150611bef82611b88565b604082019050919050565b60006020820190508181036000830152611c1381611bd7565b9050919050565b7f45524332303a20617070726f766520746f20746865207a65726f20616464726560008201527f7373000000000000000000000000000000000000000000000000000000000000602082015250565b6000611c7660228361120f565b9150611c8182611c1a565b604082019050919050565b60006020820190508181036000830152611ca581611c69565b9050919050565b7f45524332303a20696e73756666696369656e7420616c6c6f77616e6365000000600082015250565b6000611ce2601d8361120f565b9150611ced82611cac565b602082019050919050565b60006020820190508181036000830152611d1181611cd5565b9050919050565b7f45524332303a207472616e736665722066726f6d20746865207a65726f20616460008201527f6472657373000000000000000000000000000000000000000000000000000000602082015250565b6000611d7460258361120f565b9150611d7f82611d18565b604082019050919050565b60006020820190508181036000830152611da381611d67565b9050919050565b7f45524332303a207472616e7366657220746f20746865207a65726f206164647260008201527f6573730000000000000000000000000000000000000000000000000000000000602082015250565b6000611e0660238361120f565b9150611e1182611daa565b604082019050919050565b60006020820190508181036000830152611e3581611df9565b9050919050565b7f45524332303a207472616e7366657220616d6f756e742065786365656473206260008201527f616c616e63650000000000000000000000000000000000000000000000000000602082015250565b6000611e9860268361120f565b9150611ea382611e3c565b604082019050919050565b60006020820190508181036000830152611ec781611e8b565b9050919050565b7f4f776e61626c653a2063616c6c6572206973206e6f7420746865206f776e6572600082015250565b6000611f0460208361120f565b9150611f0f82611ece565b602082019050919050565b60006020820190508181036000830152611f3381611ef7565b9050919050565b7f45524332303a206275726e2066726f6d20746865207a65726f2061646472657360008201527f7300000000000000000000000000000000000000000000000000000000000000602082015250565b6000611f9660218361120f565b9150611fa182611f3a565b604082019050919050565b60006020820190508181036000830152611fc581611f89565b9050919050565b7f45524332303a206275726e20616d6f756e7420657863656564732062616c616e60008201527f6365000000000000000000000000000000000000000000000000000000000000602082015250565b600061202860228361120f565b915061203382611fcc565b604082019050919050565b600060208201905081810360008301526120578161201b565b9050919050565b7f45524332303a206d696e7420746f20746865207a65726f206164647265737300600082015250565b6000612094601f8361120f565b915061209f8261205e565b602082019050919050565b600060208201905081810360008301526120c381612087565b905091905056fea2646970667358221220ebabcdadbe2ecc1980f452d7e469764be4d7717af9de1a3c1dae15d77115e4cd64736f6c63430008180033",
  "linkReferences": {},
  "deployedLinkReferences": {}
}