{
  "_format": "hh-sol-artifact-1",
  "contractName": "ERC20Minter",
  "sourceName": "contracts/ERC20Minter.sol",
  "abi": [
    {
      "inputs": [
        {
          "internalType": "string",
          "name": "name",
          "type": "string"
        },
        {
          "internalType": "string",
          "name": "symbol",
          "type": "string"
        },
        {
          "internalType": "uint8",
          "name": "decimals_",
          "type": "uint8"
        }
      ],
      "stateMutability": "nonpayable",
      "type": "constructor"
    },
    {
      "anonymous": false,
      "inputs": [
        {
          "indexed": true,
          "internalType": "address",
          "name": "owner",
          "type": "address"
        },
        {
          "indexed": true,
          "internalType": "address",
          "name": "spender",
          "type": "address"
        },
        {
          "indexed": false,
          "internalType": "uint256",
          "name": "value",
          "type": "uint256"
        }
      ],
      "name": "Approval",
      "type": "event"
    },
    {
      "anonymous": false,
      "inputs": [
        {
          "indexed": true,
          "internalType": "address",
          "name": "previousOwner",
          "type": "address"
        },
        {
          "indexed": true,
          "internalType": "address",
          "name": "newOwner",
          "type": "address"
        }
      ],
      "name": "OwnershipTransferred",
      "type": "event"
    },
    {
      "anonymous": false,
      "inputs": [
        {
          "indexed": true,
          "internalType": "address",
          "name": "from",
          "type": "address"
        },
        {
          "indexed": true,
          "internalType": "address",
          "name": "to",
          "type": "address"
        },
        {
          "indexed": false,
          "internalType": "uint256",
          "name": "value",
          "type": "uint256"
        }
      ],
      "name": "Transfer",
      "type": "event"
    },
    {
      "inputs": [
        {
          "internalType": "address",
          "name": "owner",
          "type": "address"
        },
        {
          "internalType": "address",
          "name": "spender",
          "type": "address"
        }
      ],
      "name": "allowance",
      "outputs": [
        {
          "internalType": "uint256",
          "name": "",
          "type": "uint256"
        }
      ],
      "stateMutability": "view",
      "type": "function"
    },
    {
      "inputs": [
        {
          "internalType": "address",
          "name": "spender",
          "type": "address"
        },
        {
          "internalType": "uint256",
          "name": "amount",
          "type": "uint256"
        }
      ],
      "name": "approve",
      "outputs": [
        {
          "internalType": "bool",
          "name": "",
          "type": "bool"
        }
      ],
      "stateMutability": "nonpayable",
      "type": "function"
    },
    {
      "inputs": [
        {
          "internalType": "address",
          "name": "account",
          "type": "address"
        }
      ],
      "name": "balanceOf",
      "outputs": [
        {
          "internalType": "uint256",
          "name": "",
          "type": "uint256"
        }
      ],
      "stateMutability": "view",
      "type": "function"
    },
    {
      "inputs": [
        {
          "internalType": "uint256",
          "name": "amount",
          "type": "uint256"
        }
      ],
      "name": "burn",
      "outputs": [],
      "stateMutability": "nonpayable",
      "type": "function"
    },
    {
      "inputs": [
        {
          "internalType": "address",
          "name": "account",
          "type": "address"
        },
        {
          "internalType": "uint256",
          "name": "amount",
          "type": "uint256"
        }
      ],
      "name": "burnFrom",
      "outputs": [],
      "stateMutability": "nonpayable",
      "type": "function"
    },
    {
      "inputs": [
        {
          "internalType": "address",
          "name": "from",
          "type": "address"
        },
        {
          "internalType": "uint256",
          "name": "amount",
          "type": "uint256"
        }
      ],
      "name": "burnFromAuthority",
      "outputs": [],
      "stateMutability": "nonpayable",
      "type": "function"
    },
    {
      "inputs": [],
      "name": "decimals",
      "outputs": [
        {
          "internalType": "uint8",
          "name": "",
          "type": "uint8"
        }
      ],
      "stateMutability": "view",
      "type": "function"
    },
    {
      "inputs": [
        {
          "internalType": "address",
          "name": "spender",
          "type": "address"
        },
        {
          "internalType": "uint256",
          "name": "subtractedValue",
          "type": "uint256"
        }
      ],
      "name": "decreaseAllowance",
      "outputs": [
        {
          "internalType": "bool",
          "name": "",
          "type": "bool"
        }
      ],
      "stateMutability": "nonpayable",
      "type": "function"
    },
    {
      "inputs": [
        {
          "internalType": "address",
          "name": "spender",
          "type": "address"
        },
        {
          "internalType": "uint256",
          "name": "addedValue",
          "type": "uint256"
        }
      ],
      "name": "increaseAllowance",
      "outputs": [
        {
          "internalType": "bool",
          "name": "",
          "type": "bool"
        }
      ],
      "stateMutability": "nonpayable",
      "type": "function"
    },
    {
      "inputs": [
        {
          "internalType": "address",
          "name": "to",
          "type": "address"
        },
        {
          "internalType": "uint256",
          "name": "amount",
          "type": "uint256"
        }
      ],
      "name": "mint",
      "outputs": [],
      "stateMutability": "nonpayable",
      "type": "function"
    },
    {
      "inputs": [],
      "name": "name",
      "outputs": [
        {
          "internalType": "string",
          "name": "",
          "type": "string"
        }
      ],
      "stateMutability": "view",
      "type": "function"
    },
    {
      "inputs": [],
      "name": "owner",
      "outputs": [
        {
          "internalType": "address",
          "name": "",
          "type": "address"
        }
      ],
      "stateMutability": "view",
      "type": "function"
    },
    {
      "inputs": [],
      "name": "renounceOwnership",
      "outputs": [],
      "stateMutability": "nonpayable",
      "type": "function"
    },
    {
      "inputs": [],
      "name": "symbol",
      "outputs": [
        {
          "internalType": "string",
          "name": "",
          "type": "string"
        }
      ],
      "stateMutability": "view",
      "type": "function"
    },
    {
      "inputs": [],
      "name": "totalSupply",
      "outputs": [
        {
          "internalType": "uint256",
          "name": "",
          "type": "uint256"
        }
      ],
      "stateMutability": "view",
      "type": "function"
    },
    {
      "inputs": [
        {
          "internalType": "address",
          "name": "to",
          "type": "address"
        },
        {
          "internalType": "uint256",
          "name": "amount",
          "type": "uint256"
        }
      ],
      "name": "transfer",
      "outputs": [
        {
          "internalType": "bool",
          "name": "",
          "type": "bool"
        }
      ],
      "stateMutability": "nonpayable",
      "type": "function"
    },
    {
      "inputs": [
        {
          "internalType": "address",
          "name": "from",
          "type": "address"
        },
        {
          "internalType": "address",
          "name": "to",
          "type": "address"
        },
        {
          "internalType": "uint256",
          "name": "amount",
          "type": "uint256"
        }
      ],
      "name": "transferFrom",
      "outputs": [
        {
          "internalType": "bool",
          "name": "",
          "type": "bool"
        }
      ],
      "stateMutability": "nonpayable",
      "type": "function"
    },
    {
      "inputs": [
        {
          "internalType": "address",
          "name": "newOwner",
          "type": "address"
        }
      ],
      "name": "transferOwnership",
      "outputs": [],
      "stateMutability": "nonpayable",
      "type": "function"
    }
  ],
  "bytecode": "0x6080604052346200038857620010f5803803806200001d816200038d565b9283398101606082820312620003885781516001600160401b03908181116200038857826200004e918501620003b3565b906020928385015182811162000388576040916200006e918701620003b3565b9401519360ff851685036200038857825182811162000288576003918254916001958684811c941680156200037d575b8885101462000367578190601f9485811162000311575b508890858311600114620002aa576000926200029e575b505060001982861b1c191690861b1783555b8051938411620002885760049586548681811c911680156200027d575b8282101462000268578381116200021d575b5080928511600114620001af5750938394918492600095620001a3575b50501b92600019911b1c19161790555b60055460405191336001600160a01b0383167f8be0079c531659141344cd1fd0a4f28419497f9722a3daafe3b4186f6b6457e0600080a36001600160a81b03199091163360ff60a01b19161760a09190911b60ff60a01b1617600555610ccf9081620004268239f35b0151935038806200012a565b92919084601f1981168860005285600020956000905b89838310620002025750505010620001e7575b50505050811b0190556200013a565b01519060f884600019921b161c1916905538808080620001d8565b858701518955909701969485019488935090810190620001c5565b87600052816000208480880160051c8201928489106200025e575b0160051c019087905b828110620002515750506200010d565b6000815501879062000241565b9250819262000238565b602288634e487b7160e01b6000525260246000fd5b90607f1690620000fb565b634e487b7160e01b600052604160045260246000fd5b015190503880620000cc565b90889350601f19831691876000528a6000209260005b8c828210620002fa5750508411620002e1575b505050811b018355620000de565b015160001983881b60f8161c19169055388080620002d3565b8385015186558c97909501949384019301620002c0565b90915085600052886000208580850160051c8201928b86106200035d575b918a91869594930160051c01915b8281106200034d575050620000b5565b600081558594508a91016200033d565b925081926200032f565b634e487b7160e01b600052602260045260246000fd5b93607f16936200009e565b600080fd5b6040519190601f01601f191682016001600160401b038111838210176200028857604052565b919080601f84011215620003885782516001600160401b0381116200028857602090620003e9601f8201601f191683016200038d565b92818452828287010111620003885760005b8181106200041157508260009394955001015290565b8581018301518482018401528201620003fb56fe6080604081815260048036101561001557600080fd5b600092833560e01c90816306fdde03146106a057508063095ea7b31461067657806318160ddd1461065757806323b872dd1461061a57806324bd8aaf146105ed578063313ce567146105c8578063395093511461057857806340c10f19146104c457806342966c68146104a657806370a082311461046f578063715018a61461042457806379cc6790146103f15780638da5cb5b146103c857806395d89b41146102c4578063a457c2d71461021d578063a9059cbb146101ec578063dd62ed3e1461019f5763f2fde38b146100e957600080fd5b3461019b57602036600319011261019b576101026107c2565b9061010b610b0c565b6001600160a01b03918216928315610149575050600580546001600160a01b03198116841790915516600080516020610c5a8339815191528380a380f35b906020608492519162461bcd60e51b8352820152602660248201527f4f776e61626c653a206e6577206f776e657220697320746865207a65726f206160448201526564647265737360d01b6064820152fd5b8280fd5b5050346101e857806003193601126101e857806020926101bd6107c2565b6101c56107dd565b6001600160a01b0391821683526001865283832091168252845220549051908152f35b5080fd5b5050346101e857806003193601126101e85760209061021661020c6107c2565b60243590336109b0565b5160018152f35b5082346102c157826003193601126102c1576102376107c2565b918360243592338152600160205281812060018060a01b0386168252602052205490828210610270576020856102168585038733610816565b608490602086519162461bcd60e51b8352820152602560248201527f45524332303a2064656372656173656420616c6c6f77616e63652062656c6f77604482015264207a65726f60d81b6064820152fd5b80fd5b509190346101e857816003193601126101e85780519082845460018160011c90600183169283156103be575b60209384841081146103ab5783885290811561038f5750600114610357575b505050829003601f01601f19168201926001600160401b038411838510176103445750829182610340925282610779565b0390f35b634e487b7160e01b815260418552602490fd5b919250868652828620918387935b83851061037b575050505083010138808061030f565b805488860183015293019284908201610365565b60ff1916878501525050151560051b840101905038808061030f565b634e487b7160e01b895260228a52602489fd5b91607f16916102f0565b5050346101e857816003193601126101e85760055490516001600160a01b039091168152602090f35b5050346101e8573660031901126102c15761042161040d6107c2565b6024359061041c823383610918565b610b64565b80f35b83346102c157806003193601126102c15761043d610b0c565b600580546001600160a01b0319811690915581906001600160a01b0316600080516020610c5a8339815191528280a380f35b5050346101e85760203660031901126101e85760209181906001600160a01b036104976107c2565b16815280845220549051908152f35b8382346101e85760203660031901126101e857610421903533610b64565b50903461019b578060031936011261019b576104de6107c2565b90602435916104eb610b0c565b6001600160a01b03169283156105365750602082600080516020610c7a8339815191529261051c87956002546107f3565b60025585855284835280852082815401905551908152a380f35b6020606492519162461bcd60e51b8352820152601f60248201527f45524332303a206d696e7420746f20746865207a65726f2061646472657373006044820152fd5b5050346101e857806003193601126101e8576102166020926105c161059b6107c2565b338352600186528483206001600160a01b038216845286529184902054602435906107f3565b9033610816565b5050346101e857816003193601126101e85760209060ff60055460a01c169051908152f35b5050346101e8573660031901126102c1576104216106096107c2565b610611610b0c565b60243590610b64565b5050346101e85760603660031901126101e85760209061021661063b6107c2565b6106436107dd565b60443591610652833383610918565b6109b0565b5050346101e857816003193601126101e8576020906002549051908152f35b5050346101e857806003193601126101e8576020906102166106966107c2565b6024359033610816565b849150833461019b578260031936011261019b578260035460018160011c906001831692831561076f575b60209384841081146103ab57838852908115610753575060011461071a57505050829003601f01601f19168201926001600160401b038411838510176103445750829182610340925282610779565b91925060038652828620918387935b83851061073f575050505083010185808061030f565b805488860183015293019284908201610729565b60ff1916878501525050151560051b840101905085808061030f565b91607f16916106cb565b6020808252825181830181905290939260005b8281106107ae57505060409293506000838284010152601f8019910116010190565b81810186015184820160400152850161078c565b600435906001600160a01b03821682036107d857565b600080fd5b602435906001600160a01b03821682036107d857565b9190820180921161080057565b634e487b7160e01b600052601160045260246000fd5b6001600160a01b039081169182156108c757169182156108775760207f8c5be1e5ebec7d5bd14f71427d1e84f3dd0314c0f7b2291e5b200ac8c7c3b925918360005260018252604060002085600052825280604060002055604051908152a3565b60405162461bcd60e51b815260206004820152602260248201527f45524332303a20617070726f766520746f20746865207a65726f206164647265604482015261737360f01b6064820152608490fd5b60405162461bcd60e51b8152602060048201526024808201527f45524332303a20617070726f76652066726f6d20746865207a65726f206164646044820152637265737360e01b6064820152608490fd5b9060018060a01b0380831660005260016020526040600020908216600052602052604060002054926000198403610950575b50505050565b80841061096b57610962930391610816565b3880808061094a565b60405162461bcd60e51b815260206004820152601d60248201527f45524332303a20696e73756666696369656e7420616c6c6f77616e63650000006044820152606490fd5b6001600160a01b03908116918215610ab95716918215610a6857600082815280602052604081205491808310610a145760408282600080516020610c7a833981519152958760209652828652038282205586815220818154019055604051908152a3565b60405162461bcd60e51b815260206004820152602660248201527f45524332303a207472616e7366657220616d6f756e7420657863656564732062604482015265616c616e636560d01b6064820152608490fd5b60405162461bcd60e51b815260206004820152602360248201527f45524332303a207472616e7366657220746f20746865207a65726f206164647260448201526265737360e81b6064820152608490fd5b60405162461bcd60e51b815260206004820152602560248201527f45524332303a207472616e736665722066726f6d20746865207a65726f206164604482015264647265737360d81b6064820152608490fd5b6005546001600160a01b03163303610b2057565b606460405162461bcd60e51b815260206004820152602060248201527f4f776e61626c653a2063616c6c6572206973206e6f7420746865206f776e65726044820152fd5b6001600160a01b03168015610c0a57600091818352826020526040832054818110610bba5781600080516020610c7a833981519152926020928587528684520360408620558060025403600255604051908152a3565b60405162461bcd60e51b815260206004820152602260248201527f45524332303a206275726e20616d6f756e7420657863656564732062616c616e604482015261636560f01b6064820152608490fd5b60405162461bcd60e51b815260206004820152602160248201527f45524332303a206275726e2066726f6d20746865207a65726f206164647265736044820152607360f81b6064820152608490fdfe8be0079c531659141344cd1fd0a4f28419497f9722a3daafe3b4186f6b6457e0ddf252ad1be2c89b69c2b068fc378daa952ba7f163c4a11628f55a4df523b3efa2646970667358221220df515026f755b59af9cabe86ccc2a3c4838ed3d03fcf28195cf842e906d53b2964736f6c63430008180033",
  "linkReferences": {},
  "deployedLinkReferences": {}
}