{
  "_format": "hh-sol-artifact-1",
  "contractName": "NibiruOracleChainLinkMulti",
  "sourceName": "contracts/NibiruOracleChainLinkLikeMulti.sol",
  "abi": [
    {
      "inputs": [
        {
          "internalType": "string[]",
          "name": "_oracles",
          "type": "string[]"
        },
        {
          "internalType": "uint8",
          "name": "_dec",
          "type": "uint8"
        },
        {
          "internalType": "string",
          "name": "_name",
          "type": "string"
        }
      ],
      "stateMutability": "nonpayable",
      "type": "constructor"
    },
    {
      "inputs": [
        {
          "internalType": "int256",
          "name": "value",
          "type": "int256"
        }
      ],
      "name": "NegativeOracle",
      "type": "error"
    },
    {
      "inputs": [],
      "name": "ZeroOracle",
      "type": "error"
    },
    {
      "inputs": [],
      "name": "_decimals",
      "outputs": [
        {
          "internalType": "uint8",
          "name": "",
          "type": "uint8"
        }
      ],
      "stateMutability": "view",
      "type": "function"
    },
    {
      "inputs": [],
      "name": "decimals",
      "outputs": [
        {
          "internalType": "uint8",
          "name": "",
          "type": "uint8"
        }
      ],
      "stateMutability": "view",
      "type": "function"
    },
    {
      "inputs": [],
      "name": "description",
      "outputs": [
        {
          "internalType": "string",
          "name": "",
          "type": "string"
        }
      ],
      "stateMutability": "view",
      "type": "function"
    },
    {
      "inputs": [
        {
          "internalType": "uint256",
          "name": "",
          "type": "uint256"
        }
      ],
      "name": "getAnswer",
      "outputs": [
        {
          "internalType": "int256",
          "name": "",
          "type": "int256"
        }
      ],
      "stateMutability": "view",
      "type": "function"
    },
    {
      "inputs": [
        {
          "internalType": "uint80",
          "name": "",
          "type": "uint80"
        }
      ],
      "name": "getRoundData",
      "outputs": [
        {
          "internalType": "uint80",
          "name": "roundId",
          "type": "uint80"
        },
        {
          "internalType": "int256",
          "name": "answer",
          "type": "int256"
        },
        {
          "internalType": "uint256",
          "name": "startedAt",
          "type": "uint256"
        },
        {
          "internalType": "uint256",
          "name": "updatedAt",
          "type": "uint256"
        },
        {
          "internalType": "uint80",
          "name": "answeredInRound",
          "type": "uint80"
        }
      ],
      "stateMutability": "view",
      "type": "function"
    },
    {
      "inputs": [
        {
          "internalType": "uint256",
          "name": "",
          "type": "uint256"
        }
      ],
      "name": "getTimestamp",
      "outputs": [
        {
          "internalType": "uint256",
          "name": "",
          "type": "uint256"
        }
      ],
      "stateMutability": "view",
      "type": "function"
    },
    {
      "inputs": [],
      "name": "latestAnswer",
      "outputs": [
        {
          "internalType": "int256",
          "name": "",
          "type": "int256"
        }
      ],
      "stateMutability": "view",
      "type": "function"
    },
    {
      "inputs": [],
      "name": "latestRound",
      "outputs": [
        {
          "internalType": "uint256",
          "name": "",
          "type": "uint256"
        }
      ],
      "stateMutability": "view",
      "type": "function"
    },
    {
      "inputs": [],
      "name": "latestRoundData",
      "outputs": [
        {
          "internalType": "uint80",
          "name": "roundId",
          "type": "uint80"
        },
        {
          "internalType": "int256",
          "name": "answer",
          "type": "int256"
        },
        {
          "internalType": "uint256",
          "name": "startedAt",
          "type": "uint256"
        },
        {
          "internalType": "uint256",
          "name": "updatedAt",
          "type": "uint256"
        },
        {
          "internalType": "uint80",
          "name": "answeredInRound",
          "type": "uint80"
        }
      ],
      "stateMutability": "view",
      "type": "function"
    },
    {
      "inputs": [],
      "name": "latestTimestamp",
      "outputs": [
        {
          "internalType": "uint256",
          "name": "",
          "type": "uint256"
        }
      ],
      "stateMutability": "view",
      "type": "function"
    },
    {
      "inputs": [],
      "name": "name",
      "outputs": [
        {
          "internalType": "string",
          "name": "",
          "type": "string"
        }
      ],
      "stateMutability": "view",
      "type": "function"
    },
    {
      "inputs": [
        {
          "internalType": "uint256",
          "name": "",
          "type": "uint256"
        }
      ],
      "name": "oracles",
      "outputs": [
        {
          "internalType": "string",
          "name": "",
          "type": "string"
        }
      ],
      "stateMutability": "view",
      "type": "function"
    },
    {
      "inputs": [],
      "name": "version",
      "outputs": [
        {
          "internalType": "uint256",
          "name": "",
          "type": "uint256"
        }
      ],
      "stateMutability": "pure",
      "type": "function"
    }
  ],
  "bytecode": "0x6080604090808252346200059157620010e48038038091620000228285620005bf565b83398101606082820312620005915781516001600160401b03929083811162000591578101601f83818301121562000591578151946020908087116200035f5760059487861b948951986200007a8588018b620005bf565b8952838901958101840190868983116200059157858201905b838210620005965750505050828101519660ff88168098036200059157898201518381116200059157620000c8920162000608565b966012871162000527576001978882511115620004cf5760048251118a518581017f4e69626972754f7261636c65436861696e4c696e6b4d756c74693a204d61782081527f6e756d626572206f66206d756c7469706c69636174696f6e73200000000000008d8301527f6578636565646564202834293b20746f6f206d616e79206f7261636c65207061605a8301526834b9399033b4bb32b760b91b607a8301526063825260a0820192828410878511176200035f57838e5262000496575050508051908382116200035f57620001a160025462000663565b8681116200045a575b508490868311600114620003f157620001dd9291600091836200029f575b50508160011b916000199060031b1c19161790565b6002555b51936801000000000000000085116200035f576000548560005580861062000375575b5092906000805282600020916000945b8686106200023557895460ff191689178a558a51610a2a9081620006ba8239f35b80519081518481116200035f578b91879162000252885462000663565b86811162000322575b508294868211600114620002ab57908085966200028f936000926200029f5750508160011b916000199060031b1c19161790565b87555b0194019501949262000214565b015190503880620001c8565b94601f1982169089600052846000209160005b818110620002fe5750908697848895949310620002e4575b505050811b01875562000292565b015160001960f88460031b161c19169055388080620002d6565b9497939686929691938786015181550195019301928f95929693918b9592620002be565b6200034e90896000528d856000209089808601821c83019388871062000355575b01901c0190620006a0565b386200025b565b9350829362000343565b634e487b7160e01b600052604160045260246000fd5b6000805288868560002092830192015b8281106200039557505062000204565b620003a1815462000663565b80620003b2575b5001899062000385565b878111600114620003ca5750600081555b38620003a8565b600090828252620003e78989842092018c1c8201858301620006a0565b81835555620003c3565b8a9291601f198316916002600052876000209260005b8982821062000443575050841162000429575b505050811b01600255620001e1565b015160001960f88460031b161c191690553880806200041a565b8385015186558f9790950194938401930162000407565b6200048590600260005286600020888086018c1c8201928987106200048c575b018b1c0190620006a0565b38620001aa565b925081926200047a565b90604491888862461bcd60e51b865260a4840152620004c3835180938160c487015260e4860190620005e3565b01601f19168101030190fd5b895162461bcd60e51b815260048101859052602b60248201527f4e69626972754f7261636c65436861696e4c696e6b4d756c74693a20546f6f2060448201526a666577206f7261636c657360a81b6064820152608490fd5b885162461bcd60e51b815260048101849052603560248201527f4e69626972754f7261636c65436861696e4c696e6b4d756c74693a204465636960448201527f6d616c732063616e6e6f742065786365656420313800000000000000000000006064820152608490fd5b600080fd5b815186811162000591578791620005b38d84809488010162000608565b81520191019062000093565b601f909101601f19168101906001600160401b038211908210176200035f57604052565b60005b838110620005f75750506000910152565b8181015183820152602001620005e6565b81601f82011215620005915780516001600160401b0381116200035f57604051926200063f601f8301601f191660200185620005bf565b818452602082840101116200059157620006609160208085019101620005e3565b90565b90600182811c9216801562000695575b60208310146200067f57565b634e487b7160e01b600052602260045260246000fd5b91607f169162000673565b818110620006ac575050565b60008155600101620006a056fe60806040818152600436101561001457600080fd5b600091823560e01c90816306fdde031461042e57508063313ce5671461040d57806332424aa31461040d57806350d25bcd146103f157806354fd4d50146103d65780635b69a7d8146102f0578063668a0f02146102be5780637284e416146101a75780638205bf6a1461018b5780639a6fc8f51461015b578063b5ab58dc14610132578063b633620c1461010a5763feaf968c146100b157600080fd5b34610106578160031936011261010657610102906100cd6106bc565b94516001600160501b0394851681526020810193909352604083019190915260608201529116608082015290819060a0820190565b0390f35b5080fd5b5034610106576020366003190112610106576020906101276106bc565b509351938452505050f35b50346101065760203660031901126101065760209061014f6106bc565b50505091905051908152f35b5034610106576020366003190112610106576004356001600160501b0381160361010657610102906100cd6106bc565b50346101065781600319360112610106576020906101276106bc565b50346101065781600319360112610106578051906020927f4e6962697275204f7261636c6520436861696e4c696e6b2d6c696b6520636f6d60208401527803837b9b4ba32903332b2b2101436bab63a3494903337b91d1603d1b82840152605990809460025491610217836104dc565b926001908181169081156102925750600114610250575b6101028787610246828c03601f198101845283610516565b519182918261054f565b90919293965060028252602082205b84831061027f57505050508201605901925061024682610102388061022e565b805487840189015291830191810161025f565b91505061010297506102469450605992508693915060ff1916828401528015150282010194388061022e565b50346101065781600319360112610106576020906102da6106bc565b505092516001600160501b039092168252509050f35b503461010657602090816003193601126103d25760043583548110156103ce5761031990610598565b9290926103ba5781519284815490610330826104dc565b80875292600192808416908115610396575060011461035b575b6101028787610246828c0383610516565b9080949750528583205b8284106103835750505082610102946102469282010194388061034a565b8054868501880152928601928101610365565b60ff19168887015250505050151560051b830101925061024682610102388061034a565b634e487b7160e01b84526004849052602484fd5b8380fd5b8280fd5b50346101065781600319360112610106576020905160018152f35b503461010657816003193601126101065760209061014f6106bc565b503461010657816003193601126101065760209060ff600154169051908152f35b919050346103d257826003193601126103d2578260025461044e816104dc565b908185526020926001916001811690816000146104ba575060011461047f575b6101028686610246828b0383610516565b929550600283528583205b8284106104a757505050826101029461024692820101943861046e565b805486850188015292860192810161048a565b60ff191687860152505050151560051b8301019250610246826101023861046e565b90600182811c9216801561050c575b60208310146104f657565b634e487b7160e01b600052602260045260246000fd5b91607f16916104eb565b601f909101601f19168101906001600160401b0382119082101761053957604052565b634e487b7160e01b600052604160045260246000fd5b6020808252825181830181905290939260005b82811061058457505060409293506000838284010152601f8019910116010190565b818101860151848201604001528501610562565b9060009182548110156105b15782805260208320019190565b634e487b7160e01b83526032600452602483fd5b51906001600160501b03821682036105d957565b600080fd5b908160a09103126105d9576105f2816105c5565b916020820151916040810151916106106080606084015193016105c5565b90565b90602090602083526000928154610629816104dc565b928360208401526040906001926001811690816000146106975750600114610655575b50505050505090565b60009081526020812095979650949293925b83861061068457505050506040929350010138808080808061064c565b8054858701830152948701948201610667565b949650505050506040935060ff191683830152151560051b010138808080808061064c565b600054801561092d576000805260405163ece378ed60e01b81529060a082806107087f290decd9548b62a8d60345a988386fc84ba6bc95484008f6362f93160ef3e56360048301610613565b03816108015afa80156108d9576000936000916000926000956000926108fd575b50600081126108e557959092949360015b8181106107b157505060ff600154166012811061075a575b509493929190565b60129691960360ff811161079b5760ff16604d811161079b57600a0a90811561078557049438610752565b634e487b7160e01b600052601260045260246000fd5b634e487b7160e01b600052601160045260246000fd5b6107da60a06107bf83610598565b506040518093819263ece378ed60e01b835260048301610613565b03816108015afa9889156108d9576000996000809260009460009361089d575b50811561088b5760008212610872579061081391610943565b9a6001600160501b03908782168282161161086a575b5080891690821611610862575b5088811061085a575b50868110610851575b5060010161073a565b95506001610848565b97503861083f565b965038610836565b965038610829565b60405163f2147c6f60e01b815260048101839052602490fd5b604051636ab74eb360e11b8152600490fd5b93509b5050506108c5915060a03d60a0116108d2575b6108bd8183610516565b8101906105de565b939b9093919290386107fa565b503d6108b3565b6040513d6000823e3d90fd5b6024906040519063f2147c6f60e01b82526004820152fd5b93505050935061091d91925060a03d60a0116108d2576108bd8183610516565b9493959190929092949038610729565b634e487b7160e01b600052603260045260246000fd5b90600019818309818302918280831092039180830392146109e357670de0b6b3a764000090828211156109a6577faccb18165bd6fe31ae1cf318dc5b51eee0e1ba569b88cd74c1773b91fac10669940990828211900360ee1b910360121c170290565b60405162461bcd60e51b81526020600482015260156024820152744d6174683a206d756c446976206f766572666c6f7760581b6044820152606490fd5b5050670de0b6b3a76400009150049056fea264697066735822122050fde528dc46d8b4af00e7bc541fd2701dc10918d7136f44bf86cec782a9e8b564736f6c63430008180033",
  "linkReferences": {},
  "deployedLinkReferences": {}
}