{
  "_format": "hh-sol-artifact-1",
  "contractName": "TestERC20TransferThenPrecompileSend",
  "sourceName": "contracts/TestERC20TransferThenPrecompileSend.sol",
  "abi": [
    {
      "inputs": [
        {
          "internalType": "address",
          "name": "erc20_",
          "type": "address"
        }
      ],
      "stateMutability": "nonpayable",
      "type": "constructor"
    },
    {
      "inputs": [
        {
          "internalType": "address payable",
          "name": "transferRecipient",
          "type": "address"
        },
        {
          "internalType": "uint256",
          "name": "transferAmount",
          "type": "uint256"
        },
        {
          "internalType": "string",
          "name": "precompileRecipient",
          "type": "string"
        },
        {
          "internalType": "uint256",
          "name": "precompileAmount",
          "type": "uint256"
        }
      ],
      "name": "erc20TransferThenPrecompileSend",
      "outputs": [],
      "stateMutability": "nonpayable",
      "type": "function"
    }
  ],
  "bytecode": "0x608060405234801561001057600080fd5b50604051610c4c380380610c4c833981810160405281019061003291906100db565b806000806101000a81548173ffffffffffffffffffffffffffffffffffffffff021916908373ffffffffffffffffffffffffffffffffffffffff16021790555050610108565b600080fd5b600073ffffffffffffffffffffffffffffffffffffffff82169050919050565b60006100a88261007d565b9050919050565b6100b88161009d565b81146100c357600080fd5b50565b6000815190506100d5816100af565b92915050565b6000602082840312156100f1576100f0610078565b5b60006100ff848285016100c6565b91505092915050565b610b35806101176000396000f3fe608060405234801561001057600080fd5b506004361061002b5760003560e01c8063264c325814610030575b600080fd5b61004a6004803603810190610045919061065c565b61004c565b005b60008054906101000a900473ffffffffffffffffffffffffffffffffffffffff1673ffffffffffffffffffffffffffffffffffffffff1663a9059cbb85856040518363ffffffff1660e01b81526004016100a792919061074d565b6020604051808303816000875af11580156100c6573d6000803e3d6000fd5b505050506040513d601f19601f820116820180604052508101906100ea91906107ae565b610129576040517f08c379a000000000000000000000000000000000000000000000000000000000815260040161012090610838565b60405180910390fd5b600061080073ffffffffffffffffffffffffffffffffffffffff1663e77a47bf60008054906101000a900473ffffffffffffffffffffffffffffffffffffffff1684866040518463ffffffff1660e01b815260040161018a939291906108e7565b6020604051808303816000875af11580156101a9573d6000803e3d6000fd5b505050506040513d601f19601f820116820180604052508101906101cd919061093a565b90508181146101db8261024d565b6101e48461024d565b6040516020016101f5929190610a61565b60405160208183030381529060405290610245576040517f08c379a000000000000000000000000000000000000000000000000000000000815260040161023c9190610aae565b60405180910390fd5b505050505050565b60606000600161025c8461031b565b01905060008167ffffffffffffffff81111561027b5761027a610531565b5b6040519080825280601f01601f1916602001820160405280156102ad5781602001600182028036833780820191505090505b509050600082602001820190505b600115610310578080600190039150507f3031323334353637383961626364656600000000000000000000000000000000600a86061a8153600a858161030457610303610ad0565b5b049450600085036102bb575b819350505050919050565b600080600090507a184f03e93ff9f4daa797ed6e38ed64bf6a1f0100000000000000008310610379577a184f03e93ff9f4daa797ed6e38ed64bf6a1f010000000000000000838161036f5761036e610ad0565b5b0492506040810190505b6d04ee2d6d415b85acef810000000083106103b6576d04ee2d6d415b85acef810000000083816103ac576103ab610ad0565b5b0492506020810190505b662386f26fc1000083106103e557662386f26fc1000083816103db576103da610ad0565b5b0492506010810190505b6305f5e100831061040e576305f5e100838161040457610403610ad0565b5b0492506008810190505b612710831061043357612710838161042957610428610ad0565b5b0492506004810190505b60648310610456576064838161044c5761044b610ad0565b5b0492506002810190505b600a8310610465576001810190505b80915050919050565b6000604051905090565b600080fd5b600080fd5b600073ffffffffffffffffffffffffffffffffffffffff82169050919050565b60006104ad82610482565b9050919050565b6104bd816104a2565b81146104c857600080fd5b50565b6000813590506104da816104b4565b92915050565b6000819050919050565b6104f3816104e0565b81146104fe57600080fd5b50565b600081359050610510816104ea565b92915050565b600080fd5b600080fd5b6000601f19601f8301169050919050565b7f4e487b7100000000000000000000000000000000000000000000000000000000600052604160045260246000fd5b61056982610520565b810181811067ffffffffffffffff8211171561058857610587610531565b5b80604052505050565b600061059b61046e565b90506105a78282610560565b919050565b600067ffffffffffffffff8211156105c7576105c6610531565b5b6105d082610520565b9050602081019050919050565b82818337600083830152505050565b60006105ff6105fa846105ac565b610591565b90508281526020810184848401111561061b5761061a61051b565b5b6106268482856105dd565b509392505050565b600082601f83011261064357610642610516565b5b81356106538482602086016105ec565b91505092915050565b6000806000806080858703121561067657610675610478565b5b6000610684878288016104cb565b945050602061069587828801610501565b935050604085013567ffffffffffffffff8111156106b6576106b561047d565b5b6106c28782880161062e565b92505060606106d387828801610501565b91505092959194509250565b6000819050919050565b60006107046106ff6106fa84610482565b6106df565b610482565b9050919050565b6000610716826106e9565b9050919050565b60006107288261070b565b9050919050565b6107388161071d565b82525050565b610747816104e0565b82525050565b6000604082019050610762600083018561072f565b61076f602083018461073e565b9392505050565b60008115159050919050565b61078b81610776565b811461079657600080fd5b50565b6000815190506107a881610782565b92915050565b6000602082840312156107c4576107c3610478565b5b60006107d284828501610799565b91505092915050565b600082825260208201905092915050565b7f4552432d3230207472616e73666572206661696c656400000000000000000000600082015250565b60006108226016836107db565b915061082d826107ec565b602082019050919050565b6000602082019050818103600083015261085181610815565b9050919050565b600061086382610482565b9050919050565b61087381610858565b82525050565b600081519050919050565b60005b838110156108a2578082015181840152602081019050610887565b60008484015250505050565b60006108b982610879565b6108c381856107db565b93506108d3818560208601610884565b6108dc81610520565b840191505092915050565b60006060820190506108fc600083018661086a565b610909602083018561073e565b818103604083015261091b81846108ae565b9050949350505050565b600081519050610934816104ea565b92915050565b6000602082840312156109505761094f610478565b5b600061095e84828501610925565b91505092915050565b600081905092915050565b7f4946756e546f6b656e2e73656e64546f42616e6b20737563636565646564206260008201527f7574207472616e73666572726564207468652077726f6e6720616d6f756e7400602082015250565b60006109ce603f83610967565b91506109d982610972565b603f82019050919050565b7f73656e74416d6f756e7420000000000000000000000000000000000000000000815250565b6000610a1582610879565b610a1f8185610967565b9350610a2f818560208601610884565b80840191505092915050565b7f6578706563746564200000000000000000000000000000000000000000000000815250565b6000610a6c826109c1565b9150610a77826109e4565b600b82019150610a878285610a0a565b9150610a9282610a3b565b600982019150610aa28284610a0a565b91508190509392505050565b60006020820190508181036000830152610ac881846108ae565b905092915050565b7f4e487b7100000000000000000000000000000000000000000000000000000000600052601260045260246000fdfea264697066735822122073c725e7eb7c8e88c92615b35ae81a3bf4ab64f0f76c3dfdbde4220b00b64abb64736f6c63430008180033",
  "linkReferences": {},
  "deployedLinkReferences": {}
}