{
  "_format": "hh-sol-artifact-1",
  "contractName": "TestERC20TransferThenPrecompileSend",
  "sourceName": "contracts/TestERC20TransferThenPrecompileSend.sol",
  "abi": [
    {
      "inputs": [
        {
          "internalType": "address",
          "name": "erc20_",
          "type": "address"
        }
      ],
      "stateMutability": "nonpayable",
      "type": "constructor"
    },
    {
      "inputs": [
        {
          "internalType": "address payable",
          "name": "transferRecipient",
          "type": "address"
        },
        {
          "internalType": "uint256",
          "name": "transferAmount",
          "type": "uint256"
        },
        {
          "internalType": "string",
          "name": "precompileRecipient",
          "type": "string"
        },
        {
          "internalType": "uint256",
          "name": "precompileAmount",
          "type": "uint256"
        }
      ],
      "name": "erc20TransferThenPrecompileSend",
      "outputs": [],
      "stateMutability": "nonpayable",
      "type": "function"
    }
  ],
  "bytecode": "0x60803461007457601f6105b338819003918201601f19168301916001600160401b038311848410176100795780849260209460405283398101031261007457516001600160a01b0381169081900361007457600080546001600160a01b03191691909117905560405161052390816100908239f35b600080fd5b634e487b7160e01b600052604160045260246000fdfe6040608081526004908136101561001557600080fd5b600091823560e01c63264c32581461002c57600080fd5b346102e65760803660031901126102e6576001600160a01b0391813583811691908290036102ea576024916044356001600160401b03811161025257366023820112156102525780850135958761008288610327565b9261008f865194856102ee565b888452602098368882840101116102e65780888b93018387013784010152878760643594604484845416918851948593849263a9059cbb60e01b84528d8401528b358c8401525af19081156102dc5789916102a2575b5015610267576101229493929187918954168451968792839263e77a47bf60e01b84528a8401528588840152606060448401526064830190610365565b03818a6108005af193841561025d57879461022a575b506101428461038a565b936101ff60736101518461038a565b9685519788917f4946756e546f6b656e2e73656e64546f42616e6b2073756363656564656420628c8401527f7574207472616e73666572726564207468652077726f6e6720616d6f756e7400888401526a039b2b73a20b6b7bab73a160ad1b605f8401526101c98c8251928391606a87019101610342565b820168032bc3832b1ba32b2160bd1b606a8201526101f08c83519384918785019101610342565b010360538101885201866102ee565b03610208578580f35b9061022692915194859462461bcd60e51b8652850152830190610365565b0390fd5b9093508581813d8311610256575b61024281836102ee565b8101031261025257519238610138565b8680fd5b503d610238565b82513d89823e3d90fd5b835162461bcd60e51b815280870188905260168187015275115490cb4c8c081d1c985b9cd9995c8819985a5b195960521b6044820152606490fd5b90508781813d83116102d5575b6102b981836102ee565b810103126102d1575180151581036102d157386100e5565b8880fd5b503d6102af565b85513d8b823e3d90fd5b8280fd5b8480fd5b601f909101601f19168101906001600160401b0382119082101761031157604052565b634e487b7160e01b600052604160045260246000fd5b6001600160401b03811161031157601f01601f191660200190565b60005b8381106103555750506000910152565b8181015183820152602001610345565b9060209161037e81518092818552858086019101610342565b601f01601f1916010190565b6000908072184f03e93ff9f4daa797ed6e38ed64bf6a1f0160401b808210156104df575b506904ee2d6d415b85acef8160201b808310156104d0575b50662386f26fc10000808310156104c1575b506305f5e100808310156104b2575b50612710808310156104a3575b506064821015610493575b600a80921015610489575b600190816021600186019561041e87610327565b9661042c60405198896102ee565b80885261043b601f1991610327565b01366020890137860101905b610453575b5050505090565b600019019083906f181899199a1a9b1b9c1cb0b131b232b360811b8282061a83530491821561048457919082610447565b61044c565b916001019161040a565b91906064600291049101916103ff565b600491939204910191386103f4565b600891939204910191386103e7565b601091939204910191386103d8565b602091939204910191386103c6565b6040935081049150386103ae56fea2646970667358221220ffb604fb19ee0e5470fcd5110ee642b8692eb209cea0888f62eb6b96f8aee6d864736f6c63430008180033",
  "linkReferences": {},
  "deployedLinkReferences": {}
}