{
  "_format": "hh-sol-artifact-1",
  "contractName": "TestDirtyStateAttack4",
  "sourceName": "contracts/TestDirtyStateAttack4.sol",
  "abi": [
    {
      "inputs": [],
      "stateMutability": "payable",
      "type": "constructor"
    },
    {
      "inputs": [
        {
          "internalType": "string",
          "name": "wasmAddr",
          "type": "string"
        },
        {
          "internalType": "bytes",
          "name": "msgArgs",
          "type": "bytes"
        }
      ],
      "name": "attack",
      "outputs": [],
      "stateMutability": "nonpayable",
      "type": "function"
    },
    {
      "inputs": [],
      "name": "getCounter",
      "outputs": [
        {
          "internalType": "uint256",
          "name": "",
          "type": "uint256"
        }
      ],
      "stateMutability": "view",
      "type": "function"
    }
  ],
  "bytecode": "0x6080806040526000805561041f90816100168239f3fe6080604081815260048036101561001557600080fd5b600092833560e01c91826333c8899714610059575050638ada066e1461003a57600080fd5b34610055578160031936011261005557602091549051908152f35b5080fd5b838591346102f8576003199382853601126102f4576001600160401b039282358481116102f05761008d90369085016102fc565b929060243586811161023d576100a690369087016102fc565b88549199919260001984146102dd57989960018097959493929793018b556100cd8461032e565b600184526020968b5b8881106102a7575091610161899694928d969489516100f48161032e565b8a516100ff8161032e565b6005815264756e69626960d81b8d8201528152620f42408c82015261012387610382565b5261012d86610382565b506101518a519e8f9863187febb960e21b8a526060809c8b015260648a01916103c8565b91848884030160248901526103c8565b9084820301604485015282519081815288810189808460051b84010195019787925b8b8b86861061024b575050505050505050819293500381836108025af18015610241576101ae578580f35b3d8087873e6101bd818761035f565b85019482818703126102395780519085821161023d57019285601f85011215610239578351948511610226575051936101ff601f8501601f191683018661035f565b8385528184840101116102225780610219940191016103a5565b81808080808580f35b8480fd5b634e487b7160e01b875260419052602486fd5b8680fd5b8780fd5b81513d88823e3d90fd5b879a5083969950978b601f83959394979a85829b989b1993848b8703018d52516102888151938088528451948580928a0152848a8a0191016103a5565b0151868501520116010199019401940190938c95928e97949895610183565b8890889d9c939d979294959697516102be8161032e565b606081528d8382015282828a010152019b919a9b9594939290956100d6565b634e487b7160e01b8a526011885260248afd5b8580fd5b8380fd5b8280fd5b9181601f84011215610329578235916001600160401b038311610329576020838186019501011161032957565b600080fd5b604081019081106001600160401b0382111761034957604052565b634e487b7160e01b600052604160045260246000fd5b601f909101601f19168101906001600160401b0382119082101761034957604052565b80511561038f5760200190565b634e487b7160e01b600052603260045260246000fd5b60005b8381106103b85750506000910152565b81810151838201526020016103a8565b908060209392818452848401376000828201840152601f01601f191601019056fea2646970667358221220afafbe179a5feec5a2cd1eef2194c24244bd5a5c5b01c361eebdc7c3e6ea64e364736f6c63430008180033",
  "linkReferences": {},
  "deployedLinkReferences": {}
}