{"abi":[{"type":"constructor","inputs":[{"name":"_initialPerpContractAddress","type":"string","internalType":"string"},{"name":"_timelockDelay","type":"uint256","internalType":"uint256"}],"stateMutability":"nonpayable"},{"type":"function","name":"PRECISION","inputs":[],"outputs":[{"name":"","type":"uint256","internalType":"uint256"}],"stateMutability":"view"},{"type":"function","name":"_performSendToBank","inputs":[{"name":"token","type":"address","internalType":"address"},{"name":"amount","type":"uint256","internalType":"uint256"},{"name":"recipient","type":"string","internalType":"string"}],"outputs":[{"name":"","type":"uint256","internalType":"uint256"}],"stateMutability":"nonpayable"},{"type":"function","name":"_performSendToEvm","inputs":[{"name":"denom","type":"string","internalType":"string"},{"name":"amount","type":"uint256","internalType":"uint256"},{"name":"recipient","type":"string","internalType":"string"}],"outputs":[],"stateMutability":"nonpayable"},{"type":"function","name":"_performWasmExecute","inputs":[{"name":"contractAddress","type":"string","internalType":"string"},{"name":"msgExecute","type":"bytes","internalType":"bytes"},{"name":"funds","type":"tuple[]","internalType":"struct INibiruEvm.BankCoin[]","components":[{"name":"denom","type":"string","internalType":"string"},{"name":"amount","type":"uint256","internalType":"uint256"}]}],"outputs":[{"name":"result","type":"bytes","internalType":"bytes"}],"stateMutability":"nonpayable"},{"type":"function","name":"changeEffectiveTimestamp","inputs":[],"outputs":[{"name":"","type":"uint256","internalType":"uint256"}],"stateMutability":"view"},{"type":"function","name":"claimReferrerRewardsToEvm","inputs":[{"name":"collateralIndices","type":"uint256[]","internalType":"uint256[]"}],"outputs":[],"stateMutability":"nonpayable"},{"type":"function","name":"deposit","inputs":[{"name":"wasmMsgExecute","type":"bytes","internalType":"bytes"},{"name":"depositAmount","type":"uint256","internalType":"uint256"},{"name":"useErc20Amount","type":"uint256","internalType":"uint256"},{"name":"_vaultAddress","type":"string","internalType":"string"},{"name":"collateralAddress","type":"address","internalType":"address"},{"name":"sendSharesToEvm","type":"bool","internalType":"bool"}],"outputs":[],"stateMutability":"nonpayable"},{"type":"function","name":"executeNewPerpContractAddress","inputs":[],"outputs":[],"stateMutability":"nonpayable"},{"type":"function","name":"executeSimpleFunctions","inputs":[{"name":"wasmMsgExecute","type":"bytes","internalType":"bytes"}],"outputs":[],"stateMutability":"nonpayable"},{"type":"function","name":"executeVaultSimpleFunctions","inputs":[{"name":"wasmMsgExecute","type":"bytes","internalType":"bytes"},{"name":"_vaultAddress","type":"string","internalType":"string"}],"outputs":[],"stateMutability":"nonpayable"},{"type":"function","name":"getCollateralErc20AddressOfVault","inputs":[{"name":"_vaultAddress","type":"string","internalType":"string"}],"outputs":[{"name":"collateralAddress","type":"address","internalType":"address"}],"stateMutability":"view"},{"type":"function","name":"getCollateralIndexOfTrade","inputs":[{"name":"userBech32Address","type":"string","internalType":"string"},{"name":"tradeId","type":"uint256","internalType":"uint256"}],"outputs":[{"name":"collateralId","type":"uint256","internalType":"uint256"}],"stateMutability":"view"},{"type":"function","name":"getDenomOfCollateralIndex","inputs":[{"name":"tokenIndex","type":"uint256","internalType":"uint256"}],"outputs":[{"name":"denom","type":"string","internalType":"string"}],"stateMutability":"view"},{"type":"function","name":"getErc20AddressOfCollateralIndex","inputs":[{"name":"tokenIndex","type":"uint256","internalType":"uint256"}],"outputs":[{"name":"","type":"address","internalType":"address"}],"stateMutability":"view"},{"type":"function","name":"makeWithdrawRequest","inputs":[{"name":"_vaultAddress","type":"string","internalType":"string"},{"name":"wasmMsgExecute","type":"bytes","internalType":"bytes"},{"name":"withdrawAmount","type":"uint256","internalType":"uint256"},{"name":"useErc20Amount","type":"uint256","internalType":"uint256"}],"outputs":[],"stateMutability":"nonpayable"},{"type":"function","name":"openTrade","inputs":[{"name":"wasmMsgExecute","type":"bytes","internalType":"bytes"},{"name":"collateralIndex","type":"uint256","internalType":"uint256"},{"name":"depositAmount","type":"uint256","internalType":"uint256"},{"name":"useERC20Amount","type":"uint256","internalType":"uint256"}],"outputs":[],"stateMutability":"nonpayable"},{"type":"function","name":"owner","inputs":[],"outputs":[{"name":"","type":"address","internalType":"address"}],"stateMutability":"view"},{"type":"function","name":"pendingPerpContractAddress","inputs":[],"outputs":[{"name":"","type":"string","internalType":"string"}],"stateMutability":"view"},{"type":"function","name":"perpContractAddress","inputs":[],"outputs":[{"name":"","type":"string","internalType":"string"}],"stateMutability":"view"},{"type":"function","name":"proposeNewPerpContractAddress","inputs":[{"name":"_newAddress","type":"string","internalType":"string"}],"outputs":[],"stateMutability":"nonpayable"},{"type":"function","name":"redeem","inputs":[{"name":"wasmMsgExecute","type":"bytes","internalType":"bytes"},{"name":"_vaultAddress","type":"string","internalType":"string"},{"name":"redeemAmount","type":"uint256","internalType":"uint256"},{"name":"sendCollateralToEvm","type":"bool","internalType":"bool"}],"outputs":[],"stateMutability":"nonpayable"},{"type":"function","name":"renounceOwnership","inputs":[],"outputs":[],"stateMutability":"nonpayable"},{"type":"function","name":"timelockDelay","inputs":[],"outputs":[{"name":"","type":"uint256","internalType":"uint256"}],"stateMutability":"view"},{"type":"function","name":"transferOwnership","inputs":[{"name":"newOwner","type":"address","internalType":"address"}],"outputs":[],"stateMutability":"nonpayable"},{"type":"function","name":"updateLeverage","inputs":[{"name":"tradeIndex","type":"uint256","internalType":"uint256"},{"name":"newLeverage","type":"uint256","internalType":"uint256"},{"name":"collateralIndex","type":"uint256","internalType":"uint256"},{"name":"collateralAmount","type":"uint256","internalType":"uint256"},{"name":"useErc20Amount","type":"uint256","internalType":"uint256"}],"outputs":[],"stateMutability":"nonpayable"},{"type":"function","name":"updateTpAndLeverage","inputs":[{"name":"wasmMsgUpdateTp","type":"bytes","internalType":"bytes"},{"name":"wasmMsgUpdateSl","type":"bytes","internalType":"bytes"},{"name":"tradeIndex","type":"uint256","internalType":"uint256"},{"name":"newLeverage","type":"uint256","internalType":"uint256"},{"name":"collateralIndex","type":"uint256","internalType":"uint256"},{"name":"collateralAmount","type":"uint256","internalType":"uint256"},{"name":"useErc20Amount","type":"uint256","internalType":"uint256"}],"outputs":[],"stateMutability":"nonpayable"},{"type":"event","name":"DepositCollateral","inputs":[{"name":"sender","type":"address","indexed":true,"internalType":"address"},{"name":"erc20Amount","type":"uint256","indexed":false,"internalType":"uint256"},{"name":"vaultAddress","type":"string","indexed":false,"internalType":"string"},{"name":"bankDenom","type":"string","indexed":false,"internalType":"string"},{"name":"bankAddress","type":"address","indexed":false,"internalType":"address"}],"anonymous":false},{"type":"event","name":"OwnershipTransferred","inputs":[{"name":"previousOwner","type":"address","indexed":true,"internalType":"address"},{"name":"newOwner","type":"address","indexed":true,"internalType":"address"}],"anonymous":false},{"type":"event","name":"PerpContractAddressChangeProposed","inputs":[{"name":"newAddress","type":"string","indexed":true,"internalType":"string"},{"name":"effectiveTimestamp","type":"uint256","indexed":false,"internalType":"uint256"}],"anonymous":false},{"type":"event","name":"PerpContractAddressChanged","inputs":[{"name":"oldAddress","type":"string","indexed":true,"internalType":"string"},{"name":"newAddress","type":"string","indexed":true,"internalType":"string"}],"anonymous":false}],"bytecode":{"object":"0x60806040523480156200001157600080fd5b506040516200458a3803806200458a833981016040819052620000349162000122565b6200003f33620000bc565b6000825111620000955760405162461bcd60e51b815260206004820152601a60248201527f496e697469616c2050657270206164647265737320656d707479000000000000604482015260640160405180910390fd5b6001620000a383826200028c565b506002819055620000b433620000bc565b505062000358565b600080546001600160a01b038381166001600160a01b0319831681178455604051919092169283917f8be0079c531659141344cd1fd0a4f28419497f9722a3daafe3b4186f6b6457e09190a35050565b634e487b7160e01b600052604160045260246000fd5b600080604083850312156200013657600080fd5b82516001600160401b03808211156200014e57600080fd5b818501915085601f8301126200016357600080fd5b8151818111156200017857620001786200010c565b604051601f8201601f19908116603f01168101908382118183101715620001a357620001a36200010c565b81604052828152602093508884848701011115620001c057600080fd5b600091505b82821015620001e45784820184015181830185015290830190620001c5565b6000928101840192909252509401519395939450505050565b600181811c908216806200021257607f821691505b6020821081036200023357634e487b7160e01b600052602260045260246000fd5b50919050565b601f8211156200028757600081815260208120601f850160051c81016020861015620002625750805b601f850160051c820191505b8181101562000283578281556001016200026e565b5050505b505050565b81516001600160401b03811115620002a857620002a86200010c565b620002c081620002b98454620001fd565b8462000239565b602080601f831160018114620002f85760008415620002df5750858301515b600019600386901b1c1916600185901b17855562000283565b600085815260208120601f198616915b82811015620003295788860151825594840194600190910190840162000308565b5085821015620003485787850151600019600388901b60f8161c191681555b5050505050600190811b01905550565b61422280620003686000396000f3fe608060405234801561001057600080fd5b506004361061018e5760003560e01c80638da5cb5b116100de578063c4c20ffa11610097578063de4d330211610071578063de4d330214610349578063eef09bad14610351578063f2fde38b1461035a578063f3b66cae1461036d57600080fd5b8063c4c20ffa14610310578063d1ffd12214610323578063d4d281ac1461033657600080fd5b80638da5cb5b146102a457806394eaae3f146102b5578063aaf5eb68146102c8578063b102a991146102d7578063b29da1c3146102ea578063b52196d1146102fd57600080fd5b8063629b2af41161014b578063715018a611610125578063715018a61461026e5780637cb0d58f1461027657806380145d2a146102895780638517c7821461029c57600080fd5b8063629b2af41461023f57806367898e8d146102525780636dc9838d1461026557600080fd5b8063095aa6d0146101935780631d1882a1146101a857806326794039146101bb57806346ad64e7146101e15780634b9b0817146102015780634e59cb331461022c575b600080fd5b6101a66101a13660046131c3565b610375565b005b6101a66101b63660046131ff565b6104a2565b6101ce6101c9366004613272565b610739565b6040519081526020015b60405180910390f35b6101f46101ef3660046132d9565b610c4d565b6040516101d8919061345e565b61021461020f3660046131c3565b610cea565b6040516001600160a01b0390911681526020016101d8565b61021461023a366004613471565b610e5e565b6101a661024d36600461349f565b610ece565b6101a661026036600461351c565b61117b565b6101ce60045481565b6101a66112ff565b6101a66102843660046135ab565b611313565b6101a6610297366004613650565b611794565b6101f4611b83565b6000546001600160a01b0316610214565b6101a66102c33660046136e8565b611c11565b6101ce670de0b6b3a764000081565b6101f46102e5366004613471565b611f6a565b6101a66102f836600461373b565b6122f7565b6101ce61030b366004613776565b612304565b6101a661031e3660046137ce565b612396565b6101a6610331366004613831565b6123e8565b6101a66103443660046131c3565b612457565b6101f46124ad565b6101ce60025481565b6101a6610368366004613893565b6124ba565b6101a6612533565b61037d6126f0565b60008151116103cc5760405162461bcd60e51b81526020600482015260166024820152754e65772050657270206164647265737320656d70747960501b60448201526064015b60405180910390fd5b60016040516103db919061395d565b60405180910390208180519060200120036104385760405162461bcd60e51b815260206004820152601e60248201527f4e657720616464726573732069732073616d652061732063757272656e74000060448201526064016103c3565b600361044482826139b7565b506002546104529042613a8c565b600455604051610463908290613a9f565b6040519081900381206004548252907f9d1ccaf2d14e8f17c3fb8666695f960660740c5bac31a61105feebd7ee3a71419060200160405180910390a250565b600082116104f25760405162461bcd60e51b815260206004820152601b60248201527f576974686472617720616d6f756e74206d757374206265203e2030000000000060448201526064016103c3565b604080518082018252601c81527f7b226765745f7661756c745f73686172655f64656e6f6d223a7b7d7d00000000602082015290516306d81d2960e01b815260009161059a91610802916306d81d2991610550918a91600401613abb565b600060405180830381865afa15801561056d573d6000803e3d6000fd5b505050506040513d6000823e601f3d908101601f191682016040526105959190810190613b10565b61274a565b90506105b760408051808201909152600081526060602082015290565b604051639090147560e01b8152600090610800906390901475906105df90869060040161345e565b602060405180830381865afa1580156105fc573d6000803e3d6000fd5b505050506040513d601f19601f820116820180604052508101906106209190613b58565b905083156106af57610800637d2a8b4e61063b3360146128ab565b6040518263ffffffff1660e01b8152600401610657919061345e565b600060405180830381865afa158015610674573d6000803e3d6000fd5b505050506040513d6000823e601f3d908101601f1916820160405261069c9190810190613be3565b91506106ad81858460200151612304565b505b604080516001808252818301909252600091816020015b6040805180820190915260608152600060208201528152602001906001900390816106c65790505090506040518060400160405280858152602001878152508160008151811061071857610718613c17565b602002602001018190525061072e888883610c4d565b505050505050505050565b6000808361074684612a46565b604051602001610757929190613c2d565b60408051601f19818403018152908290526306d81d2960e01b82529150600090610802906306d81d2990610792906001908690600401613cd0565b600060405180830381865afa1580156107af573d6000803e3d6000fd5b505050506040513d6000823e601f3d908101601f191682016040526107d79190810190613b10565b905060008151116108435760405162461bcd60e51b815260206004820152603060248201527f5761736d2071756572792072657475726e656420656d70747920726573706f6e60448201526f736520666f72206765745f747261646560801b60648201526084016103c3565b60408051808201909152601f8082527f22636f6c6c61746572616c5f696e646578223a22546f6b656e496e64657828006020830152825183929160009182911161094b5760005b835185516108989190613d66565b811161094957600160005b8551811015610917578581815181106108be576108be613c17565b01602001516001600160f81b031916876108d88386613a8c565b815181106108e8576108e8613c17565b01602001516001600160f81b031916146109055760009150610917565b8061090f81613d79565b9150506108a3565b50801561093657845161092a9083613a8c565b93506001925050610949565b508061094181613d79565b91505061088a565b505b806109d55760405162461bcd60e51b815260206004820152604e60248201527f436f6c6c61746572616c20696e646578206b657920282722636f6c6c6174657260448201527f616c5f696e646578223a22546f6b656e496e646578282729206e6f7420666f7560648201526d6e6420696e20726573706f6e736560901b608482015260a4016103c3565b815b845181108015610a155750600360fc1b6001600160f81b031916858281518110610a0357610a03613c17565b01602001516001600160f81b03191610155b8015610a4f5750603960f81b6001600160f81b031916858281518110610a3d57610a3d613c17565b01602001516001600160f81b03191611155b15610a665780610a5e81613d79565b9150506109d7565b828111610ab55760405162461bcd60e51b815260206004820152601f60248201527f436f6c6c61746572616c20696e6465782076616c756520697320656d7074790060448201526064016103c3565b845181108015610af25750602960f81b6001600160f81b031916858281518110610ae157610ae1613c17565b01602001516001600160f81b031916145b610b755760405162461bcd60e51b815260206004820152604860248201527f436f6c6c61746572616c20696e6465782076616c7565206d616c666f726d656460448201527f20286d697373696e6720272927206f72206e6f6e2d6e756d6572696320636861606482015267726163746572732960c01b608482015260a4016103c3565b6000610b818483613d66565b6001600160401b03811115610b9857610b986130d8565b6040519080825280601f01601f191660200182016040528015610bc2576020820181803683370190505b50905060005b8151811015610c325786610bdc8287613a8c565b81518110610bec57610bec613c17565b602001015160f81c60f81b828281518110610c0957610c09613c17565b60200101906001600160f81b031916908160001a90535080610c2a81613d79565b915050610bc8565b50610c3c81612ad8565b985050505050505050505b92915050565b6060610ce06108026361ffaee460e01b868686604051602401610c7293929190613d92565b604051602081830303815290604052906001600160e01b0319166020820180516001600160e01b0383818316178352505050506040518060400160405280601881526020017f5761736d2065786563757465206661696c656420746573740000000000000000815250612c77565b90505b9392505050565b6000806108026001600160a01b03166306d81d2984604051602001610d32907f7b226765745f636f6c6c61746572616c5f64656e6f6d223a7b7d7d00000000008152601b0190565b6040516020818303038152906040526040518363ffffffff1660e01b8152600401610d5e929190613abb565b600060405180830381865afa158015610d7b573d6000803e3d6000fd5b505050506040513d6000823e601f3d908101601f19168201604052610da39190810190613b10565b90508051600003610dec5760405162461bcd60e51b815260206004820152601360248201527242616e6b2064656e6f6d20697320656d70747960681b60448201526064016103c3565b610df58161274a565b604051639090147560e01b815290915061080090639090147590610e1d90849060040161345e565b602060405180830381865afa158015610e3a573d6000803e3d6000fd5b505050506040513d601f19601f82011682018060405250810190610ce39190613b58565b60006108006390901475610e7184611f6a565b6040518263ffffffff1660e01b8152600401610e8d919061345e565b602060405180830381865afa158015610eaa573d6000803e3d6000fd5b505050506040513d601f19601f82011682018060405250810190610c479190613b58565b60008211610f1e5760405162461bcd60e51b815260206004820152601960248201527f52656465656d20616d6f756e74206d757374206265203e20300000000000000060448201526064016103c3565b6040805160008082526020820190925281610f5c565b604080518082019091526060815260006020820152815260200190600190039081610f345790505b509050610f6a848683610c4d565b50811561117457604080518082018252601b81527f7b226765745f636f6c6c61746572616c5f64656e6f6d223a7b7d7d0000000000602082015290516306d81d2960e01b8152600091610fcf91610802916306d81d2991610550918a91600401613abb565b90506000610fee60408051808201909152600081526060602082015290565b610800637d2a8b4e6110013360146128ab565b6040518263ffffffff1660e01b815260040161101d919061345e565b600060405180830381865afa15801561103a573d6000803e3d6000fd5b505050506040513d6000823e601f3d908101601f191682016040526110629190810190613be3565b805160405163a22c297f60e01b81529192506108009163a22c297f9161108c918790600401613e2e565b600060405180830381865afa1580156110a9573d6000803e3d6000fd5b505050506040513d6000823e601f3d908101601f191682016040526110d19190810190613e52565b50815160405163a22c297f60e01b81529193506000916108009163a22c297f9161110091908890600401613e2e565b600060405180830381865afa15801561111d573d6000803e3d6000fd5b505050506040513d6000823e601f3d908101601f191682016040526111459190810190613e52565b5090508281111561072e57600061115c8483613d66565b905061116e85826103313360146128ab565b50505050505b5050505050565b60408051600080825260208201909252816111b9565b6040805180820190915260608152600060208201528152602001906001900390816111915790505b509050611251600180546111cc906138b0565b80601f01602080910402602001604051908101604052809291908181526020018280546111f8906138b0565b80156112455780601f1061121a57610100808354040283529160200191611245565b820191906000526020600020905b81548152906001019060200180831161122857829003601f168201915b50505050508983610c4d565b506112e760018054611262906138b0565b80601f016020809104026020016040519081016040528092919081815260200182805461128e906138b0565b80156112db5780601f106112b0576101008083540402835291602001916112db565b820191906000526020600020905b8154815290600101906020018083116112be57829003601f168201915b50505050508883610c4d565b506112f58686868686612d12565b5050505050505050565b6113076126f0565b6113116000612fb0565b565b600081511161135c5760405162461bcd60e51b81526020600482015260156024820152744e6f20636f6c6c61746572616c20696e646963657360581b60448201526064016103c3565b60006113693360146128ab565b604051633e9545a760e11b815290915060009061080090637d2a8b4e9061139490859060040161345e565b600060405180830381865afa1580156113b1573d6000803e3d6000fd5b505050506040513d6000823e601f3d908101601f191682016040526113d99190810190613be3565b83519091506000816001600160401b038111156113f8576113f86130d8565b60405190808252806020026020018201604052801561142b57816020015b60608152602001906001900390816114165790505b5090506000826001600160401b03811115611448576114486130d8565b604051908082528060200260200182016040528015611471578160200160208202803683370190505b50905060005b838110156115615760006114a388838151811061149657611496613c17565b6020026020010151611f6a565b9050808483815181106114b8576114b8613c17565b6020908102919091010152855160405163a22c297f60e01b81526108009163a22c297f916114eb91908590600401613e2e565b600060405180830381865afa158015611508573d6000803e3d6000fd5b505050506040513d6000823e601f3d908101601f191682016040526115309190810190613e52565b5083838151811061154357611543613c17565b6020908102919091010152508061155981613d79565b915050611477565b50604080518082018252601a81527f7b22636c61696d5f72656665727265725f66656573223a7b7d7d000000000000602080830191909152825160008082529181019093529091816115d6565b6040805180820190915260608152600060208201528152602001906001900390816115ae5790505b50905061166e600180546115e9906138b0565b80601f0160208091040260200160405190810160405280929190818152602001828054611615906138b0565b80156116625780601f1061163757610100808354040283529160200191611662565b820191906000526020600020905b81548152906001019060200180831161164557829003601f168201915b50505050508383610c4d565b5060005b8581101561072e5760006108006001600160a01b031663a22c297f89600001518885815181106116a4576116a4613c17565b60200260200101516040518363ffffffff1660e01b81526004016116c9929190613e2e565b600060405180830381865afa1580156116e6573d6000803e3d6000fd5b505050506040513d6000823e601f3d908101601f1916820160405261170e9190810190613e52565b50905084828151811061172357611723613c17565b602002602001015181111561178157600085838151811061174657611746613c17565b6020026020010151826117599190613d66565b905061177f87848151811061177057611770613c17565b6020026020010151828c6123e8565b505b508061178c81613d79565b915050611672565b600085116117f55760405162461bcd60e51b815260206004820152602860248201527f4465706f73697420616d6f756e74206d7573742062652067726561746572207460448201526768616e207a65726f60c01b60648201526084016103c3565b6060600061181460408051808201909152600081526060602082015290565b83806118205750600087115b1561189c57610800637d2a8b4e6118383360146128ab565b6040518263ffffffff1660e01b8152600401611854919061345e565b600060405180830381865afa158015611871573d6000803e3d6000fd5b505050506040513d6000823e601f3d908101601f191682016040526118999190810190613be3565b90505b831561197157604080518082018252601c81527f7b226765745f7661756c745f73686172655f64656e6f6d223a7b7d7d00000000602082015290516306d81d2960e01b81526118fe91610802916306d81d2991610550918b9190600401613abb565b815160405163a22c297f60e01b81529194506108009163a22c297f91611928918790600401613e2e565b600060405180830381865afa158015611945573d6000803e3d6000fd5b505050506040513d6000823e601f3d908101601f1916820160405261196d9190810190613e52565b5091505b60405163b203bb9960e01b81523360048201526001600160a01b03861660248201526000906108009063b203bb9990604401600060405180830381865afa1580156119c0573d6000803e3d6000fd5b505050506040513d6000823e601f3d908101601f191682016040526119e89190810190613e8e565b5092505088159050611a0557611a0386898460200151612304565b505b604080516001808252818301909252600091816020015b604080518082019091526060815260006020820152815260200190600190039081611a1c5790505090506040518060400160405280836020015181526020018b81525081600081518110611a7257611a72613c17565b6020026020010181905250611a88888c83610c4d565b508515611b2b57825160405163a22c297f60e01b81526000916108009163a22c297f91611ab9918a90600401613e2e565b600060405180830381865afa158015611ad6573d6000803e3d6000fd5b505050506040513d6000823e601f3d908101601f19168201604052611afe9190810190613e52565b50905084811115611b29576000611b158683613d66565b9050611b2787826103313360146128ab565b505b505b336001600160a01b03167fd7833d9666d640112b219721cba43cefddb7490a6d86a2d1d7f6a029b700584d8a8a85602001518b604051611b6e9493929190613f04565b60405180910390a25050505050505050505050565b60018054611b90906138b0565b80601f0160208091040260200160405190810160405280929190818152602001828054611bbc906138b0565b8015611c095780601f10611bde57610100808354040283529160200191611c09565b820191906000526020600020905b815481529060010190602001808311611bec57829003601f168201915b505050505081565b60006108006390901475611c2486611f6a565b6040518263ffffffff1660e01b8152600401611c40919061345e565b602060405180830381865afa158015611c5d573d6000803e3d6000fd5b505050506040513d601f19601f82011682018060405250810190611c819190613b58565b9050600083118015611c935750600082115b15611d22576000610800637d2a8b4e611cad3360146128ab565b6040518263ffffffff1660e01b8152600401611cc9919061345e565b600060405180830381865afa158015611ce6573d6000803e3d6000fd5b505050506040513d6000823e601f3d908101601f19168201604052611d0e9190810190613be3565b9050611d1f82848360200151612304565b50505b60608315611e8a5760405163b203bb9960e01b81523360048201526001600160a01b038316602482015260009081906108009063b203bb9990604401600060405180830381865afa158015611d7b573d6000803e3d6000fd5b505050506040513d6000823e601f3d908101601f19168201604052611da39190810190613e8e565b50925092505085821015611e0d5760405162461bcd60e51b815260206004820152602b60248201527f4465706f73697420616d6f756e74206578636565647320617661696c61626c6560448201526a0818dbdb1b185d195c985b60aa1b60648201526084016103c3565b60408051600180825281830190925290816020015b604080518082019091526060815260006020820152815260200190600190039081611e225790505092506040518060400160405280826020015181526020018781525083600081518110611e7857611e78613c17565b60200260200101819052505050611ecc565b6040805160008082526020820190925290611ec8565b604080518082019091526060815260006020820152815260200190600190039081611ea05790505b5090505b611f6160018054611edc906138b0565b80601f0160208091040260200160405190810160405280929190818152602001828054611f08906138b0565b8015611f555780601f10611f2a57610100808354040283529160200191611f55565b820191906000526020600020905b815481529060010190602001808311611f3857829003601f168201915b50505050508783610c4d565b50505050505050565b606060006108026306d81d296001611f8186612a46565b604051602001611f919190613f49565b6040516020818303038152906040526040518363ffffffff1660e01b8152600401611fbd929190613cd0565b600060405180830381865afa158015611fda573d6000803e3d6000fd5b505050506040513d6000823e601f3d908101601f191682016040526120029190810190613b10565b905080516000036120495760405162461bcd60e51b8152602060048201526011602482015270526573706f6e736520697320656d70747960781b60448201526064016103c3565b60408051808201909152600980825268113232b737b6911d1160b91b602083015282518392600092909183911161213e5760005b8251855161208b9190613d66565b811161213c57600160005b845181101561210a578481815181106120b1576120b1613c17565b01602001516001600160f81b031916876120cb8386613a8c565b815181106120db576120db613c17565b01602001516001600160f81b031916146120f8576000915061210a565b8061210281613d79565b915050612096565b50801561212957835161211d9083613a8c565b9450600192505061213c565b508061213481613d79565b91505061207d565b505b806121835760405162461bcd60e51b815260206004820152601560248201527411195b9bdb48199a595b19081b9bdd08199bdd5b99605a1b60448201526064016103c3565b825b8451811080156121ba57508481815181106121a2576121a2613c17565b6020910101516001600160f81b031916601160f91b14155b156121d157806121c981613d79565b915050612185565b8451811061222d5760405162461bcd60e51b815260206004820152602360248201527f44656e6f6d2076616c756520636c6f73696e672071756f7465206e6f7420666f6044820152621d5b9960ea1b60648201526084016103c3565b60006122398583613d66565b6001600160401b03811115612250576122506130d8565b6040519080825280601f01601f19166020018201604052801561227a576020820181803683370190505b50905060005b81518110156122ea57866122948288613a8c565b815181106122a4576122a4613c17565b602001015160f81c60f81b8282815181106122c1576122c1613c17565b60200101906001600160f81b031916908160001a905350806122e281613d79565b915050612280565b5098975050505050505050565b6111748585858585612d12565b60008061237761080086868660405160240161232293929190613f9a565b60408051601f19818403018152918152602080830180516001600160e01b031663e77a47bf60e01b179052815180830190925260118252701cd95b99151bd0985b9ac819985a5b1959607a1b90820152612c77565b90508080602001905181019061238d9190613fc1565b95945050505050565b60408051600080825260208201909252816123d4565b6040805180820190915260608152600060208201528152602001906001900390816123ac5790505b5090506123e2828483610c4d565b50505050565b6123e261080084848460405160240161240393929190613fda565b60408051601f19818403018152918152602080830180516001600160e01b0316632e107aa960e01b1790528151808301909252601082526f1cd95b99151bd15d9b4819985a5b195960821b90820152612c77565b6040805160008082526020820190925281612495565b60408051808201909152606081526000602082015281526020019060019003908161246d5790505b5090506124a8600180546115e9906138b0565b505050565b60038054611b90906138b0565b6124c26126f0565b6001600160a01b0381166125275760405162461bcd60e51b815260206004820152602660248201527f4f776e61626c653a206e6577206f776e657220697320746865207a65726f206160448201526564647265737360d01b60648201526084016103c3565b61253081612fb0565b50565b61253b6126f0565b60006003805461254a906138b0565b90501161258d5760405162461bcd60e51b81526020600482015260116024820152704e6f2070656e64696e67206368616e676560781b60448201526064016103c3565b6004544210156125d65760405162461bcd60e51b8152602060048201526014602482015273151a5b595b1bd8dac81b9bdd08195e1c1a5c995960621b60448201526064016103c3565b6000600180546125e5906138b0565b80601f0160208091040260200160405190810160405280929190818152602001828054612611906138b0565b801561265e5780601f106126335761010080835404028352916020019161265e565b820191906000526020600020905b81548152906001019060200180831161264157829003601f168201915b50505050509050600360019081612675919061400f565b5060408051602081019091526000815260039061269290826139b7565b5060006004556040516126a79060019061395d565b6040518091039020816040516126bd9190613a9f565b604051908190038120907f27d1364fede851f89414532fa472a0cac0a7a12625d5dda0eb7979a04ca380a090600090a350565b6000546001600160a01b031633146113115760405162461bcd60e51b815260206004820181905260248201527f4f776e61626c653a2063616c6c6572206973206e6f7420746865206f776e657260448201526064016103c3565b60606000829050600281511015801561278857508060008151811061277157612771613c17565b6020910101516001600160f81b031916601160f91b145b80156127c55750806001825161279e9190613d66565b815181106127ae576127ae613c17565b6020910101516001600160f81b031916601160f91b145b156128a4576000600282516127da9190613d66565b6001600160401b038111156127f1576127f16130d8565b6040519080825280601f01601f19166020018201604052801561281b576020820181803683370190505b50905060015b6001835161282f9190613d66565b81101561289c5782818151811061284857612848613c17565b01602001516001600160f81b03191682612863600184613d66565b8151811061287357612873613c17565b60200101906001600160f81b031916908160001a9053508061289481613d79565b915050612821565b509392505050565b5090919050565b606060006128ba8360026140e1565b6128c5906002613a8c565b6001600160401b038111156128dc576128dc6130d8565b6040519080825280601f01601f191660200182016040528015612906576020820181803683370190505b509050600360fc1b8160008151811061292157612921613c17565b60200101906001600160f81b031916908160001a905350600f60fb1b8160018151811061295057612950613c17565b60200101906001600160f81b031916908160001a90535060006129748460026140e1565b61297f906001613a8c565b90505b60018111156129f7576f181899199a1a9b1b9c1cb0b131b232b360811b85600f16601081106129b3576129b3613c17565b1a60f81b8282815181106129c9576129c9613c17565b60200101906001600160f81b031916908160001a90535060049490941c936129f0816140f8565b9050612982565b508315610ce35760405162461bcd60e51b815260206004820181905260248201527f537472696e67733a20686578206c656e67746820696e73756666696369656e7460448201526064016103c3565b60606000612a5383613000565b60010190506000816001600160401b03811115612a7257612a726130d8565b6040519080825280601f01601f191660200182016040528015612a9c576020820181803683370190505b5090508181016020015b600019016f181899199a1a9b1b9c1cb0b131b232b360811b600a86061a8153600a8504945084612aa657509392505050565b80516000908290612b2b5760405162461bcd60e51b815260206004820152601d60248201527f737472696e67546f55696e743a20537472696e6720697320656d70747900000060448201526064016103c3565b6000915060005b8151811015612c70576000828281518110612b4f57612b4f613c17565b016020015160f81c905060308110801590612b6e575060398160ff1611155b612bca5760405162461bcd60e51b815260206004820152602760248201527f737472696e67546f55696e743a204e6f6e2d64696769742063686172616374656044820152661c88199bdd5b9960ca1b60648201526084016103c3565b6000612bd760308361410f565b60ff169050600a612bea82600019613d66565b612bf49190614128565b851115612c435760405162461bcd60e51b815260206004820152601e60248201527f737472696e67546f55696e743a20496e7465676572206f766572666c6f77000060448201526064016103c3565b80612c4f86600a6140e1565b612c599190613a8c565b945050508080612c6890613d79565b915050612b32565b5050919050565b6060600080856001600160a01b031685604051612c949190613a9f565b600060405180830381855af49150503d8060008114612ccf576040519150601f19603f3d011682016040523d82523d6000602084013e612cd4565b606091505b50915091508115612ce8579150610ce39050565b805115612cf85780518060208301fd5b8360405162461bcd60e51b81526004016103c3919061345e565b60006108006390901475612d2586611f6a565b6040518263ffffffff1660e01b8152600401612d41919061345e565b602060405180830381865afa158015612d5e573d6000803e3d6000fd5b505050506040513d601f19601f82011682018060405250810190612d829190613b58565b90508115612e14576000610800637d2a8b4e612d9f3360146128ab565b6040518263ffffffff1660e01b8152600401612dbb919061345e565b600060405180830381865afa158015612dd8573d6000803e3d6000fd5b505050506040513d6000823e601f3d908101601f19168201604052612e009190810190613be3565b9050612e1182848360200151612304565b50505b6000612e1f87612a46565b612e2887612a46565b604051602001612e3992919061414a565b60408051601f19818403018152919052905060608415612f5e5760405163b203bb9960e01b81523360048201526001600160a01b03841660248201526000906108009063b203bb9990604401600060405180830381865afa158015612ea2573d6000803e3d6000fd5b505050506040513d6000823e601f3d908101601f19168201604052612eca9190810190613e8e565b50925060019150612ed89050565b604051908082528060200260200182016040528015612f1e57816020015b604080518082019091526060815260006020820152815260200190600190039081612ef65790505b5091506040518060400160405280826020015181526020018781525082600081518110612f4d57612f4d613c17565b602002602001018190525050612fa0565b6040805160008082526020820190925290612f9c565b604080518082019091526060815260006020820152815260200190600190039081612f745790505b5090505b61072e600180546115e9906138b0565b600080546001600160a01b038381166001600160a01b0319831681178455604051919092169283917f8be0079c531659141344cd1fd0a4f28419497f9722a3daafe3b4186f6b6457e09190a35050565b60008072184f03e93ff9f4daa797ed6e38ed64bf6a1f0160401b831061303f5772184f03e93ff9f4daa797ed6e38ed64bf6a1f0160401b830492506040015b6d04ee2d6d415b85acef8100000000831061306b576d04ee2d6d415b85acef8100000000830492506020015b662386f26fc10000831061308957662386f26fc10000830492506010015b6305f5e10083106130a1576305f5e100830492506008015b61271083106130b557612710830492506004015b606483106130c7576064830492506002015b600a8310610c475760010192915050565b634e487b7160e01b600052604160045260246000fd5b604080519081016001600160401b0381118282101715613110576131106130d8565b60405290565b604051601f8201601f191681016001600160401b038111828210171561313e5761313e6130d8565b604052919050565b60006001600160401b0382111561315f5761315f6130d8565b50601f01601f191660200190565b600082601f83011261317e57600080fd5b813561319161318c82613146565b613116565b8181528460208386010111156131a657600080fd5b816020850160208301376000918101602001919091529392505050565b6000602082840312156131d557600080fd5b81356001600160401b038111156131eb57600080fd5b6131f78482850161316d565b949350505050565b6000806000806080858703121561321557600080fd5b84356001600160401b038082111561322c57600080fd5b6132388883890161316d565b9550602087013591508082111561324e57600080fd5b5061325b8782880161316d565b949794965050505060408301359260600135919050565b6000806040838503121561328557600080fd5b82356001600160401b0381111561329b57600080fd5b6132a78582860161316d565b95602094909401359450505050565b60006001600160401b038211156132cf576132cf6130d8565b5060051b60200190565b6000806000606084860312156132ee57600080fd5b83356001600160401b038082111561330557600080fd5b6133118783880161316d565b945060209150818601358181111561332857600080fd5b6133348882890161316d565b94505060408601358181111561334957600080fd5b8601601f8101881361335a57600080fd5b803561336861318c826132b6565b81815260059190911b8201840190848101908a83111561338757600080fd5b8584015b838110156133fd578035868111156133a35760008081fd5b85016040818e03601f190112156133ba5760008081fd5b6133c26130ee565b88820135888111156133d45760008081fd5b6133e28f8b8386010161316d565b8252506040919091013588820152835291860191860161338b565b508096505050505050509250925092565b60005b83811015613429578181015183820152602001613411565b50506000910152565b6000815180845261344a81602086016020860161340e565b601f01601f19169290920160200192915050565b602081526000610ce36020830184613432565b60006020828403121561348357600080fd5b5035919050565b8035801515811461349a57600080fd5b919050565b600080600080608085870312156134b557600080fd5b84356001600160401b03808211156134cc57600080fd5b6134d88883890161316d565b955060208701359150808211156134ee57600080fd5b506134fb8782880161316d565b935050604085013591506135116060860161348a565b905092959194509250565b600080600080600080600060e0888a03121561353757600080fd5b87356001600160401b038082111561354e57600080fd5b61355a8b838c0161316d565b985060208a013591508082111561357057600080fd5b5061357d8a828b0161316d565b979a9799505050506040860135956060810135956080820135955060a0820135945060c09091013592509050565b600060208083850312156135be57600080fd5b82356001600160401b038111156135d457600080fd5b8301601f810185136135e557600080fd5b80356135f361318c826132b6565b81815260059190911b8201830190838101908783111561361257600080fd5b928401925b8284101561363057833582529284019290840190613617565b979650505050505050565b6001600160a01b038116811461253057600080fd5b60008060008060008060c0878903121561366957600080fd5b86356001600160401b038082111561368057600080fd5b61368c8a838b0161316d565b9750602089013596506040890135955060608901359150808211156136b057600080fd5b506136bd89828a0161316d565b93505060808701356136ce8161363b565b91506136dc60a0880161348a565b90509295509295509295565b600080600080608085870312156136fe57600080fd5b84356001600160401b0381111561371457600080fd5b6137208782880161316d565b97602087013597506040870135966060013595509350505050565b600080600080600060a0868803121561375357600080fd5b505083359560208501359550604085013594606081013594506080013592509050565b60008060006060848603121561378b57600080fd5b83356137968161363b565b92506020840135915060408401356001600160401b038111156137b857600080fd5b6137c48682870161316d565b9150509250925092565b600080604083850312156137e157600080fd5b82356001600160401b03808211156137f857600080fd5b6138048683870161316d565b9350602085013591508082111561381a57600080fd5b506138278582860161316d565b9150509250929050565b60008060006060848603121561384657600080fd5b83356001600160401b038082111561385d57600080fd5b6138698783880161316d565b945060208601359350604086013591508082111561388657600080fd5b506137c48682870161316d565b6000602082840312156138a557600080fd5b8135610ce38161363b565b600181811c908216806138c457607f821691505b6020821081036138e457634e487b7160e01b600052602260045260246000fd5b50919050565b600081546138f7816138b0565b6001828116801561390f576001811461392457613953565b60ff1984168752821515830287019450613953565b8560005260208060002060005b8581101561394a5781548a820152908401908201613931565b50505082870194505b5050505092915050565b6000610ce382846138ea565b601f8211156124a857600081815260208120601f850160051c810160208610156139905750805b601f850160051c820191505b818110156139af5782815560010161399c565b505050505050565b81516001600160401b038111156139d0576139d06130d8565b6139e4816139de84546138b0565b84613969565b602080601f831160018114613a195760008415613a015750858301515b600019600386901b1c1916600185901b1785556139af565b600085815260208120601f198616915b82811015613a4857888601518255948401946001909101908401613a29565b5085821015613a665787850151600019600388901b60f8161c191681555b5050505050600190811b01905550565b634e487b7160e01b600052601160045260246000fd5b80820180821115610c4757610c47613a76565b60008251613ab181846020870161340e565b9190910192915050565b604081526000613ace6040830185613432565b828103602084015261238d8185613432565b6000613aee61318c84613146565b9050828152838383011115613b0257600080fd5b610ce383602083018461340e565b600060208284031215613b2257600080fd5b81516001600160401b03811115613b3857600080fd5b8201601f81018413613b4957600080fd5b6131f784825160208401613ae0565b600060208284031215613b6a57600080fd5b8151610ce38161363b565b600060408284031215613b8757600080fd5b613b8f6130ee565b90508151613b9c8161363b565b815260208201516001600160401b03811115613bb757600080fd5b8201601f81018413613bc857600080fd5b613bd784825160208401613ae0565b60208301525092915050565b600060208284031215613bf557600080fd5b81516001600160401b03811115613c0b57600080fd5b6131f784828501613b75565b634e487b7160e01b600052603260045260246000fd5b7f7b226765745f7472616465223a7b226e69626931676332346c7437347365733981527f73776b7136673763756734653579373270376533346a7167756c223a22000000602082015260008351613c8b81603d85016020880161340e565b6911161134b73232bc111d60b11b603d918401918201528351613cb581604784016020880161340e565b617d7d60f01b60479290910191820152604901949350505050565b604081526000808454613ce2816138b0565b8060408601526060600180841660008114613d045760018114613d1e57613d4f565b60ff1985168884015283151560051b880183019550613d4f565b8960005260208060002060005b86811015613d465781548b8201870152908401908201613d2b565b8a018501975050505b5050505050828103602084015261238d8185613432565b81810381811115610c4757610c47613a76565b600060018201613d8b57613d8b613a76565b5060010190565b606081526000613da56060830186613432565b602083820381850152613db88287613432565b91506040848303818601528286518085528385019150838160051b86010184890160005b83811015613e1d57878303601f1901855281518051878552613e0088860182613432565b918901519489019490945294870194925090860190600101613ddc565b50909b9a5050505050505050505050565b6001600160a01b0383168152604060208201819052600090610ce090830184613432565b60008060408385031215613e6557600080fd5b8251915060208301516001600160401b03811115613e8257600080fd5b61382785828601613b75565b60008060008060808587031215613ea457600080fd5b845193506020850151925060408501516001600160401b0380821115613ec957600080fd5b613ed588838901613b75565b93506060870151915080821115613eeb57600080fd5b50613ef887828801613b75565b91505092959194509250565b848152608060208201526000613f1d6080830186613432565b8281036040840152613f2f8186613432565b91505060018060a01b038316606083015295945050505050565b7f7b226765745f636f6c6c61746572616c223a7b22696e646578223a0000000000815260008251613f8181601b85016020870161340e565b617d7d60f01b601b939091019283015250601d01919050565b60018060a01b038416815282602082015260606040820152600061238d6060830184613432565b600060208284031215613fd357600080fd5b5051919050565b606081526000613fed6060830186613432565b84602084015282810360408401526140058185613432565b9695505050505050565b81810361401a575050565b61402482546138b0565b6001600160401b0381111561403b5761403b6130d8565b614049816139de84546138b0565b6000601f82116001811461407d57600083156140655750848201545b600019600385901b1c1916600184901b178455611174565b600085815260209020601f19841690600086815260209020845b838110156140b75782860154825560019586019590910190602001614097565b5085831015613a665793015460001960f8600387901b161c19169092555050600190811b01905550565b8082028115828204841417610c4757610c47613a76565b60008161410757614107613a76565b506000190190565b60ff8281168282160390811115610c4757610c47613a76565b60008261414557634e487b7160e01b600052601260045260246000fd5b500490565b7f7b227570646174655f6c65766572616765223a7b2274726164655f696e6465788152710447444aae6cae4a8e4c2c8ca92dcc8caf0560731b60208201526000835161419d81603285016020880161340e565b72149116113732bbafb632bb32b930b3b2911d1160691b60329184019182015283516141d081604584016020880161340e565b62227d7d60e81b6045929091019182015260480194935050505056fea26469706673582212203170b428bd73631042f46b1a24ef77e93be10c7d1abb4df444855acc74789cff64736f6c63430008130033","linkReferences":{}},"methodIdentifiers":{"PRECISION()":"aaf5eb68","_performSendToBank(address,uint256,string)":"b52196d1","_performSendToEvm(string,uint256,string)":"d1ffd122","_performWasmExecute(string,bytes,(string,uint256)[])":"46ad64e7","changeEffectiveTimestamp()":"6dc9838d","claimReferrerRewardsToEvm(uint256[])":"7cb0d58f","deposit(bytes,uint256,uint256,string,address,bool)":"80145d2a","executeNewPerpContractAddress()":"f3b66cae","executeSimpleFunctions(bytes)":"d4d281ac","executeVaultSimpleFunctions(bytes,string)":"c4c20ffa","getCollateralErc20AddressOfVault(string)":"4b9b0817","getCollateralIndexOfTrade(string,uint256)":"26794039","getDenomOfCollateralIndex(uint256)":"b102a991","getErc20AddressOfCollateralIndex(uint256)":"4e59cb33","makeWithdrawRequest(string,bytes,uint256,uint256)":"1d1882a1","openTrade(bytes,uint256,uint256,uint256)":"94eaae3f","owner()":"8da5cb5b","pendingPerpContractAddress()":"de4d3302","perpContractAddress()":"8517c782","proposeNewPerpContractAddress(string)":"095aa6d0","redeem(bytes,string,uint256,bool)":"629b2af4","renounceOwnership()":"715018a6","timelockDelay()":"eef09bad","transferOwnership(address)":"f2fde38b","updateLeverage(uint256,uint256,uint256,uint256,uint256)":"b29da1c3","updateTpAndLeverage(bytes,bytes,uint256,uint256,uint256,uint256,uint256)":"67898e8d"},"id":0}