{
  "_format": "hh-sol-artifact-1",
  "contractName": "TestERC20InvalidFunction",
  "sourceName": "contracts/TestERC20InvalidFunction.sol",
  "abi": [
    {
      "inputs": [
        {
          "internalType": "string",
          "name": "name_",
          "type": "string"
        },
        {
          "internalType": "string",
          "name": "symbol_",
          "type": "string"
        },
        {
          "internalType": "uint8",
          "name": "decimals_",
          "type": "uint8"
        }
      ],
      "stateMutability": "nonpayable",
      "type": "constructor"
    },
    {
      "inputs": [
        {
          "internalType": "address",
          "name": "account",
          "type": "address"
        }
      ],
      "name": "balanceOf",
      "outputs": [
        {
          "internalType": "uint256",
          "name": "",
          "type": "uint256"
        }
      ],
      "stateMutability": "view",
      "type": "function"
    },
    {
      "inputs": [],
      "name": "decimals",
      "outputs": [
        {
          "internalType": "uint8",
          "name": "",
          "type": "uint8"
        }
      ],
      "stateMutability": "view",
      "type": "function"
    },
    {
      "inputs": [],
      "name": "name",
      "outputs": [
        {
          "internalType": "string",
          "name": "",
          "type": "string"
        }
      ],
      "stateMutability": "view",
      "type": "function"
    },
    {
      "inputs": [],
      "name": "symbol",
      "outputs": [
        {
          "internalType": "string",
          "name": "",
          "type": "string"
        }
      ],
      "stateMutability": "view",
      "type": "function"
    },
    {
      "inputs": [],
      "name": "totalSupply",
      "outputs": [
        {
          "internalType": "uint256",
          "name": "",
          "type": "uint256"
        }
      ],
      "stateMutability": "view",
      "type": "function"
    },
    {
      "inputs": [
        {
          "internalType": "address",
          "name": "to",
          "type": "address"
        }
      ],
      "name": "transfer",
      "outputs": [
        {
          "internalType": "bool",
          "name": "",
          "type": "bool"
        }
      ],
      "stateMutability": "nonpayable",
      "type": "function"
    }
  ],
  "bytecode": "0x60806040523480156200001157600080fd5b5060405162000bb738038062000bb783398181016040528101906200003791906200024a565b60008160ff16036200004c5760006002819055505b82600390816200005d91906200052f565b5081600490816200006f91906200052f565b5050505062000616565b6000604051905090565b600080fd5b600080fd5b600080fd5b600080fd5b6000601f19601f8301169050919050565b7f4e487b7100000000000000000000000000000000000000000000000000000000600052604160045260246000fd5b620000e28262000097565b810181811067ffffffffffffffff82111715620001045762000103620000a8565b5b80604052505050565b60006200011962000079565b9050620001278282620000d7565b919050565b600067ffffffffffffffff8211156200014a5762000149620000a8565b5b620001558262000097565b9050602081019050919050565b60005b838110156200018257808201518184015260208101905062000165565b60008484015250505050565b6000620001a56200019f846200012c565b6200010d565b905082815260208101848484011115620001c457620001c362000092565b5b620001d184828562000162565b509392505050565b600082601f830112620001f157620001f06200008d565b5b8151620002038482602086016200018e565b91505092915050565b600060ff82169050919050565b62000224816200020c565b81146200023057600080fd5b50565b600081519050620002448162000219565b92915050565b60008060006060848603121562000266576200026562000083565b5b600084015167ffffffffffffffff81111562000287576200028662000088565b5b6200029586828701620001d9565b935050602084015167ffffffffffffffff811115620002b957620002b862000088565b5b620002c786828701620001d9565b9250506040620002da8682870162000233565b9150509250925092565b600081519050919050565b7f4e487b7100000000000000000000000000000000000000000000000000000000600052602260045260246000fd5b600060028204905060018216806200033757607f821691505b6020821081036200034d576200034c620002ef565b5b50919050565b60008190508160005260206000209050919050565b60006020601f8301049050919050565b600082821b905092915050565b600060088302620003b77fffffffffffffffffffffffffffffffffffffffffffffffffffffffffffffffff8262000378565b620003c3868362000378565b95508019841693508086168417925050509392505050565b6000819050919050565b6000819050919050565b6000620004106200040a6200040484620003db565b620003e5565b620003db565b9050919050565b6000819050919050565b6200042c83620003ef565b620004446200043b8262000417565b84845462000385565b825550505050565b600090565b6200045b6200044c565b6200046881848462000421565b505050565b5b8181101562000490576200048460008262000451565b6001810190506200046e565b5050565b601f821115620004df57620004a98162000353565b620004b48462000368565b81016020851015620004c4578190505b620004dc620004d38562000368565b8301826200046d565b50505b505050565b600082821c905092915050565b60006200050460001984600802620004e4565b1980831691505092915050565b60006200051f8383620004f1565b9150826002028217905092915050565b6200053a82620002e4565b67ffffffffffffffff811115620005565762000555620000a8565b5b6200056282546200031e565b6200056f82828562000494565b600060209050601f831160018114620005a7576000841562000592578287015190505b6200059e858262000511565b8655506200060e565b601f198416620005b78662000353565b60005b82811015620005e157848901518255600182019150602085019450602081019050620005ba565b86831015620006015784890151620005fd601f891682620004f1565b8355505b6001600288020188555050505b505050505050565b61059180620006266000396000f3fe608060405234801561001057600080fd5b50600436106100625760003560e01c806306fdde031461006757806318160ddd146100855780631a695230146100a3578063313ce567146100d357806370a08231146100f157806395d89b4114610121575b600080fd5b61006f61013f565b60405161007c91906103a8565b60405180910390f35b61008d6101d1565b60405161009a91906103e3565b60405180910390f35b6100bd60048036038101906100b89190610461565b6101db565b6040516100ca91906104a9565b60405180910390f35b6100db61022c565b6040516100e891906104e0565b60405180910390f35b61010b60048036038101906101069190610461565b610235565b60405161011891906103e3565b60405180910390f35b61012961027d565b60405161013691906103a8565b60405180910390f35b60606003805461014e9061052a565b80601f016020809104026020016040519081016040528092919081815260200182805461017a9061052a565b80156101c75780601f1061019c576101008083540402835291602001916101c7565b820191906000526020600020905b8154815290600101906020018083116101aa57829003601f168201915b5050505050905090565b6000600254905090565b60008073ffffffffffffffffffffffffffffffffffffffff168273ffffffffffffffffffffffffffffffffffffffff16036102195760009050610227565b61022161030f565b50600190505b919050565b60006012905090565b60008060008373ffffffffffffffffffffffffffffffffffffffff1673ffffffffffffffffffffffffffffffffffffffff168152602001908152602001600020549050919050565b60606004805461028c9061052a565b80601f01602080910402602001604051908101604052809291908181526020018280546102b89061052a565b80156103055780601f106102da57610100808354040283529160200191610305565b820191906000526020600020905b8154815290600101906020018083116102e857829003601f168201915b5050505050905090565b60006001905090565b600081519050919050565b600082825260208201905092915050565b60005b83811015610352578082015181840152602081019050610337565b60008484015250505050565b6000601f19601f8301169050919050565b600061037a82610318565b6103848185610323565b9350610394818560208601610334565b61039d8161035e565b840191505092915050565b600060208201905081810360008301526103c2818461036f565b905092915050565b6000819050919050565b6103dd816103ca565b82525050565b60006020820190506103f860008301846103d4565b92915050565b600080fd5b600073ffffffffffffffffffffffffffffffffffffffff82169050919050565b600061042e82610403565b9050919050565b61043e81610423565b811461044957600080fd5b50565b60008135905061045b81610435565b92915050565b600060208284031215610477576104766103fe565b5b60006104858482850161044c565b91505092915050565b60008115159050919050565b6104a38161048e565b82525050565b60006020820190506104be600083018461049a565b92915050565b600060ff82169050919050565b6104da816104c4565b82525050565b60006020820190506104f560008301846104d1565b92915050565b7f4e487b7100000000000000000000000000000000000000000000000000000000600052602260045260246000fd5b6000600282049050600182168061054257607f821691505b602082108103610555576105546104fb565b5b5091905056fea264697066735822122013bee8b5d8399b122519fbc165a574256b89d0c16b256a8d0326eddc9ef5546364736f6c63430008180033",
  "linkReferences": {},
  "deployedLinkReferences": {}
}