{
  "_format": "hh-sol-artifact-1",
  "contractName": "TestFunTokenPrecompileLocalGas",
  "sourceName": "contracts/TestFunTokenPrecompileLocalGas.sol",
  "abi": [
    {
      "inputs": [
        {
          "internalType": "address",
          "name": "erc20_",
          "type": "address"
        }
      ],
      "stateMutability": "nonpayable",
      "type": "constructor"
    },
    {
      "inputs": [
        {
          "internalType": "uint256",
          "name": "amount",
          "type": "uint256"
        },
        {
          "internalType": "string",
          "name": "bech32Recipient",
          "type": "string"
        }
      ],
      "name": "callBankSend",
      "outputs": [],
      "stateMutability": "nonpayable",
      "type": "function"
    },
    {
      "inputs": [
        {
          "internalType": "uint256",
          "name": "amount",
          "type": "uint256"
        },
        {
          "internalType": "string",
          "name": "bech32Recipient",
          "type": "string"
        },
        {
          "internalType": "uint256",
          "name": "customGas",
          "type": "uint256"
        }
      ],
      "name": "callBankSendLocalGas",
      "outputs": [],
      "stateMutability": "nonpayable",
      "type": "function"
    }
  ],
  "bytecode": "0x608060405234801561001057600080fd5b50604051610951380380610951833981810160405281019061003291906100db565b806000806101000a81548173ffffffffffffffffffffffffffffffffffffffff021916908373ffffffffffffffffffffffffffffffffffffffff16021790555050610108565b600080fd5b600073ffffffffffffffffffffffffffffffffffffffff82169050919050565b60006100a88261007d565b9050919050565b6100b88161009d565b81146100c357600080fd5b50565b6000815190506100d5816100af565b92915050565b6000602082840312156100f1576100f0610078565b5b60006100ff848285016100c6565b91505092915050565b61083a806101176000396000f3fe608060405234801561001057600080fd5b50600436106100365760003560e01c806359b6ed891461003b57806390d2b5e714610057575b600080fd5b610055600480360381019061005091906104d0565b610073565b005b610071600480360381019061006c919061053f565b6101db565b005b600061080073ffffffffffffffffffffffffffffffffffffffff168260008054906101000a900473ffffffffffffffffffffffffffffffffffffffff1686866040516024016100c49392919061066a565b6040516020818303038152906040527f03003bc5000000000000000000000000000000000000000000000000000000007bffffffffffffffffffffffffffffffffffffffffffffffffffffffff19166020820180517bffffffffffffffffffffffffffffffffffffffffffffffffffffffff838183161783525050505060405161014e91906106ef565b60006040518083038160008787f1925050503d806000811461018c576040519150601f19603f3d011682016040523d82523d6000602084013e610191565b606091505b50509050806101d5576040517f08c379a00000000000000000000000000000000000000000000000000000000081526004016101cc90610778565b60405180910390fd5b50505050565b600061080073ffffffffffffffffffffffffffffffffffffffff1660008054906101000a900473ffffffffffffffffffffffffffffffffffffffff16848460405160240161022b9392919061066a565b6040516020818303038152906040527f03003bc5000000000000000000000000000000000000000000000000000000007bffffffffffffffffffffffffffffffffffffffffffffffffffffffff19166020820180517bffffffffffffffffffffffffffffffffffffffffffffffffffffffff83818316178352505050506040516102b591906106ef565b6000604051808303816000865af19150503d80600081146102f2576040519150601f19603f3d011682016040523d82523d6000602084013e6102f7565b606091505b505090508061033b576040517f08c379a0000000000000000000000000000000000000000000000000000000008152600401610332906107e4565b60405180910390fd5b505050565b6000604051905090565b600080fd5b600080fd5b6000819050919050565b61036781610354565b811461037257600080fd5b50565b6000813590506103848161035e565b92915050565b600080fd5b600080fd5b6000601f19601f8301169050919050565b7f4e487b7100000000000000000000000000000000000000000000000000000000600052604160045260246000fd5b6103dd82610394565b810181811067ffffffffffffffff821117156103fc576103fb6103a5565b5b80604052505050565b600061040f610340565b905061041b82826103d4565b919050565b600067ffffffffffffffff82111561043b5761043a6103a5565b5b61044482610394565b9050602081019050919050565b82818337600083830152505050565b600061047361046e84610420565b610405565b90508281526020810184848401111561048f5761048e61038f565b5b61049a848285610451565b509392505050565b600082601f8301126104b7576104b661038a565b5b81356104c7848260208601610460565b91505092915050565b6000806000606084860312156104e9576104e861034a565b5b60006104f786828701610375565b935050602084013567ffffffffffffffff8111156105185761051761034f565b5b610524868287016104a2565b925050604061053586828701610375565b9150509250925092565b600080604083850312156105565761055561034a565b5b600061056485828601610375565b925050602083013567ffffffffffffffff8111156105855761058461034f565b5b610591858286016104a2565b9150509250929050565b600073ffffffffffffffffffffffffffffffffffffffff82169050919050565b60006105c68261059b565b9050919050565b6105d6816105bb565b82525050565b6105e581610354565b82525050565b600081519050919050565b600082825260208201905092915050565b60005b8381101561062557808201518184015260208101905061060a565b60008484015250505050565b600061063c826105eb565b61064681856105f6565b9350610656818560208601610607565b61065f81610394565b840191505092915050565b600060608201905061067f60008301866105cd565b61068c60208301856105dc565b818103604083015261069e8184610631565b9050949350505050565b600081519050919050565b600081905092915050565b60006106c9826106a8565b6106d381856106b3565b93506106e3818560208601610607565b80840191505092915050565b60006106fb82846106be565b915081905092915050565b7f4661696c656420746f2063616c6c2062616e6b53656e6420776974682063757360008201527f746f6d2067617300000000000000000000000000000000000000000000000000602082015250565b60006107626027836105f6565b915061076d82610706565b604082019050919050565b6000602082019050818103600083015261079181610755565b9050919050565b7f4661696c656420746f2063616c6c2062616e6b53656e64000000000000000000600082015250565b60006107ce6017836105f6565b91506107d982610798565b602082019050919050565b600060208201905081810360008301526107fd816107c1565b905091905056fea2646970667358221220cf16927fc50953575dc9f444e1aefe75fa60bf10c7688dd039cb7503669ab76964736f6c63430008180033",
  "linkReferences": {},
  "deployedLinkReferences": {}
}