{
  "_format": "hh-sol-artifact-1",
  "contractName": "TestERC20MissingFunction",
  "sourceName": "contracts/TestERC20MissingFunction.sol",
  "abi": [
    {
      "inputs": [
        {
          "internalType": "string",
          "name": "name",
          "type": "string"
        },
        {
          "internalType": "string",
          "name": "symbol",
          "type": "string"
        },
        {
          "internalType": "uint8",
          "name": "decimals_",
          "type": "uint8"
        }
      ],
      "stateMutability": "nonpayable",
      "type": "constructor"
    },
    {
      "inputs": [],
      "name": "decimals",
      "outputs": [
        {
          "internalType": "uint8",
          "name": "",
          "type": "uint8"
        }
      ],
      "stateMutability": "view",
      "type": "function"
    },
    {
      "inputs": [],
      "name": "name",
      "outputs": [
        {
          "internalType": "string",
          "name": "",
          "type": "string"
        }
      ],
      "stateMutability": "view",
      "type": "function"
    },
    {
      "inputs": [],
      "name": "symbol",
      "outputs": [
        {
          "internalType": "string",
          "name": "",
          "type": "string"
        }
      ],
      "stateMutability": "view",
      "type": "function"
    },
    {
      "inputs": [],
      "name": "totalSupply",
      "outputs": [
        {
          "internalType": "uint256",
          "name": "",
          "type": "uint256"
        }
      ],
      "stateMutability": "view",
      "type": "function"
    },
    {
      "inputs": [
        {
          "internalType": "address",
          "name": "to",
          "type": "address"
        },
        {
          "internalType": "uint256",
          "name": "amount",
          "type": "uint256"
        }
      ],
      "name": "transfer",
      "outputs": [
        {
          "internalType": "bool",
          "name": "",
          "type": "bool"
        }
      ],
      "stateMutability": "nonpayable",
      "type": "function"
    }
  ],
  "bytecode": "0x60806040523480156200001157600080fd5b5060405162000b2238038062000b22833981810160405281019062000037919062000235565b82600390816200004891906200051a565b5081600490816200005a91906200051a565b5050505062000601565b6000604051905090565b600080fd5b600080fd5b600080fd5b600080fd5b6000601f19601f8301169050919050565b7f4e487b7100000000000000000000000000000000000000000000000000000000600052604160045260246000fd5b620000cd8262000082565b810181811067ffffffffffffffff82111715620000ef57620000ee62000093565b5b80604052505050565b60006200010462000064565b9050620001128282620000c2565b919050565b600067ffffffffffffffff82111562000135576200013462000093565b5b620001408262000082565b9050602081019050919050565b60005b838110156200016d57808201518184015260208101905062000150565b60008484015250505050565b6000620001906200018a8462000117565b620000f8565b905082815260208101848484011115620001af57620001ae6200007d565b5b620001bc8482856200014d565b509392505050565b600082601f830112620001dc57620001db62000078565b5b8151620001ee84826020860162000179565b91505092915050565b600060ff82169050919050565b6200020f81620001f7565b81146200021b57600080fd5b50565b6000815190506200022f8162000204565b92915050565b6000806000606084860312156200025157620002506200006e565b5b600084015167ffffffffffffffff81111562000272576200027162000073565b5b6200028086828701620001c4565b935050602084015167ffffffffffffffff811115620002a457620002a362000073565b5b620002b286828701620001c4565b9250506040620002c5868287016200021e565b9150509250925092565b600081519050919050565b7f4e487b7100000000000000000000000000000000000000000000000000000000600052602260045260246000fd5b600060028204905060018216806200032257607f821691505b602082108103620003385762000337620002da565b5b50919050565b60008190508160005260206000209050919050565b60006020601f8301049050919050565b600082821b905092915050565b600060088302620003a27fffffffffffffffffffffffffffffffffffffffffffffffffffffffffffffffff8262000363565b620003ae868362000363565b95508019841693508086168417925050509392505050565b6000819050919050565b6000819050919050565b6000620003fb620003f5620003ef84620003c6565b620003d0565b620003c6565b9050919050565b6000819050919050565b6200041783620003da565b6200042f620004268262000402565b84845462000370565b825550505050565b600090565b6200044662000437565b620004538184846200040c565b505050565b5b818110156200047b576200046f6000826200043c565b60018101905062000459565b5050565b601f821115620004ca5762000494816200033e565b6200049f8462000353565b81016020851015620004af578190505b620004c7620004be8562000353565b83018262000458565b50505b505050565b600082821c905092915050565b6000620004ef60001984600802620004cf565b1980831691505092915050565b60006200050a8383620004dc565b9150826002028217905092915050565b6200052582620002cf565b67ffffffffffffffff81111562000541576200054062000093565b5b6200054d825462000309565b6200055a8282856200047f565b600060209050601f8311600181146200059257600084156200057d578287015190505b620005898582620004fc565b865550620005f9565b601f198416620005a2866200033e565b60005b82811015620005cc57848901518255600182019150602085019450602081019050620005a5565b86831015620005ec5784890151620005e8601f891682620004dc565b8355505b6001600288020188555050505b505050505050565b61051180620006116000396000f3fe608060405234801561001057600080fd5b50600436106100575760003560e01c806306fdde031461005c57806318160ddd1461007a578063313ce5671461009857806395d89b41146100b6578063a9059cbb146100d4575b600080fd5b610064610104565b60405161007191906102e9565b60405180910390f35b610082610196565b60405161008f9190610324565b60405180910390f35b6100a06101a0565b6040516100ad919061035b565b60405180910390f35b6100be6101a9565b6040516100cb91906102e9565b60405180910390f35b6100ee60048036038101906100e99190610405565b61023b565b6040516100fb9190610460565b60405180910390f35b606060038054610113906104aa565b80601f016020809104026020016040519081016040528092919081815260200182805461013f906104aa565b801561018c5780601f106101615761010080835404028352916020019161018c565b820191906000526020600020905b81548152906001019060200180831161016f57829003601f168201915b5050505050905090565b6000600254905090565b60006012905090565b6060600480546101b8906104aa565b80601f01602080910402602001604051908101604052809291908181526020018280546101e4906104aa565b80156102315780601f1061020657610100808354040283529160200191610231565b820191906000526020600020905b81548152906001019060200180831161021457829003601f168201915b5050505050905090565b6000610245610250565b506001905092915050565b60006001905090565b600081519050919050565b600082825260208201905092915050565b60005b83811015610293578082015181840152602081019050610278565b60008484015250505050565b6000601f19601f8301169050919050565b60006102bb82610259565b6102c58185610264565b93506102d5818560208601610275565b6102de8161029f565b840191505092915050565b6000602082019050818103600083015261030381846102b0565b905092915050565b6000819050919050565b61031e8161030b565b82525050565b60006020820190506103396000830184610315565b92915050565b600060ff82169050919050565b6103558161033f565b82525050565b6000602082019050610370600083018461034c565b92915050565b600080fd5b600073ffffffffffffffffffffffffffffffffffffffff82169050919050565b60006103a68261037b565b9050919050565b6103b68161039b565b81146103c157600080fd5b50565b6000813590506103d3816103ad565b92915050565b6103e28161030b565b81146103ed57600080fd5b50565b6000813590506103ff816103d9565b92915050565b6000806040838503121561041c5761041b610376565b5b600061042a858286016103c4565b925050602061043b858286016103f0565b9150509250929050565b60008115159050919050565b61045a81610445565b82525050565b60006020820190506104756000830184610451565b92915050565b7f4e487b7100000000000000000000000000000000000000000000000000000000600052602260045260246000fd5b600060028204905060018216806104c257607f821691505b6020821081036104d5576104d461047b565b5b5091905056fea2646970667358221220a19534f82cd0dc270b9c4b446608cafa0d04a0942e9477d60206bd77bccbdf0a64736f6c63430008180033",
  "linkReferences": {},
  "deployedLinkReferences": {}
}