{
  "_format": "hh-sol-artifact-1",
  "contractName": "TestInfiniteRecursionERC20",
  "sourceName": "contracts/TestInfiniteRecursionERC20.sol",
  "abi": [
    {
      "inputs": [
        {
          "internalType": "string",
          "name": "_name",
          "type": "string"
        },
        {
          "internalType": "string",
          "name": "_symbol",
          "type": "string"
        },
        {
          "internalType": "uint8",
          "name": "",
          "type": "uint8"
        }
      ],
      "stateMutability": "nonpayable",
      "type": "constructor"
    },
    {
      "anonymous": false,
      "inputs": [
        {
          "indexed": true,
          "internalType": "address",
          "name": "owner",
          "type": "address"
        },
        {
          "indexed": true,
          "internalType": "address",
          "name": "spender",
          "type": "address"
        },
        {
          "indexed": false,
          "internalType": "uint256",
          "name": "value",
          "type": "uint256"
        }
      ],
      "name": "Approval",
      "type": "event"
    },
    {
      "anonymous": false,
      "inputs": [
        {
          "indexed": true,
          "internalType": "address",
          "name": "from",
          "type": "address"
        },
        {
          "indexed": true,
          "internalType": "address",
          "name": "to",
          "type": "address"
        },
        {
          "indexed": false,
          "internalType": "uint256",
          "name": "value",
          "type": "uint256"
        }
      ],
      "name": "Transfer",
      "type": "event"
    },
    {
      "inputs": [
        {
          "internalType": "address",
          "name": "owner",
          "type": "address"
        },
        {
          "internalType": "address",
          "name": "spender",
          "type": "address"
        }
      ],
      "name": "allowance",
      "outputs": [
        {
          "internalType": "uint256",
          "name": "",
          "type": "uint256"
        }
      ],
      "stateMutability": "view",
      "type": "function"
    },
    {
      "inputs": [
        {
          "internalType": "address",
          "name": "spender",
          "type": "address"
        },
        {
          "internalType": "uint256",
          "name": "amount",
          "type": "uint256"
        }
      ],
      "name": "approve",
      "outputs": [
        {
          "internalType": "bool",
          "name": "",
          "type": "bool"
        }
      ],
      "stateMutability": "nonpayable",
      "type": "function"
    },
    {
      "inputs": [],
      "name": "attackBalance",
      "outputs": [],
      "stateMutability": "view",
      "type": "function"
    },
    {
      "inputs": [],
      "name": "attackTransfer",
      "outputs": [],
      "stateMutability": "nonpayable",
      "type": "function"
    },
    {
      "inputs": [
        {
          "internalType": "address",
          "name": "who",
          "type": "address"
        }
      ],
      "name": "balanceOf",
      "outputs": [
        {
          "internalType": "uint256",
          "name": "",
          "type": "uint256"
        }
      ],
      "stateMutability": "view",
      "type": "function"
    },
    {
      "inputs": [],
      "name": "decimals",
      "outputs": [
        {
          "internalType": "uint8",
          "name": "",
          "type": "uint8"
        }
      ],
      "stateMutability": "view",
      "type": "function"
    },
    {
      "inputs": [
        {
          "internalType": "address",
          "name": "spender",
          "type": "address"
        },
        {
          "internalType": "uint256",
          "name": "subtractedValue",
          "type": "uint256"
        }
      ],
      "name": "decreaseAllowance",
      "outputs": [
        {
          "internalType": "bool",
          "name": "",
          "type": "bool"
        }
      ],
      "stateMutability": "nonpayable",
      "type": "function"
    },
    {
      "inputs": [
        {
          "internalType": "address",
          "name": "spender",
          "type": "address"
        },
        {
          "internalType": "uint256",
          "name": "addedValue",
          "type": "uint256"
        }
      ],
      "name": "increaseAllowance",
      "outputs": [
        {
          "internalType": "bool",
          "name": "",
          "type": "bool"
        }
      ],
      "stateMutability": "nonpayable",
      "type": "function"
    },
    {
      "inputs": [],
      "name": "name",
      "outputs": [
        {
          "internalType": "string",
          "name": "",
          "type": "string"
        }
      ],
      "stateMutability": "view",
      "type": "function"
    },
    {
      "inputs": [],
      "name": "symbol",
      "outputs": [
        {
          "internalType": "string",
          "name": "",
          "type": "string"
        }
      ],
      "stateMutability": "view",
      "type": "function"
    },
    {
      "inputs": [],
      "name": "totalSupply",
      "outputs": [
        {
          "internalType": "uint256",
          "name": "",
          "type": "uint256"
        }
      ],
      "stateMutability": "view",
      "type": "function"
    },
    {
      "inputs": [
        {
          "internalType": "address",
          "name": "",
          "type": "address"
        },
        {
          "internalType": "uint256",
          "name": "amount",
          "type": "uint256"
        }
      ],
      "name": "transfer",
      "outputs": [
        {
          "internalType": "bool",
          "name": "",
          "type": "bool"
        }
      ],
      "stateMutability": "nonpayable",
      "type": "function"
    },
    {
      "inputs": [
        {
          "internalType": "address",
          "name": "",
          "type": "address"
        },
        {
          "internalType": "address",
          "name": "",
          "type": "address"
        },
        {
          "internalType": "uint256",
          "name": "amount",
          "type": "uint256"
        }
      ],
      "name": "transferFrom",
      "outputs": [
        {
          "internalType": "bool",
          "name": "",
          "type": "bool"
        }
      ],
      "stateMutability": "nonpayable",
      "type": "function"
    }
  ],
  "bytecode": "0x60406080815234620003dd5762000e50803803806200001e81620003e2565b9283398101606082820312620003dd5781516001600160401b0390818111620003dd57826200004f91850162000408565b60209283850151838111620003dd5786916200006d91870162000408565b94015160ff811603620003dd57805191808311620002dd5760038054936001938486811c96168015620003d2575b87871014620003bc578190601f9687811162000366575b508790878311600114620002ff57600092620002f3575b505060001982841b1c191690841b1781555b8551918211620002dd5760049586548481811c91168015620002d2575b87821014620002bd5785811162000272575b5085908584116001146200020757938394918492600095620001fb575b50501b92600019911b1c19161783555b3315620001bc575060025469d3c21bcecceda100000092838201809211620001a757506000917fddf252ad1be2c89b69c2b068fc378daa952ba7f163c4a11628f55a4df523b3ef9160025533835282815284832084815401905584519384523393a3516109d590816200047b8239f35b601190634e487b7160e01b6000525260246000fd5b90606493519262461bcd60e51b845283015260248201527f45524332303a206d696e7420746f20746865207a65726f2061646472657373006044820152fd5b01519350388062000127565b9190601f198416928860005284886000209460005b8a898383106200025a57505050106200023f575b50505050811b01835562000137565b01519060f884600019921b161c191690553880808062000230565b8686015189559097019694850194889350016200021c565b87600052866000208680860160051c820192898710620002b3575b0160051c019085905b828110620002a65750506200010a565b6000815501859062000296565b925081926200028d565b602288634e487b7160e01b6000525260246000fd5b90607f1690620000f8565b634e487b7160e01b600052604160045260246000fd5b015190503880620000c9565b90869350601f1983169185600052896000209260005b8b8282106200034f575050841162000336575b505050811b018155620000db565b015160001983861b60f8161c1916905538808062000328565b8385015186558a9790950194938401930162000315565b90915083600052876000208780850160051c8201928a8610620003b2575b918891869594930160051c01915b828110620003a2575050620000b2565b6000815585945088910162000392565b9250819262000384565b634e487b7160e01b600052602260045260246000fd5b95607f16956200009b565b600080fd5b6040519190601f01601f191682016001600160401b03811183821017620002dd57604052565b919080601f84011215620003dd5782516001600160401b038111620002dd576020906200043e601f8201601f19168301620003e2565b92818452828287010111620003dd5760005b8181106200046657508260009394955001015290565b85810183015184820184015282016200045056fe6080604052600436101561001257600080fd5b60003560e01c806306fdde03146100e7578063095ea7b3146100e257806318160ddd146100dd57806323b872dd146100d8578063313ce567146100d357806339509351146100ce57806370a08231146100c95780637a7ffab0146100c45780638cd64727146100bf57806395d89b41146100ba578063a457c2d7146100b5578063a9059cbb146100b05763dd62ed3e146100ab57600080fd5b610703565b6106dc565b610634565b61056e565b6104d7565b61042a565b610377565b61031a565b6102fe565b6102c4565b6102a6565b610275565b610135565b6020808252825181830181905290939260005b82811061012157505060409293506000838284010152601f8019910116010190565b8181018601518482016040015285016100ff565b3461024457600080600319360112610241576040519080600354906001918060011c9260018216928315610237575b60209260208610851461022357858852602088019490811561020257506001146101a9575b6101a58761019981890382610780565b604051918291826100ec565b0390f35b600360005294509192917fc2575a0e9e593c00f959f8c92f12db2869c3395a3b0502d05e2516446f71f85b5b8386106101f15750505091019050610199826101a53880610189565b8054858701529482019481016101d5565b60ff191685525050505090151560051b019050610199826101a53880610189565b634e487b7160e01b82526022600452602482fd5b93607f1693610164565b80fd5b600080fd5b600435906001600160a01b038216820361024457565b602435906001600160a01b038216820361024457565b346102445760403660031901126102445761029b610291610249565b6024359033610861565b602060405160018152f35b34610244576000366003190112610244576020600254604051908152f35b34610244576060366003190112610244576102dd610249565b506102e661025f565b5060206102f46044356107be565b6040519015158152f35b3461024457600036600319011261024457602060405160128152f35b3461024457604036600319011261024457610333610249565b33600052600160205261034a81604060002061084a565b5460243581018091116103615761029b9133610861565b634e487b7160e01b600052601160045260246000fd5b346102445760208060031936011261024457600080610394610249565b60405163b203bb9960e01b8582019081526001600160a01b0390921660248201523060448083019190915281526103ca81610765565b51906108005afa3d15610422573d906001600160401b03821161041d57604051916103fe601f8201601f1916850184610780565b82523d60008484013e5b15610417575060405160008152f35b80519101fd5b61074f565b606090610408565b34610244576000806003193601126102415760405163e77a47bf60e01b81523060048201526001602482015260606044820152602b606482015260008051602061098083398151915260848201526a1adb58dcde8d0d19cdde1b60aa1b60a482015260208160c481856108005af180156104d2576104a6575080f35b6104c79060203d6020116104cb575b6104bf8183610780565b8101906107a3565b5080f35b503d6104b5565b6107b2565b3461024457600080600319360112610241578080604051602081019063b203bb9960e01b82528260248201523060448201526044815261051681610765565b51906108005afa3d15610566573d906001600160401b03821161041d576040519161054b601f8201601f191660200184610780565b82523d83602084013e5b1561055e575080f35b602081519101fd5b606090610555565b3461024457600080600319360112610241576040519080600454906001918060011c926001821692831561062a575b60209260208610851461022357858852602088019490811561020257506001146105d1576101a58761019981890382610780565b600460005294509192917f8a35acfbc15ff81a39ae7d344fd709f28e8600b4aa8c65c6b64bfe7fe36bd19b5b8386106106195750505091019050610199826101a53880610189565b8054858701529482019481016105fd565b93607f169361059d565b346102445760403660031901126102445761064d610249565b6024359033600052600160205261066881604060002061084a565b54918083106106895761067d92039033610861565b60405160018152602090f35b60405162461bcd60e51b815260206004820152602560248201527f45524332303a2064656372656173656420616c6c6f77616e63652062656c6f77604482015264207a65726f60d81b6064820152608490fd5b34610244576040366003190112610244576106f5610249565b5060206102f46024356107be565b34610244576040366003190112610244576020610746610721610249565b61072961025f565b6001600160a01b039091166000908152600184526040902061084a565b54604051908152f35b634e487b7160e01b600052604160045260246000fd5b608081019081106001600160401b0382111761041d57604052565b601f909101601f19168101906001600160401b0382119082101761041d57604052565b90816020910312610244575190565b6040513d6000823e3d90fd5b6040519063e77a47bf60e01b8252306004830152602482015260606044820152602b606482015260008051602061098083398151915260848201526a1adb58dcde8d0d19cdde1b60aa1b60a482015260208160c48160006108005af180156104d25761082b575b50600190565b6108439060203d6020116104cb576104bf8183610780565b5038610825565b9060018060a01b0316600052602052604060002090565b6001600160a01b03808216929190831561092e5782169384156108de57806108c87f8c5be1e5ebec7d5bd14f71427d1e84f3dd0314c0f7b2291e5b200ac8c7c3b925946108c36108d99560018060a01b03166000526001602052604060002090565b61084a565b556040519081529081906020820190565b0390a3565b60405162461bcd60e51b815260206004820152602260248201527f45524332303a20617070726f766520746f20746865207a65726f206164647265604482015261737360f01b6064820152608490fd5b60405162461bcd60e51b8152602060048201526024808201527f45524332303a20617070726f76652066726f6d20746865207a65726f206164646044820152637265737360e01b6064820152608490fdfe6e696269317a616176767a78657a30656c756e64746e3332716e6b396c6b6d38a26469706673582212203b66bce4d7d1f4e5f57d8d2a6aad3c605ba71cfec1f4d3610e568a4c13efc57764736f6c63430008180033",
  "linkReferences": {},
  "deployedLinkReferences": {}
}