{
  "_format": "hh-sol-artifact-1",
  "contractName": "DSAuth",
  "sourceName": "contracts/MKR.sol",
  "abi": [
    {
      "constant": false,
      "inputs": [
        {
          "name": "owner_",
          "type": "address"
        }
      ],
      "name": "setOwner",
      "outputs": [],
      "payable": false,
      "stateMutability": "nonpayable",
      "type": "function"
    },
    {
      "constant": false,
      "inputs": [
        {
          "name": "authority_",
          "type": "address"
        }
      ],
      "name": "setAuthority",
      "outputs": [],
      "payable": false,
      "stateMutability": "nonpayable",
      "type": "function"
    },
    {
      "constant": true,
      "inputs": [],
      "name": "owner",
      "outputs": [
        {
          "name": "",
          "type": "address"
        }
      ],
      "payable": false,
      "stateMutability": "view",
      "type": "function"
    },
    {
      "constant": true,
      "inputs": [],
      "name": "authority",
      "outputs": [
        {
          "name": "",
          "type": "address"
        }
      ],
      "payable": false,
      "stateMutability": "view",
      "type": "function"
    },
    {
      "inputs": [],
      "payable": false,
      "stateMutability": "nonpayable",
      "type": "constructor"
    },
    {
      "anonymous": false,
      "inputs": [
        {
          "indexed": true,
          "name": "authority",
          "type": "address"
        }
      ],
      "name": "LogSetAuthority",
      "type": "event"
    },
    {
      "anonymous": false,
      "inputs": [
        {
          "indexed": true,
          "name": "owner",
          "type": "address"
        }
      ],
      "name": "LogSetOwner",
      "type": "event"
    }
  ],
  "bytecode": "0x6060604052341561000f57600080fd5b33600160006101000a81548173ffffffffffffffffffffffffffffffffffffffff021916908373ffffffffffffffffffffffffffffffffffffffff1602179055503373ffffffffffffffffffffffffffffffffffffffff167fce241d7ca1f669fee44b6fc00b8eba2df3bb514eed0f6f668f8f89096e81ed9460405160405180910390a261061b806100a26000396000f300606060405260043610610062576000357c0100000000000000000000000000000000000000000000000000000000900463ffffffff16806313af4035146100675780637a9e5e4b146100a05780638da5cb5b146100d9578063bf7e214f1461012e575b600080fd5b341561007257600080fd5b61009e600480803573ffffffffffffffffffffffffffffffffffffffff16906020019091905050610183565b005b34156100ab57600080fd5b6100d7600480803573ffffffffffffffffffffffffffffffffffffffff16906020019091905050610265565b005b34156100e457600080fd5b6100ec610345565b604051808273ffffffffffffffffffffffffffffffffffffffff1673ffffffffffffffffffffffffffffffffffffffff16815260200191505060405180910390f35b341561013957600080fd5b61014161036b565b604051808273ffffffffffffffffffffffffffffffffffffffff1673ffffffffffffffffffffffffffffffffffffffff16815260200191505060405180910390f35b6101b1336000357fffffffff0000000000000000000000000000000000000000000000000000000016610390565b15156101bc57600080fd5b80600160006101000a81548173ffffffffffffffffffffffffffffffffffffffff021916908373ffffffffffffffffffffffffffffffffffffffff160217905550600160009054906101000a900473ffffffffffffffffffffffffffffffffffffffff1673ffffffffffffffffffffffffffffffffffffffff167fce241d7ca1f669fee44b6fc00b8eba2df3bb514eed0f6f668f8f89096e81ed9460405160405180910390a250565b610293336000357fffffffff0000000000000000000000000000000000000000000000000000000016610390565b151561029e57600080fd5b806000806101000a81548173ffffffffffffffffffffffffffffffffffffffff021916908373ffffffffffffffffffffffffffffffffffffffff1602179055506000809054906101000a900473ffffffffffffffffffffffffffffffffffffffff1673ffffffffffffffffffffffffffffffffffffffff167f1abebea81bfa2637f28358c371278fb15ede7ea8dd28d2e03b112ff6d936ada460405160405180910390a250565b600160009054906101000a900473ffffffffffffffffffffffffffffffffffffffff1681565b6000809054906101000a900473ffffffffffffffffffffffffffffffffffffffff1681565b60003073ffffffffffffffffffffffffffffffffffffffff168373ffffffffffffffffffffffffffffffffffffffff1614156103cf57600190506105e9565b600160009054906101000a900473ffffffffffffffffffffffffffffffffffffffff1673ffffffffffffffffffffffffffffffffffffffff168373ffffffffffffffffffffffffffffffffffffffff16141561042e57600190506105e9565b600073ffffffffffffffffffffffffffffffffffffffff166000809054906101000a900473ffffffffffffffffffffffffffffffffffffffff1673ffffffffffffffffffffffffffffffffffffffff16141561048d57600090506105e9565b6000809054906101000a900473ffffffffffffffffffffffffffffffffffffffff1673ffffffffffffffffffffffffffffffffffffffff1663b70096138430856000604051602001526040518463ffffffff167c0100000000000000000000000000000000000000000000000000000000028152600401808473ffffffffffffffffffffffffffffffffffffffff1673ffffffffffffffffffffffffffffffffffffffff1681526020018373ffffffffffffffffffffffffffffffffffffffff1673ffffffffffffffffffffffffffffffffffffffff168152602001827bffffffffffffffffffffffffffffffffffffffffffffffffffffffff19167bffffffffffffffffffffffffffffffffffffffffffffffffffffffff191681526020019350505050602060405180830381600087803b15156105cb57600080fd5b6102c65a03f115156105dc57600080fd5b5050506040518051905090505b929150505600a165627a7a723058209236c307642a00070951cccc63d787765730687a691c2ababd34fb266f03a8270029",
  "linkReferences": {},
  "deployedLinkReferences": {}
}