{
  "_format": "hh-sol-artifact-1",
  "contractName": "ERC20Minter",
  "sourceName": "contracts/TestERC20MinterMissingFunction.sol",
  "abi": [
    {
      "inputs": [
        {
          "internalType": "string",
          "name": "name",
          "type": "string"
        },
        {
          "internalType": "string",
          "name": "symbol",
          "type": "string"
        },
        {
          "internalType": "uint8",
          "name": "decimals_",
          "type": "uint8"
        }
      ],
      "stateMutability": "nonpayable",
      "type": "constructor"
    },
    {
      "anonymous": false,
      "inputs": [
        {
          "indexed": true,
          "internalType": "address",
          "name": "owner",
          "type": "address"
        },
        {
          "indexed": true,
          "internalType": "address",
          "name": "spender",
          "type": "address"
        },
        {
          "indexed": false,
          "internalType": "uint256",
          "name": "value",
          "type": "uint256"
        }
      ],
      "name": "Approval",
      "type": "event"
    },
    {
      "anonymous": false,
      "inputs": [
        {
          "indexed": true,
          "internalType": "address",
          "name": "previousOwner",
          "type": "address"
        },
        {
          "indexed": true,
          "internalType": "address",
          "name": "newOwner",
          "type": "address"
        }
      ],
      "name": "OwnershipTransferred",
      "type": "event"
    },
    {
      "anonymous": false,
      "inputs": [
        {
          "indexed": true,
          "internalType": "address",
          "name": "from",
          "type": "address"
        },
        {
          "indexed": true,
          "internalType": "address",
          "name": "to",
          "type": "address"
        },
        {
          "indexed": false,
          "internalType": "uint256",
          "name": "value",
          "type": "uint256"
        }
      ],
      "name": "Transfer",
      "type": "event"
    },
    {
      "inputs": [
        {
          "internalType": "address",
          "name": "owner",
          "type": "address"
        },
        {
          "internalType": "address",
          "name": "spender",
          "type": "address"
        }
      ],
      "name": "allowance",
      "outputs": [
        {
          "internalType": "uint256",
          "name": "",
          "type": "uint256"
        }
      ],
      "stateMutability": "view",
      "type": "function"
    },
    {
      "inputs": [
        {
          "internalType": "address",
          "name": "spender",
          "type": "address"
        },
        {
          "internalType": "uint256",
          "name": "amount",
          "type": "uint256"
        }
      ],
      "name": "approve",
      "outputs": [
        {
          "internalType": "bool",
          "name": "",
          "type": "bool"
        }
      ],
      "stateMutability": "nonpayable",
      "type": "function"
    },
    {
      "inputs": [
        {
          "internalType": "address",
          "name": "account",
          "type": "address"
        }
      ],
      "name": "balanceOf",
      "outputs": [
        {
          "internalType": "uint256",
          "name": "",
          "type": "uint256"
        }
      ],
      "stateMutability": "view",
      "type": "function"
    },
    {
      "inputs": [
        {
          "internalType": "uint256",
          "name": "amount",
          "type": "uint256"
        }
      ],
      "name": "burn",
      "outputs": [],
      "stateMutability": "nonpayable",
      "type": "function"
    },
    {
      "inputs": [
        {
          "internalType": "address",
          "name": "account",
          "type": "address"
        },
        {
          "internalType": "uint256",
          "name": "amount",
          "type": "uint256"
        }
      ],
      "name": "burnFrom",
      "outputs": [],
      "stateMutability": "nonpayable",
      "type": "function"
    },
    {
      "inputs": [
        {
          "internalType": "address",
          "name": "from",
          "type": "address"
        },
        {
          "internalType": "uint256",
          "name": "amount",
          "type": "uint256"
        }
      ],
      "name": "burnFromAuthority",
      "outputs": [],
      "stateMutability": "nonpayable",
      "type": "function"
    },
    {
      "inputs": [],
      "name": "decimals",
      "outputs": [
        {
          "internalType": "uint8",
          "name": "",
          "type": "uint8"
        }
      ],
      "stateMutability": "view",
      "type": "function"
    },
    {
      "inputs": [
        {
          "internalType": "address",
          "name": "spender",
          "type": "address"
        },
        {
          "internalType": "uint256",
          "name": "subtractedValue",
          "type": "uint256"
        }
      ],
      "name": "decreaseAllowance",
      "outputs": [
        {
          "internalType": "bool",
          "name": "",
          "type": "bool"
        }
      ],
      "stateMutability": "nonpayable",
      "type": "function"
    },
    {
      "inputs": [
        {
          "internalType": "address",
          "name": "spender",
          "type": "address"
        },
        {
          "internalType": "uint256",
          "name": "addedValue",
          "type": "uint256"
        }
      ],
      "name": "increaseAllowance",
      "outputs": [
        {
          "internalType": "bool",
          "name": "",
          "type": "bool"
        }
      ],
      "stateMutability": "nonpayable",
      "type": "function"
    },
    {
      "inputs": [],
      "name": "name",
      "outputs": [
        {
          "internalType": "string",
          "name": "",
          "type": "string"
        }
      ],
      "stateMutability": "view",
      "type": "function"
    },
    {
      "inputs": [],
      "name": "owner",
      "outputs": [
        {
          "internalType": "address",
          "name": "",
          "type": "address"
        }
      ],
      "stateMutability": "view",
      "type": "function"
    },
    {
      "inputs": [],
      "name": "renounceOwnership",
      "outputs": [],
      "stateMutability": "nonpayable",
      "type": "function"
    },
    {
      "inputs": [],
      "name": "symbol",
      "outputs": [
        {
          "internalType": "string",
          "name": "",
          "type": "string"
        }
      ],
      "stateMutability": "view",
      "type": "function"
    },
    {
      "inputs": [],
      "name": "totalSupply",
      "outputs": [
        {
          "internalType": "uint256",
          "name": "",
          "type": "uint256"
        }
      ],
      "stateMutability": "view",
      "type": "function"
    },
    {
      "inputs": [
        {
          "internalType": "address",
          "name": "to",
          "type": "address"
        },
        {
          "internalType": "uint256",
          "name": "amount",
          "type": "uint256"
        }
      ],
      "name": "transfer",
      "outputs": [
        {
          "internalType": "bool",
          "name": "",
          "type": "bool"
        }
      ],
      "stateMutability": "nonpayable",
      "type": "function"
    },
    {
      "inputs": [
        {
          "internalType": "address",
          "name": "from",
          "type": "address"
        },
        {
          "internalType": "address",
          "name": "to",
          "type": "address"
        },
        {
          "internalType": "uint256",
          "name": "amount",
          "type": "uint256"
        }
      ],
      "name": "transferFrom",
      "outputs": [
        {
          "internalType": "bool",
          "name": "",
          "type": "bool"
        }
      ],
      "stateMutability": "nonpayable",
      "type": "function"
    },
    {
      "inputs": [
        {
          "internalType": "address",
          "name": "newOwner",
          "type": "address"
        }
      ],
      "name": "transferOwnership",
      "outputs": [],
      "stateMutability": "nonpayable",
      "type": "function"
    }
  ],
  "bytecode": "0x60806040523480156200001157600080fd5b50604051620020fe380380620020fe833981810160405281019062000037919062000356565b828281600390816200004a91906200063b565b5080600490816200005c91906200063b565b5050506200007f620000736200009960201b60201c565b620000a160201b60201c565b62000090816200016760201b60201c565b50505062000722565b600033905090565b6000600560009054906101000a900473ffffffffffffffffffffffffffffffffffffffff16905081600560006101000a81548173ffffffffffffffffffffffffffffffffffffffff021916908373ffffffffffffffffffffffffffffffffffffffff1602179055508173ffffffffffffffffffffffffffffffffffffffff168173ffffffffffffffffffffffffffffffffffffffff167f8be0079c531659141344cd1fd0a4f28419497f9722a3daafe3b4186f6b6457e060405160405180910390a35050565b80600560146101000a81548160ff021916908360ff16021790555050565b6000604051905090565b600080fd5b600080fd5b600080fd5b600080fd5b6000601f19601f8301169050919050565b7f4e487b7100000000000000000000000000000000000000000000000000000000600052604160045260246000fd5b620001ee82620001a3565b810181811067ffffffffffffffff8211171562000210576200020f620001b4565b5b80604052505050565b60006200022562000185565b9050620002338282620001e3565b919050565b600067ffffffffffffffff821115620002565762000255620001b4565b5b6200026182620001a3565b9050602081019050919050565b60005b838110156200028e57808201518184015260208101905062000271565b60008484015250505050565b6000620002b1620002ab8462000238565b62000219565b905082815260208101848484011115620002d057620002cf6200019e565b5b620002dd8482856200026e565b509392505050565b600082601f830112620002fd57620002fc62000199565b5b81516200030f8482602086016200029a565b91505092915050565b600060ff82169050919050565b620003308162000318565b81146200033c57600080fd5b50565b600081519050620003508162000325565b92915050565b6000806000606084860312156200037257620003716200018f565b5b600084015167ffffffffffffffff81111562000393576200039262000194565b5b620003a186828701620002e5565b935050602084015167ffffffffffffffff811115620003c557620003c462000194565b5b620003d386828701620002e5565b9250506040620003e6868287016200033f565b9150509250925092565b600081519050919050565b7f4e487b7100000000000000000000000000000000000000000000000000000000600052602260045260246000fd5b600060028204905060018216806200044357607f821691505b602082108103620004595762000458620003fb565b5b50919050565b60008190508160005260206000209050919050565b60006020601f8301049050919050565b600082821b905092915050565b600060088302620004c37fffffffffffffffffffffffffffffffffffffffffffffffffffffffffffffffff8262000484565b620004cf868362000484565b95508019841693508086168417925050509392505050565b6000819050919050565b6000819050919050565b60006200051c620005166200051084620004e7565b620004f1565b620004e7565b9050919050565b6000819050919050565b6200053883620004fb565b62000550620005478262000523565b84845462000491565b825550505050565b600090565b6200056762000558565b620005748184846200052d565b505050565b5b818110156200059c57620005906000826200055d565b6001810190506200057a565b5050565b601f821115620005eb57620005b5816200045f565b620005c08462000474565b81016020851015620005d0578190505b620005e8620005df8562000474565b83018262000579565b50505b505050565b600082821c905092915050565b60006200061060001984600802620005f0565b1980831691505092915050565b60006200062b8383620005fd565b9150826002028217905092915050565b6200064682620003f0565b67ffffffffffffffff811115620006625762000661620001b4565b5b6200066e82546200042a565b6200067b828285620005a0565b600060209050601f831160018114620006b357600084156200069e578287015190505b620006aa85826200061d565b8655506200071a565b601f198416620006c3866200045f565b60005b82811015620006ed57848901518255600182019150602085019450602081019050620006c6565b868310156200070d578489015162000709601f891682620005fd565b8355505b6001600288020188555050505b505050505050565b6119cc80620007326000396000f3fe608060405234801561001057600080fd5b506004361061010b5760003560e01c806370a08231116100a257806395d89b411161007157806395d89b41146102a6578063a457c2d7146102c4578063a9059cbb146102f4578063dd62ed3e14610324578063f2fde38b146103545761010b565b806370a0823114610232578063715018a61461026257806379cc67901461026c5780638da5cb5b146102885761010b565b806324bd8aaf116100de57806324bd8aaf146101ac578063313ce567146101c857806339509351146101e657806342966c68146102165761010b565b806306fdde0314610110578063095ea7b31461012e57806318160ddd1461015e57806323b872dd1461017c575b600080fd5b610118610370565b6040516101259190611030565b60405180910390f35b610148600480360381019061014391906110eb565b610402565b6040516101559190611146565b60405180910390f35b610166610425565b6040516101739190611170565b60405180910390f35b6101966004803603810190610191919061118b565b61042f565b6040516101a39190611146565b60405180910390f35b6101c660048036038101906101c191906110eb565b61045e565b005b6101d0610474565b6040516101dd91906111fa565b60405180910390f35b61020060048036038101906101fb91906110eb565b61048b565b60405161020d9190611146565b60405180910390f35b610230600480360381019061022b9190611215565b6104c2565b005b61024c60048036038101906102479190611242565b6104d6565b6040516102599190611170565b60405180910390f35b61026a61051e565b005b610286600480360381019061028191906110eb565b610532565b005b610290610552565b60405161029d919061127e565b60405180910390f35b6102ae61057c565b6040516102bb9190611030565b60405180910390f35b6102de60048036038101906102d991906110eb565b61060e565b6040516102eb9190611146565b60405180910390f35b61030e600480360381019061030991906110eb565b610685565b60405161031b9190611146565b60405180910390f35b61033e60048036038101906103399190611299565b6106a8565b60405161034b9190611170565b60405180910390f35b61036e60048036038101906103699190611242565b61072f565b005b60606003805461037f90611308565b80601f01602080910402602001604051908101604052809291908181526020018280546103ab90611308565b80156103f85780601f106103cd576101008083540402835291602001916103f8565b820191906000526020600020905b8154815290600101906020018083116103db57829003601f168201915b5050505050905090565b60008061040d6107b2565b905061041a8185856107ba565b600191505092915050565b6000600254905090565b60008061043a6107b2565b9050610447858285610983565b610452858585610a0f565b60019150509392505050565b610466610c85565b6104708282610d03565b5050565b6000600560149054906101000a900460ff16905090565b6000806104966107b2565b90506104b78185856104a885896106a8565b6104b29190611368565b6107ba565b600191505092915050565b6104d36104cd6107b2565b82610d03565b50565b60008060008373ffffffffffffffffffffffffffffffffffffffff1673ffffffffffffffffffffffffffffffffffffffff168152602001908152602001600020549050919050565b610526610c85565b6105306000610ed0565b565b6105448261053e6107b2565b83610983565b61054e8282610d03565b5050565b6000600560009054906101000a900473ffffffffffffffffffffffffffffffffffffffff16905090565b60606004805461058b90611308565b80601f01602080910402602001604051908101604052809291908181526020018280546105b790611308565b80156106045780601f106105d957610100808354040283529160200191610604565b820191906000526020600020905b8154815290600101906020018083116105e757829003601f168201915b5050505050905090565b6000806106196107b2565b9050600061062782866106a8565b90508381101561066c576040517f08c379a00000000000000000000000000000000000000000000000000000000081526004016106639061140e565b60405180910390fd5b61067982868684036107ba565b60019250505092915050565b6000806106906107b2565b905061069d818585610a0f565b600191505092915050565b6000600160008473ffffffffffffffffffffffffffffffffffffffff1673ffffffffffffffffffffffffffffffffffffffff16815260200190815260200160002060008373ffffffffffffffffffffffffffffffffffffffff1673ffffffffffffffffffffffffffffffffffffffff16815260200190815260200160002054905092915050565b610737610c85565b600073ffffffffffffffffffffffffffffffffffffffff168173ffffffffffffffffffffffffffffffffffffffff16036107a6576040517f08c379a000000000000000000000000000000000000000000000000000000000815260040161079d906114a0565b60405180910390fd5b6107af81610ed0565b50565b600033905090565b600073ffffffffffffffffffffffffffffffffffffffff168373ffffffffffffffffffffffffffffffffffffffff1603610829576040517f08c379a000000000000000000000000000000000000000000000000000000000815260040161082090611532565b60405180910390fd5b600073ffffffffffffffffffffffffffffffffffffffff168273ffffffffffffffffffffffffffffffffffffffff1603610898576040517f08c379a000000000000000000000000000000000000000000000000000000000815260040161088f906115c4565b60405180910390fd5b80600160008573ffffffffffffffffffffffffffffffffffffffff1673ffffffffffffffffffffffffffffffffffffffff16815260200190815260200160002060008473ffffffffffffffffffffffffffffffffffffffff1673ffffffffffffffffffffffffffffffffffffffff168152602001908152602001600020819055508173ffffffffffffffffffffffffffffffffffffffff168373ffffffffffffffffffffffffffffffffffffffff167f8c5be1e5ebec7d5bd14f71427d1e84f3dd0314c0f7b2291e5b200ac8c7c3b925836040516109769190611170565b60405180910390a3505050565b600061098f84846106a8565b90507fffffffffffffffffffffffffffffffffffffffffffffffffffffffffffffffff8114610a0957818110156109fb576040517f08c379a00000000000000000000000000000000000000000000000000000000081526004016109f290611630565b60405180910390fd5b610a0884848484036107ba565b5b50505050565b600073ffffffffffffffffffffffffffffffffffffffff168373ffffffffffffffffffffffffffffffffffffffff1603610a7e576040517f08c379a0000000000000000000000000000000000000000000000000000000008152600401610a75906116c2565b60405180910390fd5b600073ffffffffffffffffffffffffffffffffffffffff168273ffffffffffffffffffffffffffffffffffffffff1603610aed576040517f08c379a0000000000000000000000000000000000000000000000000000000008152600401610ae490611754565b60405180910390fd5b610af8838383610f96565b60008060008573ffffffffffffffffffffffffffffffffffffffff1673ffffffffffffffffffffffffffffffffffffffff16815260200190815260200160002054905081811015610b7e576040517f08c379a0000000000000000000000000000000000000000000000000000000008152600401610b75906117e6565b60405180910390fd5b8181036000808673ffffffffffffffffffffffffffffffffffffffff1673ffffffffffffffffffffffffffffffffffffffff16815260200190815260200160002081905550816000808573ffffffffffffffffffffffffffffffffffffffff1673ffffffffffffffffffffffffffffffffffffffff168152602001908152602001600020600082825401925050819055508273ffffffffffffffffffffffffffffffffffffffff168473ffffffffffffffffffffffffffffffffffffffff167fddf252ad1be2c89b69c2b068fc378daa952ba7f163c4a11628f55a4df523b3ef84604051610c6c9190611170565b60405180910390a3610c7f848484610f9b565b50505050565b610c8d6107b2565b73ffffffffffffffffffffffffffffffffffffffff16610cab610552565b73ffffffffffffffffffffffffffffffffffffffff1614610d01576040517f08c379a0000000000000000000000000000000000000000000000000000000008152600401610cf890611852565b60405180910390fd5b565b600073ffffffffffffffffffffffffffffffffffffffff168273ffffffffffffffffffffffffffffffffffffffff1603610d72576040517f08c379a0000000000000000000000000000000000000000000000000000000008152600401610d69906118e4565b60405180910390fd5b610d7e82600083610f96565b60008060008473ffffffffffffffffffffffffffffffffffffffff1673ffffffffffffffffffffffffffffffffffffffff16815260200190815260200160002054905081811015610e04576040517f08c379a0000000000000000000000000000000000000000000000000000000008152600401610dfb90611976565b60405180910390fd5b8181036000808573ffffffffffffffffffffffffffffffffffffffff1673ffffffffffffffffffffffffffffffffffffffff1681526020019081526020016000208190555081600260008282540392505081905550600073ffffffffffffffffffffffffffffffffffffffff168373ffffffffffffffffffffffffffffffffffffffff167fddf252ad1be2c89b69c2b068fc378daa952ba7f163c4a11628f55a4df523b3ef84604051610eb79190611170565b60405180910390a3610ecb83600084610f9b565b505050565b6000600560009054906101000a900473ffffffffffffffffffffffffffffffffffffffff16905081600560006101000a81548173ffffffffffffffffffffffffffffffffffffffff021916908373ffffffffffffffffffffffffffffffffffffffff1602179055508173ffffffffffffffffffffffffffffffffffffffff168173ffffffffffffffffffffffffffffffffffffffff167f8be0079c531659141344cd1fd0a4f28419497f9722a3daafe3b4186f6b6457e060405160405180910390a35050565b505050565b505050565b600081519050919050565b600082825260208201905092915050565b60005b83811015610fda578082015181840152602081019050610fbf565b60008484015250505050565b6000601f19601f8301169050919050565b600061100282610fa0565b61100c8185610fab565b935061101c818560208601610fbc565b61102581610fe6565b840191505092915050565b6000602082019050818103600083015261104a8184610ff7565b905092915050565b600080fd5b600073ffffffffffffffffffffffffffffffffffffffff82169050919050565b600061108282611057565b9050919050565b61109281611077565b811461109d57600080fd5b50565b6000813590506110af81611089565b92915050565b6000819050919050565b6110c8816110b5565b81146110d357600080fd5b50565b6000813590506110e5816110bf565b92915050565b6000806040838503121561110257611101611052565b5b6000611110858286016110a0565b9250506020611121858286016110d6565b9150509250929050565b60008115159050919050565b6111408161112b565b82525050565b600060208201905061115b6000830184611137565b92915050565b61116a816110b5565b82525050565b60006020820190506111856000830184611161565b92915050565b6000806000606084860312156111a4576111a3611052565b5b60006111b2868287016110a0565b93505060206111c3868287016110a0565b92505060406111d4868287016110d6565b9150509250925092565b600060ff82169050919050565b6111f4816111de565b82525050565b600060208201905061120f60008301846111eb565b92915050565b60006020828403121561122b5761122a611052565b5b6000611239848285016110d6565b91505092915050565b60006020828403121561125857611257611052565b5b6000611266848285016110a0565b91505092915050565b61127881611077565b82525050565b6000602082019050611293600083018461126f565b92915050565b600080604083850312156112b0576112af611052565b5b60006112be858286016110a0565b92505060206112cf858286016110a0565b9150509250929050565b7f4e487b7100000000000000000000000000000000000000000000000000000000600052602260045260246000fd5b6000600282049050600182168061132057607f821691505b602082108103611333576113326112d9565b5b50919050565b7f4e487b7100000000000000000000000000000000000000000000000000000000600052601160045260246000fd5b6000611373826110b5565b915061137e836110b5565b925082820190508082111561139657611395611339565b5b92915050565b7f45524332303a2064656372656173656420616c6c6f77616e63652062656c6f7760008201527f207a65726f000000000000000000000000000000000000000000000000000000602082015250565b60006113f8602583610fab565b91506114038261139c565b604082019050919050565b60006020820190508181036000830152611427816113eb565b9050919050565b7f4f776e61626c653a206e6577206f776e657220697320746865207a65726f206160008201527f6464726573730000000000000000000000000000000000000000000000000000602082015250565b600061148a602683610fab565b91506114958261142e565b604082019050919050565b600060208201905081810360008301526114b98161147d565b9050919050565b7f45524332303a20617070726f76652066726f6d20746865207a65726f2061646460008201527f7265737300000000000000000000000000000000000000000000000000000000602082015250565b600061151c602483610fab565b9150611527826114c0565b604082019050919050565b6000602082019050818103600083015261154b8161150f565b9050919050565b7f45524332303a20617070726f766520746f20746865207a65726f20616464726560008201527f7373000000000000000000000000000000000000000000000000000000000000602082015250565b60006115ae602283610fab565b91506115b982611552565b604082019050919050565b600060208201905081810360008301526115dd816115a1565b9050919050565b7f45524332303a20696e73756666696369656e7420616c6c6f77616e6365000000600082015250565b600061161a601d83610fab565b9150611625826115e4565b602082019050919050565b600060208201905081810360008301526116498161160d565b9050919050565b7f45524332303a207472616e736665722066726f6d20746865207a65726f20616460008201527f6472657373000000000000000000000000000000000000000000000000000000602082015250565b60006116ac602583610fab565b91506116b782611650565b604082019050919050565b600060208201905081810360008301526116db8161169f565b9050919050565b7f45524332303a207472616e7366657220746f20746865207a65726f206164647260008201527f6573730000000000000000000000000000000000000000000000000000000000602082015250565b600061173e602383610fab565b9150611749826116e2565b604082019050919050565b6000602082019050818103600083015261176d81611731565b9050919050565b7f45524332303a207472616e7366657220616d6f756e742065786365656473206260008201527f616c616e63650000000000000000000000000000000000000000000000000000602082015250565b60006117d0602683610fab565b91506117db82611774565b604082019050919050565b600060208201905081810360008301526117ff816117c3565b9050919050565b7f4f776e61626c653a2063616c6c6572206973206e6f7420746865206f776e6572600082015250565b600061183c602083610fab565b915061184782611806565b602082019050919050565b6000602082019050818103600083015261186b8161182f565b9050919050565b7f45524332303a206275726e2066726f6d20746865207a65726f2061646472657360008201527f7300000000000000000000000000000000000000000000000000000000000000602082015250565b60006118ce602183610fab565b91506118d982611872565b604082019050919050565b600060208201905081810360008301526118fd816118c1565b9050919050565b7f45524332303a206275726e20616d6f756e7420657863656564732062616c616e60008201527f6365000000000000000000000000000000000000000000000000000000000000602082015250565b6000611960602283610fab565b915061196b82611904565b604082019050919050565b6000602082019050818103600083015261198f81611953565b905091905056fea26469706673582212200721c690656bd73c31eacd8251486d41e4a219ce71a5395ac03a28830e9338ba64736f6c63430008180033",
  "linkReferences": {},
  "deployedLinkReferences": {}
}