{
  "_format": "hh-sol-artifact-1",
  "contractName": "NibiruOracleChainLinkLike",
  "sourceName": "contracts/NibiruOracleChainLinkLike.sol",
  "abi": [
    {
      "inputs": [
        {
          "internalType": "string",
          "name": "_pair",
          "type": "string"
        },
        {
          "internalType": "uint8",
          "name": "_dec",
          "type": "uint8"
        }
      ],
      "stateMutability": "nonpayable",
      "type": "constructor"
    },
    {
      "inputs": [],
      "name": "_decimals",
      "outputs": [
        {
          "internalType": "uint8",
          "name": "",
          "type": "uint8"
        }
      ],
      "stateMutability": "view",
      "type": "function"
    },
    {
      "inputs": [],
      "name": "decimals",
      "outputs": [
        {
          "internalType": "uint8",
          "name": "",
          "type": "uint8"
        }
      ],
      "stateMutability": "view",
      "type": "function"
    },
    {
      "inputs": [],
      "name": "description",
      "outputs": [
        {
          "internalType": "string",
          "name": "",
          "type": "string"
        }
      ],
      "stateMutability": "view",
      "type": "function"
    },
    {
      "inputs": [
        {
          "internalType": "uint256",
          "name": "",
          "type": "uint256"
        }
      ],
      "name": "getAnswer",
      "outputs": [
        {
          "internalType": "int256",
          "name": "",
          "type": "int256"
        }
      ],
      "stateMutability": "view",
      "type": "function"
    },
    {
      "inputs": [
        {
          "internalType": "uint80",
          "name": "",
          "type": "uint80"
        }
      ],
      "name": "getRoundData",
      "outputs": [
        {
          "internalType": "uint80",
          "name": "roundId",
          "type": "uint80"
        },
        {
          "internalType": "int256",
          "name": "answer",
          "type": "int256"
        },
        {
          "internalType": "uint256",
          "name": "startedAt",
          "type": "uint256"
        },
        {
          "internalType": "uint256",
          "name": "updatedAt",
          "type": "uint256"
        },
        {
          "internalType": "uint80",
          "name": "answeredInRound",
          "type": "uint80"
        }
      ],
      "stateMutability": "view",
      "type": "function"
    },
    {
      "inputs": [
        {
          "internalType": "uint256",
          "name": "",
          "type": "uint256"
        }
      ],
      "name": "getTimestamp",
      "outputs": [
        {
          "internalType": "uint256",
          "name": "",
          "type": "uint256"
        }
      ],
      "stateMutability": "view",
      "type": "function"
    },
    {
      "inputs": [],
      "name": "latestAnswer",
      "outputs": [
        {
          "internalType": "int256",
          "name": "",
          "type": "int256"
        }
      ],
      "stateMutability": "view",
      "type": "function"
    },
    {
      "inputs": [],
      "name": "latestRound",
      "outputs": [
        {
          "internalType": "uint256",
          "name": "",
          "type": "uint256"
        }
      ],
      "stateMutability": "view",
      "type": "function"
    },
    {
      "inputs": [],
      "name": "latestRoundData",
      "outputs": [
        {
          "internalType": "uint80",
          "name": "roundId",
          "type": "uint80"
        },
        {
          "internalType": "int256",
          "name": "answer",
          "type": "int256"
        },
        {
          "internalType": "uint256",
          "name": "startedAt",
          "type": "uint256"
        },
        {
          "internalType": "uint256",
          "name": "updatedAt",
          "type": "uint256"
        },
        {
          "internalType": "uint80",
          "name": "answeredInRound",
          "type": "uint80"
        }
      ],
      "stateMutability": "view",
      "type": "function"
    },
    {
      "inputs": [],
      "name": "latestTimestamp",
      "outputs": [
        {
          "internalType": "uint256",
          "name": "",
          "type": "uint256"
        }
      ],
      "stateMutability": "view",
      "type": "function"
    },
    {
      "inputs": [],
      "name": "pair",
      "outputs": [
        {
          "internalType": "string",
          "name": "",
          "type": "string"
        }
      ],
      "stateMutability": "view",
      "type": "function"
    },
    {
      "inputs": [],
      "name": "version",
      "outputs": [
        {
          "internalType": "uint256",
          "name": "",
          "type": "uint256"
        }
      ],
      "stateMutability": "pure",
      "type": "function"
    }
  ],
  "bytecode": "0x60806040523480156200001157600080fd5b50604051620015d6380380620015d68339818101604052810190620000379190620002ce565b60128160ff16111562000081576040517f08c379a0000000000000000000000000000000000000000000000000000000008152600401620000789062000395565b60405180910390fd5b6000825111620000c8576040517f08c379a0000000000000000000000000000000000000000000000000000000008152600401620000bf9062000407565b60405180910390fd5b8160009081620000d9919062000674565b5080600160006101000a81548160ff021916908360ff16021790555050506200075b565b6000604051905090565b600080fd5b600080fd5b600080fd5b600080fd5b6000601f19601f8301169050919050565b7f4e487b7100000000000000000000000000000000000000000000000000000000600052604160045260246000fd5b62000166826200011b565b810181811067ffffffffffffffff821117156200018857620001876200012c565b5b80604052505050565b60006200019d620000fd565b9050620001ab82826200015b565b919050565b600067ffffffffffffffff821115620001ce57620001cd6200012c565b5b620001d9826200011b565b9050602081019050919050565b60005b8381101562000206578082015181840152602081019050620001e9565b60008484015250505050565b6000620002296200022384620001b0565b62000191565b90508281526020810184848401111562000248576200024762000116565b5b62000255848285620001e6565b509392505050565b600082601f83011262000275576200027462000111565b5b81516200028784826020860162000212565b91505092915050565b600060ff82169050919050565b620002a88162000290565b8114620002b457600080fd5b50565b600081519050620002c8816200029d565b92915050565b60008060408385031215620002e857620002e762000107565b5b600083015167ffffffffffffffff8111156200030957620003086200010c565b5b62000317858286016200025d565b92505060206200032a85828601620002b7565b9150509250929050565b600082825260208201905092915050565b7f446563696d616c732063616e6e6f742065786365656420313800000000000000600082015250565b60006200037d60198362000334565b91506200038a8262000345565b602082019050919050565b60006020820190508181036000830152620003b0816200036e565b9050919050565b7f5061697220737472696e672063616e6e6f7420626520656d7074790000000000600082015250565b6000620003ef601b8362000334565b9150620003fc82620003b7565b602082019050919050565b600060208201905081810360008301526200042281620003e0565b9050919050565b600081519050919050565b7f4e487b7100000000000000000000000000000000000000000000000000000000600052602260045260246000fd5b600060028204905060018216806200047c57607f821691505b60208210810362000492576200049162000434565b5b50919050565b60008190508160005260206000209050919050565b60006020601f8301049050919050565b600082821b905092915050565b600060088302620004fc7fffffffffffffffffffffffffffffffffffffffffffffffffffffffffffffffff82620004bd565b620005088683620004bd565b95508019841693508086168417925050509392505050565b6000819050919050565b6000819050919050565b6000620005556200054f620005498462000520565b6200052a565b62000520565b9050919050565b6000819050919050565b620005718362000534565b6200058962000580826200055c565b848454620004ca565b825550505050565b600090565b620005a062000591565b620005ad81848462000566565b505050565b5b81811015620005d557620005c960008262000596565b600181019050620005b3565b5050565b601f8211156200062457620005ee8162000498565b620005f984620004ad565b8101602085101562000609578190505b620006216200061885620004ad565b830182620005b2565b50505b505050565b600082821c905092915050565b6000620006496000198460080262000629565b1980831691505092915050565b600062000664838362000636565b9150826002028217905092915050565b6200067f8262000429565b67ffffffffffffffff8111156200069b576200069a6200012c565b5b620006a7825462000463565b620006b4828285620005d9565b600060209050601f831160018114620006ec5760008415620006d7578287015190505b620006e3858262000656565b86555062000753565b601f198416620006fc8662000498565b60005b828110156200072657848901518255600182019150602085019450602081019050620006ff565b8683101562000746578489015162000742601f89168262000636565b8355505b6001600288020188555050505b505050505050565b610e6b806200076b6000396000f3fe608060405234801561001057600080fd5b50600436106100b45760003560e01c80638205bf6a116100715780638205bf6a1461016d5780639a6fc8f51461018b578063a8aa1b31146101bf578063b5ab58dc146101dd578063b633620c1461020d578063feaf968c1461023d576100b4565b8063313ce567146100b957806332424aa3146100d757806350d25bcd146100f557806354fd4d5014610113578063668a0f02146101315780637284e4161461014f575b600080fd5b6100c161025f565b6040516100ce9190610584565b60405180910390f35b6100df610276565b6040516100ec9190610584565b60405180910390f35b6100fd610289565b60405161010a91906105b8565b60405180910390f35b61011b6102a1565b60405161012891906105ec565b60405180910390f35b6101396102aa565b60405161014691906105ec565b60405180910390f35b6101576102ce565b6040516101649190610697565b60405180910390f35b6101756102f6565b60405161018291906105ec565b60405180910390f35b6101a560048036038101906101a09190610700565b610398565b6040516101b695949392919061073c565b60405180910390f35b6101c76103bb565b6040516101d49190610697565b60405180910390f35b6101f760048036038101906101f291906107bb565b610449565b60405161020491906105b8565b60405180910390f35b610227600480360381019061022291906107bb565b61045a565b60405161023491906105ec565b60405180910390f35b61024561046b565b60405161025695949392919061073c565b60405180910390f35b6000600160009054906101000a900460ff16905090565b600160009054906101000a900460ff1681565b60008061029461046b565b5050509150508091505090565b60006001905090565b6000806102b561046b565b5050505090508069ffffffffffffffffffff1691505090565b606060006040516020016102e2919061095d565b604051602081830303815290604052905090565b60008061080173ffffffffffffffffffffffffffffffffffffffff16636bd1902f60006040518263ffffffff1660e01b81526004016103359190610a03565b606060405180830381865afa158015610352573d6000803e3d6000fd5b505050506040513d601f19601f820116820180604052508101906103769190610a7a565b509150506103e88167ffffffffffffffff166103929190610b2b565b91505090565b60008060008060006103a861046b565b9450945094509450945091939590929450565b600080546103c890610894565b80601f01602080910402602001604051908101604052809291908181526020018280546103f490610894565b80156104415780601f1061041657610100808354040283529160200191610441565b820191906000526020600020905b81548152906001019060200180831161042457829003601f168201915b505050505081565b6000610453610289565b9050919050565b60006104646102f6565b9050919050565b60008060008060008060008060008061080173ffffffffffffffffffffffffffffffffffffffff1663ece378ed60006040518263ffffffff1660e01b81526004016104b69190610a03565b60a060405180830381865afa1580156104d3573d6000803e3d6000fd5b505050506040513d601f19601f820116820180604052508101906104f79190610b9d565b9450945094509450945061050a84610527565b985084898484849950995099509950995050505050509091929394565b600080600160009054906101000a900460ff1660126105469190610c18565b905080600a6105559190610d80565b836105609190610dcb565b915050919050565b600060ff82169050919050565b61057e81610568565b82525050565b60006020820190506105996000830184610575565b92915050565b6000819050919050565b6105b28161059f565b82525050565b60006020820190506105cd60008301846105a9565b92915050565b6000819050919050565b6105e6816105d3565b82525050565b600060208201905061060160008301846105dd565b92915050565b600081519050919050565b600082825260208201905092915050565b60005b83811015610641578082015181840152602081019050610626565b60008484015250505050565b6000601f19601f8301169050919050565b600061066982610607565b6106738185610612565b9350610683818560208601610623565b61068c8161064d565b840191505092915050565b600060208201905081810360008301526106b1818461065e565b905092915050565b600080fd5b600069ffffffffffffffffffff82169050919050565b6106dd816106be565b81146106e857600080fd5b50565b6000813590506106fa816106d4565b92915050565b600060208284031215610716576107156106b9565b5b6000610724848285016106eb565b91505092915050565b610736816106be565b82525050565b600060a082019050610751600083018861072d565b61075e60208301876105a9565b61076b60408301866105dd565b61077860608301856105dd565b610785608083018461072d565b9695505050505050565b610798816105d3565b81146107a357600080fd5b50565b6000813590506107b58161078f565b92915050565b6000602082840312156107d1576107d06106b9565b5b60006107df848285016107a6565b91505092915050565b600081905092915050565b7f4e6962697275204f7261636c6520436861696e4c696e6b2d6c696b652070726960008201527f6365206665656420666f72200000000000000000000000000000000000000000602082015250565b600061084f602c836107e8565b915061085a826107f3565b602c82019050919050565b7f4e487b7100000000000000000000000000000000000000000000000000000000600052602260045260246000fd5b600060028204905060018216806108ac57607f821691505b6020821081036108bf576108be610865565b5b50919050565b60008190508160005260206000209050919050565b600081546108e781610894565b6108f181866107e8565b9450600182166000811461090c576001811461092157610954565b60ff1983168652811515820286019350610954565b61092a856108c5565b60005b8381101561094c5781548189015260018201915060208101905061092d565b838801955050505b50505092915050565b600061096882610842565b915061097482846108da565b915081905092915050565b6000815461098c81610894565b6109968186610612565b945060018216600081146109b157600181146109c7576109fa565b60ff1983168652811515602002860193506109fa565b6109d0856108c5565b60005b838110156109f2578154818901526001820191506020810190506109d3565b808801955050505b50505092915050565b60006020820190508181036000830152610a1d818461097f565b905092915050565b600081519050610a348161078f565b92915050565b600067ffffffffffffffff82169050919050565b610a5781610a3a565b8114610a6257600080fd5b50565b600081519050610a7481610a4e565b92915050565b600080600060608486031215610a9357610a926106b9565b5b6000610aa186828701610a25565b9350506020610ab286828701610a65565b9250506040610ac386828701610a65565b9150509250925092565b7f4e487b7100000000000000000000000000000000000000000000000000000000600052601260045260246000fd5b7f4e487b7100000000000000000000000000000000000000000000000000000000600052601160045260246000fd5b6000610b36826105d3565b9150610b41836105d3565b925082610b5157610b50610acd565b5b828204905092915050565b600081519050610b6b816106d4565b92915050565b610b7a8161059f565b8114610b8557600080fd5b50565b600081519050610b9781610b71565b92915050565b600080600080600060a08688031215610bb957610bb86106b9565b5b6000610bc788828901610b5c565b9550506020610bd888828901610b88565b9450506040610be988828901610a25565b9350506060610bfa88828901610a25565b9250506080610c0b88828901610b5c565b9150509295509295909350565b6000610c2382610568565b9150610c2e83610568565b9250828203905060ff811115610c4757610c46610afc565b5b92915050565b60008160011c9050919050565b6000808291508390505b6001851115610ca457808604811115610c8057610c7f610afc565b5b6001851615610c8f5780820291505b8081029050610c9d85610c4d565b9450610c64565b94509492505050565b600082610cbd5760019050610d79565b81610ccb5760009050610d79565b8160018114610ce15760028114610ceb57610d1a565b6001915050610d79565b60ff841115610cfd57610cfc610afc565b5b8360020a915084821115610d1457610d13610afc565b5b50610d79565b5060208310610133831016604e8410600b8410161715610d4f5782820a905083811115610d4a57610d49610afc565b5b610d79565b610d5c8484846001610c5a565b92509050818404811115610d7357610d72610afc565b5b81810290505b9392505050565b6000610d8b826105d3565b9150610d9683610568565b9250610dc37fffffffffffffffffffffffffffffffffffffffffffffffffffffffffffffffff8484610cad565b905092915050565b6000610dd68261059f565b9150610de18361059f565b925082610df157610df0610acd565b5b600160000383147f800000000000000000000000000000000000000000000000000000000000000083141615610e2a57610e29610afc565b5b82820590509291505056fea26469706673582212200cb759f7f22b16fc59e8684b4c729035cd18056828c7358143a6c10da68c6bf764736f6c63430008180033",
  "linkReferences": {},
  "deployedLinkReferences": {}
}