{
  "_format": "hh-sol-artifact-1",
  "contractName": "NibiruOracleChainLinkLike",
  "sourceName": "contracts/NibiruOracleChainLinkLike.sol",
  "abi": [
    {
      "inputs": [
        {
          "internalType": "string",
          "name": "_pair",
          "type": "string"
        },
        {
          "internalType": "uint8",
          "name": "_dec",
          "type": "uint8"
        }
      ],
      "stateMutability": "nonpayable",
      "type": "constructor"
    },
    {
      "inputs": [],
      "name": "_decimals",
      "outputs": [
        {
          "internalType": "uint8",
          "name": "",
          "type": "uint8"
        }
      ],
      "stateMutability": "view",
      "type": "function"
    },
    {
      "inputs": [],
      "name": "decimals",
      "outputs": [
        {
          "internalType": "uint8",
          "name": "",
          "type": "uint8"
        }
      ],
      "stateMutability": "view",
      "type": "function"
    },
    {
      "inputs": [],
      "name": "description",
      "outputs": [
        {
          "internalType": "string",
          "name": "",
          "type": "string"
        }
      ],
      "stateMutability": "view",
      "type": "function"
    },
    {
      "inputs": [
        {
          "internalType": "uint80",
          "name": "",
          "type": "uint80"
        }
      ],
      "name": "getRoundData",
      "outputs": [
        {
          "internalType": "uint80",
          "name": "roundId",
          "type": "uint80"
        },
        {
          "internalType": "int256",
          "name": "answer",
          "type": "int256"
        },
        {
          "internalType": "uint256",
          "name": "startedAt",
          "type": "uint256"
        },
        {
          "internalType": "uint256",
          "name": "updatedAt",
          "type": "uint256"
        },
        {
          "internalType": "uint80",
          "name": "answeredInRound",
          "type": "uint80"
        }
      ],
      "stateMutability": "view",
      "type": "function"
    },
    {
      "inputs": [],
      "name": "latestRoundData",
      "outputs": [
        {
          "internalType": "uint80",
          "name": "roundId",
          "type": "uint80"
        },
        {
          "internalType": "int256",
          "name": "answer",
          "type": "int256"
        },
        {
          "internalType": "uint256",
          "name": "startedAt",
          "type": "uint256"
        },
        {
          "internalType": "uint256",
          "name": "updatedAt",
          "type": "uint256"
        },
        {
          "internalType": "uint80",
          "name": "answeredInRound",
          "type": "uint80"
        }
      ],
      "stateMutability": "view",
      "type": "function"
    },
    {
      "inputs": [],
      "name": "pair",
      "outputs": [
        {
          "internalType": "string",
          "name": "",
          "type": "string"
        }
      ],
      "stateMutability": "view",
      "type": "function"
    },
    {
      "inputs": [],
      "name": "version",
      "outputs": [
        {
          "internalType": "uint256",
          "name": "",
          "type": "uint256"
        }
      ],
      "stateMutability": "pure",
      "type": "function"
    }
  ],
  "bytecode": "0x60806040523480156200001157600080fd5b50604051620012a6380380620012a6833981810160405281019062000037919062000287565b60128160ff16111562000081576040517f08c379a000000000000000000000000000000000000000000000000000000000815260040162000078906200034e565b60405180910390fd5b8160009081620000929190620005bb565b5080600160006101000a81548160ff021916908360ff1602179055505050620006a2565b6000604051905090565b600080fd5b600080fd5b600080fd5b600080fd5b6000601f19601f8301169050919050565b7f4e487b7100000000000000000000000000000000000000000000000000000000600052604160045260246000fd5b6200011f82620000d4565b810181811067ffffffffffffffff82111715620001415762000140620000e5565b5b80604052505050565b600062000156620000b6565b905062000164828262000114565b919050565b600067ffffffffffffffff821115620001875762000186620000e5565b5b6200019282620000d4565b9050602081019050919050565b60005b83811015620001bf578082015181840152602081019050620001a2565b60008484015250505050565b6000620001e2620001dc8462000169565b6200014a565b905082815260208101848484011115620002015762000200620000cf565b5b6200020e8482856200019f565b509392505050565b600082601f8301126200022e576200022d620000ca565b5b815162000240848260208601620001cb565b91505092915050565b600060ff82169050919050565b620002618162000249565b81146200026d57600080fd5b50565b600081519050620002818162000256565b92915050565b60008060408385031215620002a157620002a0620000c0565b5b600083015167ffffffffffffffff811115620002c257620002c1620000c5565b5b620002d08582860162000216565b9250506020620002e38582860162000270565b9150509250929050565b600082825260208201905092915050565b7f446563696d616c732063616e6e6f742065786365656420313800000000000000600082015250565b600062000336601983620002ed565b91506200034382620002fe565b602082019050919050565b60006020820190508181036000830152620003698162000327565b9050919050565b600081519050919050565b7f4e487b7100000000000000000000000000000000000000000000000000000000600052602260045260246000fd5b60006002820490506001821680620003c357607f821691505b602082108103620003d957620003d86200037b565b5b50919050565b60008190508160005260206000209050919050565b60006020601f8301049050919050565b600082821b905092915050565b600060088302620004437fffffffffffffffffffffffffffffffffffffffffffffffffffffffffffffffff8262000404565b6200044f868362000404565b95508019841693508086168417925050509392505050565b6000819050919050565b6000819050919050565b60006200049c62000496620004908462000467565b62000471565b62000467565b9050919050565b6000819050919050565b620004b8836200047b565b620004d0620004c782620004a3565b84845462000411565b825550505050565b600090565b620004e7620004d8565b620004f4818484620004ad565b505050565b5b818110156200051c5762000510600082620004dd565b600181019050620004fa565b5050565b601f8211156200056b576200053581620003df565b6200054084620003f4565b8101602085101562000550578190505b620005686200055f85620003f4565b830182620004f9565b50505b505050565b600082821c905092915050565b6000620005906000198460080262000570565b1980831691505092915050565b6000620005ab83836200057d565b9150826002028217905092915050565b620005c68262000370565b67ffffffffffffffff811115620005e257620005e1620000e5565b5b620005ee8254620003aa565b620005fb82828562000520565b600060209050601f8311600181146200063357600084156200061e578287015190505b6200062a85826200059d565b8655506200069a565b601f1984166200064386620003df565b60005b828110156200066d5784890151825560018201915060208501945060208101905062000646565b868310156200068d578489015162000689601f8916826200057d565b8355505b6001600288020188555050505b505050505050565b610bf480620006b26000396000f3fe608060405234801561001057600080fd5b506004361061007d5760003560e01c80637284e4161161005b5780637284e416146100dc5780639a6fc8f5146100fa578063a8aa1b311461012e578063feaf968c1461014c5761007d565b8063313ce5671461008257806332424aa3146100a057806354fd4d50146100be575b600080fd5b61008a61016e565b604051610097919061042e565b60405180910390f35b6100a8610185565b6040516100b5919061042e565b60405180910390f35b6100c6610198565b6040516100d39190610462565b60405180910390f35b6100e46101a1565b6040516100f1919061050d565b60405180910390f35b610114600480360381019061010f9190610576565b6101c9565b6040516101259594939291906105cb565b60405180910390f35b610136610287565b604051610143919061050d565b60405180910390f35b610154610315565b6040516101659594939291906105cb565b60405180910390f35b6000600160009054906101000a900460ff16905090565b600160009054906101000a900460ff1681565b60006001905090565b606060006040516020016101b59190610793565b604051602081830303815290604052905090565b60008060008060008060008060008061080173ffffffffffffffffffffffffffffffffffffffff1663ece378ed60006040518263ffffffff1660e01b81526004016102149190610839565b60a060405180830381865afa158015610231573d6000803e3d6000fd5b505050506040513d601f19601f8201168201806040525081019061025591906108c8565b94509450945094509450610268846103d1565b9850848984848499509950995099509950505050505091939590929450565b60008054610294906106ca565b80601f01602080910402602001604051908101604052809291908181526020018280546102c0906106ca565b801561030d5780601f106102e25761010080835404028352916020019161030d565b820191906000526020600020905b8154815290600101906020018083116102f057829003601f168201915b505050505081565b60008060008060008060008060008061080173ffffffffffffffffffffffffffffffffffffffff1663ece378ed60006040518263ffffffff1660e01b81526004016103609190610839565b60a060405180830381865afa15801561037d573d6000803e3d6000fd5b505050506040513d601f19601f820116820180604052508101906103a191906108c8565b945094509450945094506103b4846103d1565b985084898484849950995099509950995050505050509091929394565b600080600160009054906101000a900460ff1660126103f09190610972565b905080600a6103ff9190610ada565b8361040a9190610b54565b915050919050565b600060ff82169050919050565b61042881610412565b82525050565b6000602082019050610443600083018461041f565b92915050565b6000819050919050565b61045c81610449565b82525050565b60006020820190506104776000830184610453565b92915050565b600081519050919050565b600082825260208201905092915050565b60005b838110156104b757808201518184015260208101905061049c565b60008484015250505050565b6000601f19601f8301169050919050565b60006104df8261047d565b6104e98185610488565b93506104f9818560208601610499565b610502816104c3565b840191505092915050565b6000602082019050818103600083015261052781846104d4565b905092915050565b600080fd5b600069ffffffffffffffffffff82169050919050565b61055381610534565b811461055e57600080fd5b50565b6000813590506105708161054a565b92915050565b60006020828403121561058c5761058b61052f565b5b600061059a84828501610561565b91505092915050565b6105ac81610534565b82525050565b6000819050919050565b6105c5816105b2565b82525050565b600060a0820190506105e060008301886105a3565b6105ed60208301876105bc565b6105fa6040830186610453565b6106076060830185610453565b61061460808301846105a3565b9695505050505050565b600081905092915050565b7f4e6962697275204f7261636c6520436861696e4c696e6b2d6c696b652070726960008201527f6365206665656420666f72200000000000000000000000000000000000000000602082015250565b6000610685602c8361061e565b915061069082610629565b602c82019050919050565b7f4e487b7100000000000000000000000000000000000000000000000000000000600052602260045260246000fd5b600060028204905060018216806106e257607f821691505b6020821081036106f5576106f461069b565b5b50919050565b60008190508160005260206000209050919050565b6000815461071d816106ca565b610727818661061e565b9450600182166000811461074257600181146107575761078a565b60ff198316865281151582028601935061078a565b610760856106fb565b60005b8381101561078257815481890152600182019150602081019050610763565b838801955050505b50505092915050565b600061079e82610678565b91506107aa8284610710565b915081905092915050565b600081546107c2816106ca565b6107cc8186610488565b945060018216600081146107e757600181146107fd57610830565b60ff198316865281151560200286019350610830565b610806856106fb565b60005b8381101561082857815481890152600182019150602081019050610809565b808801955050505b50505092915050565b6000602082019050818103600083015261085381846107b5565b905092915050565b60008151905061086a8161054a565b92915050565b610879816105b2565b811461088457600080fd5b50565b60008151905061089681610870565b92915050565b6108a581610449565b81146108b057600080fd5b50565b6000815190506108c28161089c565b92915050565b600080600080600060a086880312156108e4576108e361052f565b5b60006108f28882890161085b565b955050602061090388828901610887565b9450506040610914888289016108b3565b9350506060610925888289016108b3565b92505060806109368882890161085b565b9150509295509295909350565b7f4e487b7100000000000000000000000000000000000000000000000000000000600052601160045260246000fd5b600061097d82610412565b915061098883610412565b9250828203905060ff8111156109a1576109a0610943565b5b92915050565b60008160011c9050919050565b6000808291508390505b60018511156109fe578086048111156109da576109d9610943565b5b60018516156109e95780820291505b80810290506109f7856109a7565b94506109be565b94509492505050565b600082610a175760019050610ad3565b81610a255760009050610ad3565b8160018114610a3b5760028114610a4557610a74565b6001915050610ad3565b60ff841115610a5757610a56610943565b5b8360020a915084821115610a6e57610a6d610943565b5b50610ad3565b5060208310610133831016604e8410600b8410161715610aa95782820a905083811115610aa457610aa3610943565b5b610ad3565b610ab684848460016109b4565b92509050818404811115610acd57610acc610943565b5b81810290505b9392505050565b6000610ae582610449565b9150610af083610412565b9250610b1d7fffffffffffffffffffffffffffffffffffffffffffffffffffffffffffffffff8484610a07565b905092915050565b7f4e487b7100000000000000000000000000000000000000000000000000000000600052601260045260246000fd5b6000610b5f826105b2565b9150610b6a836105b2565b925082610b7a57610b79610b25565b5b600160000383147f800000000000000000000000000000000000000000000000000000000000000083141615610bb357610bb2610943565b5b82820590509291505056fea2646970667358221220196a0732ecb2e44c1e5cf0c9575919834bb369397aaea53fbbe52a5c124f054064736f6c63430008180033",
  "linkReferences": {},
  "deployedLinkReferences": {}
}