{
  "_format": "hh-sol-artifact-1",
  "contractName": "NibiruOracleChainLinkLike",
  "sourceName": "contracts/NibiruOracleChainLinkLike.sol",
  "abi": [
    {
      "inputs": [
        {
          "internalType": "string",
          "name": "_pair",
          "type": "string"
        },
        {
          "internalType": "uint8",
          "name": "_dec",
          "type": "uint8"
        }
      ],
      "stateMutability": "nonpayable",
      "type": "constructor"
    },
    {
      "inputs": [],
      "name": "_decimals",
      "outputs": [
        {
          "internalType": "uint8",
          "name": "",
          "type": "uint8"
        }
      ],
      "stateMutability": "view",
      "type": "function"
    },
    {
      "inputs": [],
      "name": "decimals",
      "outputs": [
        {
          "internalType": "uint8",
          "name": "",
          "type": "uint8"
        }
      ],
      "stateMutability": "view",
      "type": "function"
    },
    {
      "inputs": [],
      "name": "description",
      "outputs": [
        {
          "internalType": "string",
          "name": "",
          "type": "string"
        }
      ],
      "stateMutability": "view",
      "type": "function"
    },
    {
      "inputs": [
        {
          "internalType": "uint256",
          "name": "",
          "type": "uint256"
        }
      ],
      "name": "getAnswer",
      "outputs": [
        {
          "internalType": "int256",
          "name": "",
          "type": "int256"
        }
      ],
      "stateMutability": "view",
      "type": "function"
    },
    {
      "inputs": [
        {
          "internalType": "uint80",
          "name": "",
          "type": "uint80"
        }
      ],
      "name": "getRoundData",
      "outputs": [
        {
          "internalType": "uint80",
          "name": "roundId",
          "type": "uint80"
        },
        {
          "internalType": "int256",
          "name": "answer",
          "type": "int256"
        },
        {
          "internalType": "uint256",
          "name": "startedAt",
          "type": "uint256"
        },
        {
          "internalType": "uint256",
          "name": "updatedAt",
          "type": "uint256"
        },
        {
          "internalType": "uint80",
          "name": "answeredInRound",
          "type": "uint80"
        }
      ],
      "stateMutability": "view",
      "type": "function"
    },
    {
      "inputs": [
        {
          "internalType": "uint256",
          "name": "",
          "type": "uint256"
        }
      ],
      "name": "getTimestamp",
      "outputs": [
        {
          "internalType": "uint256",
          "name": "",
          "type": "uint256"
        }
      ],
      "stateMutability": "view",
      "type": "function"
    },
    {
      "inputs": [],
      "name": "latestAnswer",
      "outputs": [
        {
          "internalType": "int256",
          "name": "",
          "type": "int256"
        }
      ],
      "stateMutability": "view",
      "type": "function"
    },
    {
      "inputs": [],
      "name": "latestRound",
      "outputs": [
        {
          "internalType": "uint256",
          "name": "",
          "type": "uint256"
        }
      ],
      "stateMutability": "view",
      "type": "function"
    },
    {
      "inputs": [],
      "name": "latestRoundData",
      "outputs": [
        {
          "internalType": "uint80",
          "name": "roundId",
          "type": "uint80"
        },
        {
          "internalType": "int256",
          "name": "answer",
          "type": "int256"
        },
        {
          "internalType": "uint256",
          "name": "startedAt",
          "type": "uint256"
        },
        {
          "internalType": "uint256",
          "name": "updatedAt",
          "type": "uint256"
        },
        {
          "internalType": "uint80",
          "name": "answeredInRound",
          "type": "uint80"
        }
      ],
      "stateMutability": "view",
      "type": "function"
    },
    {
      "inputs": [],
      "name": "latestTimestamp",
      "outputs": [
        {
          "internalType": "uint256",
          "name": "",
          "type": "uint256"
        }
      ],
      "stateMutability": "view",
      "type": "function"
    },
    {
      "inputs": [],
      "name": "pair",
      "outputs": [
        {
          "internalType": "string",
          "name": "",
          "type": "string"
        }
      ],
      "stateMutability": "view",
      "type": "function"
    },
    {
      "inputs": [],
      "name": "version",
      "outputs": [
        {
          "internalType": "uint256",
          "name": "",
          "type": "uint256"
        }
      ],
      "stateMutability": "pure",
      "type": "function"
    }
  ],
  "bytecode": "0x608060405234620002b65762000a73803803806200001d81620002d0565b928339810190604081830312620002b65780516001600160401b039190828111620002b657810191601f848185011215620002b6578351928284116200021857602093601f19956200007586888685011601620002d0565b97828952868383010111620002b6579085929160005b828110620002bb575050826000918901015201519260ff8416809403620002b6576012841162000272578551156200022e5785519283116200021857600054946001958681811c911680156200020d575b83821014620001f757838111620001ac575b5081928411600114620001445750508192939460009262000138575b5050600019600383901b1c191690831b176000555b815460ff191617905560405161077c9081620002f78239f35b0151905038806200010a565b6000808052828120918516979193925b88821062000194575050838697969596106200017a575b505050811b016000556200011f565b015160001960f88460031b161c191690553880806200016b565b80888596829496860151815501950193019062000154565b60008052826000208480870160051c820192858810620001ed575b0160051c019087905b828110620001e0575050620000ee565b60008155018790620001d0565b92508192620001c7565b634e487b7160e01b600052602260045260246000fd5b90607f1690620000dc565b634e487b7160e01b600052604160045260246000fd5b6064906040519062461bcd60e51b82526004820152601b60248201527f5061697220737472696e672063616e6e6f7420626520656d70747900000000006044820152fd5b6064906040519062461bcd60e51b82526004820152601960248201527f446563696d616c732063616e6e6f7420657863656564203138000000000000006044820152fd5b600080fd5b8181018501518a82018601528794016200008b565b6040519190601f01601f191682016001600160401b03811183821017620002185760405256fe60806040818152600436101561001457600080fd5b600091823560e01c908163313ce567146103d75750806332424aa3146103b657806350d25bcd1461039a57806354fd4d501461037f578063668a0f021461034d5780637284e4161461024f5780638205bf6a146102335780639a6fc8f514610203578063a8aa1b311461014c578063b5ab58dc14610123578063b633620c146100ff5763feaf968c146100a657600080fd5b346100fb57816003193601126100fb576100f7906100c261063d565b94516001600160501b0394851681526020810193909352604083019190915260608201529116608082015290819060a0820190565b0390f35b5080fd5b50346100fb5760203660031901126100fb5760209061011c61058a565b9051908152f35b50346100fb5760203660031901126100fb5760209061014061063d565b50505091905051908152f35b50346100fb57816003193601126100fb5780519082805461016c8161043f565b908185526020926001916001811690816000146101e157506001146101a7575b6100f7868661019d828b0383610479565b51918291826103f6565b8080949750528583205b8284106101ce57505050826100f79461019d92820101943861018c565b80548685018801529286019281016101b1565b60ff191687860152505050151560051b830101925061019d826100f73861018c565b50346100fb5760203660031901126100fb576004356001600160501b038116036100fb576100f7906100c261063d565b50346100fb57816003193601126100fb5760209061011c61058a565b50346100fb57816003193601126100fb578051906020927f4e6962697275204f7261636c6520436861696e4c696e6b2d6c696b652070726960208401526b031b2903332b2b2103337b9160a51b82840152604c9080948154916102b18361043f565b9260019081811690811561032157506001146102e0575b6100f7878761019d828c03601f198101845283610479565b908080939495985052602082205b84831061030e57505050508201604c01925061019d826100f738806102c8565b80548784018901529183019181016102ee565b9150506100f7975061019d9450604c92508693915060ff191682840152801515028201019438806102c8565b50346100fb57816003193601126100fb5760209061036961063d565b505092516001600160501b039092168252509050f35b50346100fb57816003193601126100fb576020905160018152f35b50346100fb57816003193601126100fb5760209061014061063d565b50346100fb57816003193601126100fb5760209060ff600154169051908152f35b8390346100fb57816003193601126100fb5760209060ff600154168152f35b6020808252825181830181905290939260005b82811061042b57505060409293506000838284010152601f8019910116010190565b818101860151848201604001528501610409565b90600182811c9216801561046f575b602083101461045957565b634e487b7160e01b600052602260045260246000fd5b91607f169161044e565b601f909101601f19168101906001600160401b0382119082101761049c57604052565b634e487b7160e01b600052604160045260246000fd5b51906001600160401b03821682036104c657565b600080fd5b6020808252600091600054906104e08261043f565b918260208301526040600191600181169081600014610567575060011461050a575b505050505090565b6000808052949695509192917f290decd9548b62a8d60345a988386fc84ba6bc95484008f6362f93160ef3e5635b8386106105545750505050604092935001013880808080610502565b8054858701830152948701948201610538565b9395505050506040935060ff191683830152151560051b01013880808080610502565b604051636bd1902f60e01b8152606081806105a7600482016104cb565b03816108015afa801561061d576000906105d1575b6103e86001600160401b039190911604919050565b506060813d606011610615575b816105eb60609383610479565b810103126104c6578061060f604061060860206103e895016104b2565b92016104b2565b506105bc565b3d91506105de565b6040513d6000823e3d90fd5b51906001600160501b03821682036104c657565b60405163ece378ed60e01b815260a0818061065a600482016104cb565b03816108015afa90811561061d57600091829383809381936106e3575b5060ff6001541660120360ff81116106b75760ff16604d81116106b757600a0a9081156106cd57600160ff1b87146000198314166106b757950593929190565b634e487b7160e01b600052601160045260246000fd5b634e487b7160e01b600052601260045260246000fd5b9450925093505060a0823d60a01161073e575b8161070360a09383610479565b8101031261073b575061071581610629565b6020820151604083015193610731608060608601519501610629565b9194939238610677565b80fd5b3d91506106f656fea26469706673582212207dd9ebaf5a15c25fab20c18d24ff7010dc0fcfa8a6541fecbd6fd015e1bc9cce64736f6c63430008180033",
  "linkReferences": {},
  "deployedLinkReferences": {}
}