{
  "_format": "hh-sol-artifact-1",
  "contractName": "NibiruOracleChainLinkLike",
  "sourceName": "contracts/NibiruOracleChainLinkLike.sol",
  "abi": [
    {
      "inputs": [
        {
          "internalType": "string",
          "name": "_pair",
          "type": "string"
        },
        {
          "internalType": "uint8",
          "name": "_dec",
          "type": "uint8"
        }
      ],
      "stateMutability": "nonpayable",
      "type": "constructor"
    },
    {
      "inputs": [],
      "name": "_decimals",
      "outputs": [
        {
          "internalType": "uint8",
          "name": "",
          "type": "uint8"
        }
      ],
      "stateMutability": "view",
      "type": "function"
    },
    {
      "inputs": [],
      "name": "decimals",
      "outputs": [
        {
          "internalType": "uint8",
          "name": "",
          "type": "uint8"
        }
      ],
      "stateMutability": "view",
      "type": "function"
    },
    {
      "inputs": [],
      "name": "description",
      "outputs": [
        {
          "internalType": "string",
          "name": "",
          "type": "string"
        }
      ],
      "stateMutability": "view",
      "type": "function"
    },
    {
      "inputs": [
        {
          "internalType": "uint80",
          "name": "",
          "type": "uint80"
        }
      ],
      "name": "getRoundData",
      "outputs": [
        {
          "internalType": "uint80",
          "name": "roundId",
          "type": "uint80"
        },
        {
          "internalType": "int256",
          "name": "answer",
          "type": "int256"
        },
        {
          "internalType": "uint256",
          "name": "startedAt",
          "type": "uint256"
        },
        {
          "internalType": "uint256",
          "name": "updatedAt",
          "type": "uint256"
        },
        {
          "internalType": "uint80",
          "name": "answeredInRound",
          "type": "uint80"
        }
      ],
      "stateMutability": "view",
      "type": "function"
    },
    {
      "inputs": [],
      "name": "latestRoundData",
      "outputs": [
        {
          "internalType": "uint80",
          "name": "roundId",
          "type": "uint80"
        },
        {
          "internalType": "int256",
          "name": "answer",
          "type": "int256"
        },
        {
          "internalType": "uint256",
          "name": "startedAt",
          "type": "uint256"
        },
        {
          "internalType": "uint256",
          "name": "updatedAt",
          "type": "uint256"
        },
        {
          "internalType": "uint80",
          "name": "answeredInRound",
          "type": "uint80"
        }
      ],
      "stateMutability": "view",
      "type": "function"
    },
    {
      "inputs": [],
      "name": "pair",
      "outputs": [
        {
          "internalType": "string",
          "name": "",
          "type": "string"
        }
      ],
      "stateMutability": "view",
      "type": "function"
    },
    {
      "inputs": [],
      "name": "version",
      "outputs": [
        {
          "internalType": "uint256",
          "name": "",
          "type": "uint256"
        }
      ],
      "stateMutability": "pure",
      "type": "function"
    }
  ],
  "bytecode": "0x60806040523480156200001157600080fd5b50604051620012c4380380620012c48339818101604052810190620000379190620002ce565b60128160ff16111562000081576040517f08c379a0000000000000000000000000000000000000000000000000000000008152600401620000789062000395565b60405180910390fd5b6000825111620000c8576040517f08c379a0000000000000000000000000000000000000000000000000000000008152600401620000bf9062000407565b60405180910390fd5b8160009081620000d9919062000674565b5080600160006101000a81548160ff021916908360ff16021790555050506200075b565b6000604051905090565b600080fd5b600080fd5b600080fd5b600080fd5b6000601f19601f8301169050919050565b7f4e487b7100000000000000000000000000000000000000000000000000000000600052604160045260246000fd5b62000166826200011b565b810181811067ffffffffffffffff821117156200018857620001876200012c565b5b80604052505050565b60006200019d620000fd565b9050620001ab82826200015b565b919050565b600067ffffffffffffffff821115620001ce57620001cd6200012c565b5b620001d9826200011b565b9050602081019050919050565b60005b8381101562000206578082015181840152602081019050620001e9565b60008484015250505050565b6000620002296200022384620001b0565b62000191565b90508281526020810184848401111562000248576200024762000116565b5b62000255848285620001e6565b509392505050565b600082601f83011262000275576200027462000111565b5b81516200028784826020860162000212565b91505092915050565b600060ff82169050919050565b620002a88162000290565b8114620002b457600080fd5b50565b600081519050620002c8816200029d565b92915050565b60008060408385031215620002e857620002e762000107565b5b600083015167ffffffffffffffff8111156200030957620003086200010c565b5b62000317858286016200025d565b92505060206200032a85828601620002b7565b9150509250929050565b600082825260208201905092915050565b7f446563696d616c732063616e6e6f742065786365656420313800000000000000600082015250565b60006200037d60198362000334565b91506200038a8262000345565b602082019050919050565b60006020820190508181036000830152620003b0816200036e565b9050919050565b7f5061697220737472696e672063616e6e6f7420626520656d7074790000000000600082015250565b6000620003ef601b8362000334565b9150620003fc82620003b7565b602082019050919050565b600060208201905081810360008301526200042281620003e0565b9050919050565b600081519050919050565b7f4e487b7100000000000000000000000000000000000000000000000000000000600052602260045260246000fd5b600060028204905060018216806200047c57607f821691505b60208210810362000492576200049162000434565b5b50919050565b60008190508160005260206000209050919050565b60006020601f8301049050919050565b600082821b905092915050565b600060088302620004fc7fffffffffffffffffffffffffffffffffffffffffffffffffffffffffffffffff82620004bd565b620005088683620004bd565b95508019841693508086168417925050509392505050565b6000819050919050565b6000819050919050565b6000620005556200054f620005498462000520565b6200052a565b62000520565b9050919050565b6000819050919050565b620005718362000534565b6200058962000580826200055c565b848454620004ca565b825550505050565b600090565b620005a062000591565b620005ad81848462000566565b505050565b5b81811015620005d557620005c960008262000596565b600181019050620005b3565b5050565b601f8211156200062457620005ee8162000498565b620005f984620004ad565b8101602085101562000609578190505b620006216200061885620004ad565b830182620005b2565b50505b505050565b600082821c905092915050565b6000620006496000198460080262000629565b1980831691505092915050565b600062000664838362000636565b9150826002028217905092915050565b6200067f8262000429565b67ffffffffffffffff8111156200069b576200069a6200012c565b5b620006a7825462000463565b620006b4828285620005d9565b600060209050601f831160018114620006ec5760008415620006d7578287015190505b620006e3858262000656565b86555062000753565b601f198416620006fc8662000498565b60005b828110156200072657848901518255600182019150602085019450602081019050620006ff565b8683101562000746578489015162000742601f89168262000636565b8355505b6001600288020188555050505b505050505050565b610b59806200076b6000396000f3fe608060405234801561001057600080fd5b506004361061007d5760003560e01c80637284e4161161005b5780637284e416146100dc5780639a6fc8f5146100fa578063a8aa1b311461012e578063feaf968c1461014c5761007d565b8063313ce5671461008257806332424aa3146100a057806354fd4d50146100be575b600080fd5b61008a61016e565b6040516100979190610393565b60405180910390f35b6100a8610185565b6040516100b59190610393565b60405180910390f35b6100c6610198565b6040516100d391906103c7565b60405180910390f35b6100e46101a1565b6040516100f19190610472565b60405180910390f35b610114600480360381019061010f91906104db565b6101c9565b604051610125959493929190610530565b60405180910390f35b6101366101ec565b6040516101439190610472565b60405180910390f35b61015461027a565b604051610165959493929190610530565b60405180910390f35b6000600160009054906101000a900460ff16905090565b600160009054906101000a900460ff1681565b60006001905090565b606060006040516020016101b591906106f8565b604051602081830303815290604052905090565b60008060008060006101d961027a565b9450945094509450945091939590929450565b600080546101f99061062f565b80601f01602080910402602001604051908101604052809291908181526020018280546102259061062f565b80156102725780601f1061024757610100808354040283529160200191610272565b820191906000526020600020905b81548152906001019060200180831161025557829003601f168201915b505050505081565b60008060008060008060008060008061080173ffffffffffffffffffffffffffffffffffffffff1663ece378ed60006040518263ffffffff1660e01b81526004016102c5919061079e565b60a060405180830381865afa1580156102e2573d6000803e3d6000fd5b505050506040513d601f19601f82011682018060405250810190610306919061082d565b9450945094509450945061031984610336565b985084898484849950995099509950995050505050509091929394565b600080600160009054906101000a900460ff16601261035591906108d7565b905080600a6103649190610a3f565b8361036f9190610ab9565b915050919050565b600060ff82169050919050565b61038d81610377565b82525050565b60006020820190506103a86000830184610384565b92915050565b6000819050919050565b6103c1816103ae565b82525050565b60006020820190506103dc60008301846103b8565b92915050565b600081519050919050565b600082825260208201905092915050565b60005b8381101561041c578082015181840152602081019050610401565b60008484015250505050565b6000601f19601f8301169050919050565b6000610444826103e2565b61044e81856103ed565b935061045e8185602086016103fe565b61046781610428565b840191505092915050565b6000602082019050818103600083015261048c8184610439565b905092915050565b600080fd5b600069ffffffffffffffffffff82169050919050565b6104b881610499565b81146104c357600080fd5b50565b6000813590506104d5816104af565b92915050565b6000602082840312156104f1576104f0610494565b5b60006104ff848285016104c6565b91505092915050565b61051181610499565b82525050565b6000819050919050565b61052a81610517565b82525050565b600060a0820190506105456000830188610508565b6105526020830187610521565b61055f60408301866103b8565b61056c60608301856103b8565b6105796080830184610508565b9695505050505050565b600081905092915050565b7f4e6962697275204f7261636c6520436861696e4c696e6b2d6c696b652070726960008201527f6365206665656420666f72200000000000000000000000000000000000000000602082015250565b60006105ea602c83610583565b91506105f58261058e565b602c82019050919050565b7f4e487b7100000000000000000000000000000000000000000000000000000000600052602260045260246000fd5b6000600282049050600182168061064757607f821691505b60208210810361065a57610659610600565b5b50919050565b60008190508160005260206000209050919050565b600081546106828161062f565b61068c8186610583565b945060018216600081146106a757600181146106bc576106ef565b60ff19831686528115158202860193506106ef565b6106c585610660565b60005b838110156106e7578154818901526001820191506020810190506106c8565b838801955050505b50505092915050565b6000610703826105dd565b915061070f8284610675565b915081905092915050565b600081546107278161062f565b61073181866103ed565b9450600182166000811461074c576001811461076257610795565b60ff198316865281151560200286019350610795565b61076b85610660565b60005b8381101561078d5781548189015260018201915060208101905061076e565b808801955050505b50505092915050565b600060208201905081810360008301526107b8818461071a565b905092915050565b6000815190506107cf816104af565b92915050565b6107de81610517565b81146107e957600080fd5b50565b6000815190506107fb816107d5565b92915050565b61080a816103ae565b811461081557600080fd5b50565b60008151905061082781610801565b92915050565b600080600080600060a0868803121561084957610848610494565b5b6000610857888289016107c0565b9550506020610868888289016107ec565b945050604061087988828901610818565b935050606061088a88828901610818565b925050608061089b888289016107c0565b9150509295509295909350565b7f4e487b7100000000000000000000000000000000000000000000000000000000600052601160045260246000fd5b60006108e282610377565b91506108ed83610377565b9250828203905060ff811115610906576109056108a8565b5b92915050565b60008160011c9050919050565b6000808291508390505b60018511156109635780860481111561093f5761093e6108a8565b5b600185161561094e5780820291505b808102905061095c8561090c565b9450610923565b94509492505050565b60008261097c5760019050610a38565b8161098a5760009050610a38565b81600181146109a057600281146109aa576109d9565b6001915050610a38565b60ff8411156109bc576109bb6108a8565b5b8360020a9150848211156109d3576109d26108a8565b5b50610a38565b5060208310610133831016604e8410600b8410161715610a0e5782820a905083811115610a0957610a086108a8565b5b610a38565b610a1b8484846001610919565b92509050818404811115610a3257610a316108a8565b5b81810290505b9392505050565b6000610a4a826103ae565b9150610a5583610377565b9250610a827fffffffffffffffffffffffffffffffffffffffffffffffffffffffffffffffff848461096c565b905092915050565b7f4e487b7100000000000000000000000000000000000000000000000000000000600052601260045260246000fd5b6000610ac482610517565b9150610acf83610517565b925082610adf57610ade610a8a565b5b600160000383147f800000000000000000000000000000000000000000000000000000000000000083141615610b1857610b176108a8565b5b82820590509291505056fea2646970667358221220665d6835ef0fb5e6a6be054bbc231e9245801a249e34e054bb4b1b9bcfd25f7564736f6c63430008180033",
  "linkReferences": {},
  "deployedLinkReferences": {}
}