{
  "_format": "hh-sol-artifact-1",
  "contractName": "ErisEvm",
  "sourceName": "contracts/ErisEvm.sol",
  "abi": [
    {
      "inputs": [
        {
          "internalType": "uint256",
          "name": "amount",
          "type": "uint256"
        }
      ],
      "name": "liquidStake",
      "outputs": [],
      "stateMutability": "nonpayable",
      "type": "function"
    },
    {
      "inputs": [],
      "name": "redeem",
      "outputs": [],
      "stateMutability": "nonpayable",
      "type": "function"
    },
    {
      "inputs": [],
      "name": "state",
      "outputs": [
        {
          "internalType": "bytes",
          "name": "respJson",
          "type": "bytes"
        }
      ],
      "stateMutability": "view",
      "type": "function"
    },
    {
      "inputs": [
        {
          "internalType": "uint256",
          "name": "stAmount",
          "type": "uint256"
        }
      ],
      "name": "unstake",
      "outputs": [],
      "stateMutability": "nonpayable",
      "type": "function"
    }
  ],
  "bytecode": "0x608060405234801561001057600080fd5b50612206806100206000396000f3fe608060405234801561001057600080fd5b506004361061004c5760003560e01c80632e17de78146100515780635c7642661461006d578063be040fb014610089578063c19d93fb14610093575b600080fd5b61006b6004803603810190610066919061125d565b6100b1565b005b6100876004803603810190610082919061125d565b610313565b005b6100916109f4565b005b61009b610b92565b6040516100a8919061131a565b60405180910390f35b60006100d43373ffffffffffffffffffffffffffffffffffffffff166014610c6f565b9050600080600061080073ffffffffffffffffffffffffffffffffffffffff1663b203bb993373ca0a9fb5fbf692fa12fd13c0a900ec56bb3f0a7b6040518363ffffffff1660e01b815260040161012c9291906113dc565b600060405180830381865afa158015610149573d6000803e3d6000fd5b505050506040513d6000823e3d601f19601f82011682018060405250810190610172919061164e565b5092509250925060008284610187919061171c565b9050858110156101cc576040517f08c379a00000000000000000000000000000000000000000000000000000000081526004016101c3906117ad565b60405180910390fd5b6000868410156101e75783876101e291906117cd565b6101ea565b60005b905060008111156102055761020483600001518288610eab565b5b60006040518060400160405280601381526020017f7b2271756575655f756e626f6e64223a7b7d7d0000000000000000000000000081525090506000600167ffffffffffffffff81111561025c5761025b61141f565b5b60405190808252806020026020018201604052801561029557816020015b6102826111f9565b81526020019060019003908161027a5790505b50905060405180604001604052806040518060800160405280604a8152602001612148604a913981526020018a815250816000815181106102d9576102d8611801565b5b60200260200101819052506103076040518060600160405280603f8152602001612192603f91398383610f84565b50505050505050505050565b64e8d4a5100081101561035b576040517f08c379a0000000000000000000000000000000000000000000000000000000008152600401610352906118a2565b60405180910390fd5b64e8d4a51000808261036d91906118f1565b6103779190611922565b9050600061039c3373ffffffffffffffffffffffffffffffffffffffff166014610c6f565b9050600061080073ffffffffffffffffffffffffffffffffffffffff16637d2a8b4e836040518263ffffffff1660e01b81526004016103db91906119a8565b600060405180830381865afa1580156103f8573d6000803e3d6000fd5b505050506040513d6000823e3d601f19601f8201168201806040525081019061042191906119ca565b905060003373ffffffffffffffffffffffffffffffffffffffff163190506000730cacf669f8446beca826913a3c6b96acd4b02a9773ffffffffffffffffffffffffffffffffffffffff166370a08231336040518263ffffffff1660e01b815260040161048e9190611a13565b602060405180830381865afa1580156104ab573d6000803e3d6000fd5b505050506040513d601f19601f820116820180604052508101906104cf9190611a2e565b905064e8d4a5100080826104e391906118f1565b6104ed9190611922565b9050600082826104fd919061171c565b905085811015610542576040517f08c379a000000000000000000000000000000000000000000000000000000000815260040161053990611aa7565b60405180910390fd5b6000868310156105525782610554565b865b905060008111156106f957730cacf669f8446beca826913a3c6b96acd4b02a9773ffffffffffffffffffffffffffffffffffffffff166323b872dd3330846040518463ffffffff1660e01b81526004016105b093929190611ad6565b6020604051808303816000875af11580156105cf573d6000803e3d6000fd5b505050506040513d601f19601f820116820180604052508101906105f39190611b45565b610632576040517f08c379a000000000000000000000000000000000000000000000000000000000815260040161062990611bbe565b60405180910390fd5b730cacf669f8446beca826913a3c6b96acd4b02a9773ffffffffffffffffffffffffffffffffffffffff16632e1a7d4d826040518263ffffffff1660e01b815260040161067f9190611bde565b600060405180830381600087803b15801561069957600080fd5b505af11580156106ad573d6000803e3d6000fd5b505050503373ffffffffffffffffffffffffffffffffffffffff166108fc829081150290604051600060405180830381858888f193505050501580156106f7573d6000803e3d6000fd5b505b60006040518060400160405280600b81526020017f7b22626f6e64223a7b7d7d00000000000000000000000000000000000000000081525090506000600167ffffffffffffffff8111156107505761074f61141f565b5b60405190808252806020026020018201604052801561078957816020015b6107766111f9565b81526020019060019003908161076e5790505b50905060405180604001604052806040518060400160405280600581526020017f756e696269000000000000000000000000000000000000000000000000000000815250815260200164e8d4a510008b6107e391906118f1565b815250816000815181106107fa576107f9611801565b5b6020026020010181905250600061080073ffffffffffffffffffffffffffffffffffffffff1663a22c297f89600001516040518060800160405280604a8152602001612148604a91396040518363ffffffff1660e01b8152600401610860929190611bf9565b600060405180830381865afa15801561087d573d6000803e3d6000fd5b505050506040513d6000823e3d601f19601f820116820180604052508101906108a69190611c29565b5090506108cc6040518060600160405280603f8152602001612192603f91398484610f84565b50600061080073ffffffffffffffffffffffffffffffffffffffff1663a22c297f8a600001516040518060800160405280604a8152602001612148604a91396040518363ffffffff1660e01b8152600401610928929190611bf9565b600060405180830381865afa158015610945573d6000803e3d6000fd5b505050506040513d6000823e3d601f19601f8201168201806040525081019061096e9190611c29565b5090508181116109b3576040517f08c379a00000000000000000000000000000000000000000000000000000000081526004016109aa90611cf7565b60405180910390fd5b600082826109c191906117cd565b90506109e66040518060800160405280604a8152602001612148604a9139828d61104a565b505050505050505050505050565b60003373ffffffffffffffffffffffffffffffffffffffff1631905060006040518060400160405280601881526020017f7b2277697468647261775f756e626f6e646564223a7b7d7d0000000000000000815250905060008067ffffffffffffffff811115610a6657610a6561141f565b5b604051908082528060200260200182016040528015610a9f57816020015b610a8c6111f9565b815260200190600190039081610a845790505b509050610ac56040518060600160405280603f8152602001612192603f91398383610f84565b5060003373ffffffffffffffffffffffffffffffffffffffff163190506000848211610af2576000610aff565b8482610afe91906117cd565b5b90506000811115610b8b57730cacf669f8446beca826913a3c6b96acd4b02a9773ffffffffffffffffffffffffffffffffffffffff1663d0e30db08684610b4691906117cd565b6040518263ffffffff1660e01b81526004016000604051808303818588803b158015610b7157600080fd5b505af1158015610b85573d6000803e3d6000fd5b50505050505b5050505050565b606060006040518060400160405280600c81526020017f7b227374617465223a7b7d7d0000000000000000000000000000000000000000815250905061080273ffffffffffffffffffffffffffffffffffffffff166306d81d296040518060600160405280603f8152602001612192603f9139836040518363ffffffff1660e01b8152600401610c23929190611d17565b600060405180830381865afa158015610c40573d6000803e3d6000fd5b505050506040513d6000823e3d601f19601f82011682018060405250810190610c699190611def565b91505090565b606060006002836002610c829190611922565b610c8c919061171c565b67ffffffffffffffff811115610ca557610ca461141f565b5b6040519080825280601f01601f191660200182016040528015610cd75781602001600182028036833780820191505090505b5090507f300000000000000000000000000000000000000000000000000000000000000081600081518110610d0f57610d0e611801565b5b60200101907effffffffffffffffffffffffffffffffffffffffffffffffffffffffffffff1916908160001a9053507f780000000000000000000000000000000000000000000000000000000000000081600181518110610d7357610d72611801565b5b60200101907effffffffffffffffffffffffffffffffffffffffffffffffffffffffffffff1916908160001a90535060006001846002610db39190611922565b610dbd919061171c565b90505b6001811115610e5d577f3031323334353637383961626364656600000000000000000000000000000000600f861660108110610dff57610dfe611801565b5b1a60f81b828281518110610e1657610e15611801565b5b60200101907effffffffffffffffffffffffffffffffffffffffffffffffffffffffffffff1916908160001a905350600485901c945080610e5690611e38565b9050610dc0565b5060008414610ea1576040517f08c379a0000000000000000000000000000000000000000000000000000000008152600401610e9890611ead565b60405180910390fd5b8091505092915050565b610f7e610800848484604051602401610ec693929190611ecd565b6040516020818303038152906040527fe77a47bf000000000000000000000000000000000000000000000000000000007bffffffffffffffffffffffffffffffffffffffffffffffffffffffff19166020820180517bffffffffffffffffffffffffffffffffffffffffffffffffffffffff83818316178352505050506040518060400160405280601181526020017f73656e64546f42616e6b206661696c6564000000000000000000000000000000815250611123565b50505050565b60606110416108026361ffaee460e01b868686604051602401610fa993929190612063565b604051602081830303815290604052907bffffffffffffffffffffffffffffffffffffffffffffffffffffffff19166020820180517bffffffffffffffffffffffffffffffffffffffffffffffffffffffff83818316178352505050506040518060400160405280601381526020017f5761736d2065786563757465206661696c656400000000000000000000000000815250611123565b90509392505050565b61111d610800848484604051602401611065939291906120af565b6040516020818303038152906040527f2e107aa9000000000000000000000000000000000000000000000000000000007bffffffffffffffffffffffffffffffffffffffffffffffffffffffff19166020820180517bffffffffffffffffffffffffffffffffffffffffffffffffffffffff83818316178352505050506040518060400160405280601081526020017f73656e64546f45766d206661696c656400000000000000000000000000000000815250611123565b50505050565b60606000808573ffffffffffffffffffffffffffffffffffffffff168560405161114d9190612130565b600060405180830381855af49150503d8060008114611188576040519150601f19603f3d011682016040523d82523d6000602084013e61118d565b606091505b509150915081156111a25780925050506111f2565b6000815111156111b55780518060208301fd5b836040517f08c379a00000000000000000000000000000000000000000000000000000000081526004016111e991906119a8565b60405180910390fd5b9392505050565b604051806040016040528060608152602001600081525090565b6000604051905090565b600080fd5b600080fd5b6000819050919050565b61123a81611227565b811461124557600080fd5b50565b60008135905061125781611231565b92915050565b6000602082840312156112735761127261121d565b5b600061128184828501611248565b91505092915050565b600081519050919050565b600082825260208201905092915050565b60005b838110156112c45780820151818401526020810190506112a9565b60008484015250505050565b6000601f19601f8301169050919050565b60006112ec8261128a565b6112f68185611295565b93506113068185602086016112a6565b61130f816112d0565b840191505092915050565b6000602082019050818103600083015261133481846112e1565b905092915050565b600073ffffffffffffffffffffffffffffffffffffffff82169050919050565b60006113678261133c565b9050919050565b6113778161135c565b82525050565b6000819050919050565b60006113a261139d6113988461133c565b61137d565b61133c565b9050919050565b60006113b482611387565b9050919050565b60006113c6826113a9565b9050919050565b6113d6816113bb565b82525050565b60006040820190506113f1600083018561136e565b6113fe60208301846113cd565b9392505050565b60008151905061141481611231565b92915050565b600080fd5b7f4e487b7100000000000000000000000000000000000000000000000000000000600052604160045260246000fd5b611457826112d0565b810181811067ffffffffffffffff821117156114765761147561141f565b5b80604052505050565b6000611489611213565b9050611495828261144e565b919050565b600080fd5b6114a88161135c565b81146114b357600080fd5b50565b6000815190506114c58161149f565b92915050565b600080fd5b600080fd5b600067ffffffffffffffff8211156114f0576114ef61141f565b5b6114f9826112d0565b9050602081019050919050565b6000611519611514846114d5565b61147f565b905082815260208101848484011115611535576115346114d0565b5b6115408482856112a6565b509392505050565b600082601f83011261155d5761155c6114cb565b5b815161156d848260208601611506565b91505092915050565b60006040828403121561158c5761158b61141a565b5b611596604061147f565b905060006115a6848285016114b6565b600083015250602082015167ffffffffffffffff8111156115ca576115c961149a565b5b6115d684828501611548565b60208301525092915050565b6000604082840312156115f8576115f761141a565b5b611602604061147f565b90506000611612848285016114b6565b600083015250602082015167ffffffffffffffff8111156116365761163561149a565b5b61164284828501611548565b60208301525092915050565b600080600080608085870312156116685761166761121d565b5b600061167687828801611405565b945050602061168787828801611405565b935050604085015167ffffffffffffffff8111156116a8576116a7611222565b5b6116b487828801611576565b925050606085015167ffffffffffffffff8111156116d5576116d4611222565b5b6116e1878288016115e2565b91505092959194509250565b7f4e487b7100000000000000000000000000000000000000000000000000000000600052601160045260246000fd5b600061172782611227565b915061173283611227565b925082820190508082111561174a576117496116ed565b5b92915050565b600082825260208201905092915050565b7f496e73756666696369656e742073744e4942492062616c616e63650000000000600082015250565b6000611797601b83611750565b91506117a282611761565b602082019050919050565b600060208201905081810360008301526117c68161178a565b9050919050565b60006117d882611227565b91506117e383611227565b92508282039050818111156117fb576117fa6116ed565b5b92915050565b7f4e487b7100000000000000000000000000000000000000000000000000000000600052603260045260246000fd5b7f416d6f756e74206d757374206265203e3d203165313220776569202831206d6960008201527f63726f204e494249290000000000000000000000000000000000000000000000602082015250565b600061188c602983611750565b915061189782611830565b604082019050919050565b600060208201905081810360008301526118bb8161187f565b9050919050565b7f4e487b7100000000000000000000000000000000000000000000000000000000600052601260045260246000fd5b60006118fc82611227565b915061190783611227565b925082611917576119166118c2565b5b828204905092915050565b600061192d82611227565b915061193883611227565b925082820261194681611227565b9150828204841483151761195d5761195c6116ed565b5b5092915050565b600081519050919050565b600061197a82611964565b6119848185611750565b93506119948185602086016112a6565b61199d816112d0565b840191505092915050565b600060208201905081810360008301526119c2818461196f565b905092915050565b6000602082840312156119e0576119df61121d565b5b600082015167ffffffffffffffff8111156119fe576119fd611222565b5b611a0a848285016115e2565b91505092915050565b6000602082019050611a28600083018461136e565b92915050565b600060208284031215611a4457611a4361121d565b5b6000611a5284828501611405565b91505092915050565b7f496e73756666696369656e74204e494249202b20574e49424900000000000000600082015250565b6000611a91601983611750565b9150611a9c82611a5b565b602082019050919050565b60006020820190508181036000830152611ac081611a84565b9050919050565b611ad081611227565b82525050565b6000606082019050611aeb600083018661136e565b611af8602083018561136e565b611b056040830184611ac7565b949350505050565b60008115159050919050565b611b2281611b0d565b8114611b2d57600080fd5b50565b600081519050611b3f81611b19565b92915050565b600060208284031215611b5b57611b5a61121d565b5b6000611b6984828501611b30565b91505092915050565b7f574e494249207472616e7366657246726f6d206661696c656400000000000000600082015250565b6000611ba8601983611750565b9150611bb382611b72565b602082019050919050565b60006020820190508181036000830152611bd781611b9b565b9050919050565b6000602082019050611bf36000830184611ac7565b92915050565b6000604082019050611c0e600083018561136e565b8181036020830152611c20818461196f565b90509392505050565b60008060408385031215611c4057611c3f61121d565b5b6000611c4e85828601611405565b925050602083015167ffffffffffffffff811115611c6f57611c6e611222565b5b611c7b858286016115e2565b9150509250929050565b7f5761736d206f7065726174696f6e206661696c656420746f206d696e7420737460008201527f4e494249206f72206d696e746564207a65726f2e000000000000000000000000602082015250565b6000611ce1603483611750565b9150611cec82611c85565b604082019050919050565b60006020820190508181036000830152611d1081611cd4565b9050919050565b60006040820190508181036000830152611d31818561196f565b90508181036020830152611d4581846112e1565b90509392505050565b600067ffffffffffffffff821115611d6957611d6861141f565b5b611d72826112d0565b9050602081019050919050565b6000611d92611d8d84611d4e565b61147f565b905082815260208101848484011115611dae57611dad6114d0565b5b611db98482856112a6565b509392505050565b600082601f830112611dd657611dd56114cb565b5b8151611de6848260208601611d7f565b91505092915050565b600060208284031215611e0557611e0461121d565b5b600082015167ffffffffffffffff811115611e2357611e22611222565b5b611e2f84828501611dc1565b91505092915050565b6000611e4382611227565b915060008203611e5657611e556116ed565b5b600182039050919050565b7f537472696e67733a20686578206c656e67746820696e73756666696369656e74600082015250565b6000611e97602083611750565b9150611ea282611e61565b602082019050919050565b60006020820190508181036000830152611ec681611e8a565b9050919050565b6000606082019050611ee2600083018661136e565b611eef6020830185611ac7565b8181036040830152611f01818461196f565b9050949350505050565b600081519050919050565b600082825260208201905092915050565b6000819050602082019050919050565b600082825260208201905092915050565b6000611f5382611964565b611f5d8185611f37565b9350611f6d8185602086016112a6565b611f76816112d0565b840191505092915050565b611f8a81611227565b82525050565b60006040830160008301518482036000860152611fad8282611f48565b9150506020830151611fc26020860182611f81565b508091505092915050565b6000611fd98383611f90565b905092915050565b6000602082019050919050565b6000611ff982611f0b565b6120038185611f16565b93508360208202850161201585611f27565b8060005b8581101561205157848403895281516120328582611fcd565b945061203d83611fe1565b925060208a01995050600181019050612019565b50829750879550505050505092915050565b6000606082019050818103600083015261207d818661196f565b9050818103602083015261209181856112e1565b905081810360408301526120a58184611fee565b9050949350505050565b600060608201905081810360008301526120c9818661196f565b90506120d86020830185611ac7565b81810360408301526120ea818461196f565b9050949350505050565b600081905092915050565b600061210a8261128a565b61211481856120f4565b93506121248185602086016112a6565b80840191505092915050565b600061213c82846120ff565b91508190509291505056fe74662f6e69626931756471717833306377386e776a78746c346c3238796d39686872703933337a6c7138647178666a7a636468766c387932347a6371707a6d68386d2f616d704e4942496e69626931756471717833306377386e776a78746c346c3238796d39686872703933337a6c7138647178666a7a636468766c387932347a6371707a6d68386da264697066735822122068c874f013a0517962f2822842d9a96102815002caebb2f67455a40f9a5e974264736f6c63430008180033",
  "linkReferences": {},
  "deployedLinkReferences": {}
}