{
  "_format": "hh-sol-artifact-1",
  "contractName": "TestDirtyStateAttack5",
  "sourceName": "contracts/TestDirtyStateAttack5.sol",
  "abi": [
    {
      "inputs": [],
      "stateMutability": "payable",
      "type": "constructor"
    },
    {
      "inputs": [
        {
          "internalType": "string",
          "name": "wasmAddr",
          "type": "string"
        },
        {
          "internalType": "bytes",
          "name": "msgArgs",
          "type": "bytes"
        }
      ],
      "name": "attack",
      "outputs": [],
      "stateMutability": "nonpayable",
      "type": "function"
    }
  ],
  "bytecode": "0x6080806040526103c990816100128239f3fe608060408181526004908136101561001657600080fd5b600091823560e01c6333c889971461002d57600080fd5b346102a25760031993828536011261029e576001600160401b0392823584811161029a5761005e90369085016102a6565b92906024358681116101fa5761007d90989492919798369087016102a6565b94610087836102d8565b600191600184526020968b5b88811061026457509161011e899694928d969489516100b1816102d8565b8a516100bc816102d8565b6005815264756e69626960d81b8d8201528152624c4b408c8201526100e08761032c565b526100ea8661032c565b5061010e8a519e8f9863187febb960e21b8a526060809c8b015260648a0191610372565b9184888403016024890152610372565b9084820301604485015282519081815288810189808460051b84010195019787925b8b8b868610610208575050505050505050819293500381836108025af180156101fe5761016b578580f35b3d8087873e61017a8187610309565b85019482818703126101f6578051908582116101fa57019285601f850112156101f65783519485116101e3575051936101bc601f8501601f1916830186610309565b8385528184840101116101df57806101d69401910161034f565b38808080808580f35b8480fd5b634e487b7160e01b875260419052602486fd5b8680fd5b8780fd5b81513d88823e3d90fd5b879a5083969950978b601f83959394979a85829b989b1993848b8703018d52516102458151938088528451948580928a0152848a8a01910161034f565b0151868501520116010199019401940190938c95928e97949895610140565b8890889d9c939d9792949596975161027b816102d8565b606081528d8382015282828a010152019b919a9b959493929095610093565b8580fd5b8380fd5b8280fd5b9181601f840112156102d3578235916001600160401b0383116102d357602083818601950101116102d357565b600080fd5b604081019081106001600160401b038211176102f357604052565b634e487b7160e01b600052604160045260246000fd5b601f909101601f19168101906001600160401b038211908210176102f357604052565b8051156103395760200190565b634e487b7160e01b600052603260045260246000fd5b60005b8381106103625750506000910152565b8181015183820152602001610352565b908060209392818452848401376000828201840152601f01601f191601019056fea264697066735822122017f83206770ff7e202e7eea12a1f7de4689f7bf7c3babfbed0e22eea1dcb8e9364736f6c63430008180033",
  "linkReferences": {},
  "deployedLinkReferences": {}
}