{
  "_format": "hh-sol-artifact-1",
  "contractName": "ERC20MinterWithMetadataUpdates",
  "sourceName": "contracts/ERC20MinterWithMetadataUpdates.sol",
  "abi": [
    {
      "inputs": [
        {
          "internalType": "string",
          "name": "name_",
          "type": "string"
        },
        {
          "internalType": "string",
          "name": "symbol_",
          "type": "string"
        },
        {
          "internalType": "uint8",
          "name": "decimals_",
          "type": "uint8"
        }
      ],
      "stateMutability": "nonpayable",
      "type": "constructor"
    },
    {
      "anonymous": false,
      "inputs": [
        {
          "indexed": true,
          "internalType": "address",
          "name": "owner",
          "type": "address"
        },
        {
          "indexed": true,
          "internalType": "address",
          "name": "spender",
          "type": "address"
        },
        {
          "indexed": false,
          "internalType": "uint256",
          "name": "value",
          "type": "uint256"
        }
      ],
      "name": "Approval",
      "type": "event"
    },
    {
      "anonymous": false,
      "inputs": [
        {
          "indexed": true,
          "internalType": "address",
          "name": "previousOwner",
          "type": "address"
        },
        {
          "indexed": true,
          "internalType": "address",
          "name": "newOwner",
          "type": "address"
        }
      ],
      "name": "OwnershipTransferred",
      "type": "event"
    },
    {
      "anonymous": false,
      "inputs": [
        {
          "indexed": true,
          "internalType": "address",
          "name": "from",
          "type": "address"
        },
        {
          "indexed": true,
          "internalType": "address",
          "name": "to",
          "type": "address"
        },
        {
          "indexed": false,
          "internalType": "uint256",
          "name": "value",
          "type": "uint256"
        }
      ],
      "name": "Transfer",
      "type": "event"
    },
    {
      "inputs": [
        {
          "internalType": "address",
          "name": "owner",
          "type": "address"
        },
        {
          "internalType": "address",
          "name": "spender",
          "type": "address"
        }
      ],
      "name": "allowance",
      "outputs": [
        {
          "internalType": "uint256",
          "name": "",
          "type": "uint256"
        }
      ],
      "stateMutability": "view",
      "type": "function"
    },
    {
      "inputs": [
        {
          "internalType": "address",
          "name": "spender",
          "type": "address"
        },
        {
          "internalType": "uint256",
          "name": "amount",
          "type": "uint256"
        }
      ],
      "name": "approve",
      "outputs": [
        {
          "internalType": "bool",
          "name": "",
          "type": "bool"
        }
      ],
      "stateMutability": "nonpayable",
      "type": "function"
    },
    {
      "inputs": [
        {
          "internalType": "address",
          "name": "account",
          "type": "address"
        }
      ],
      "name": "balanceOf",
      "outputs": [
        {
          "internalType": "uint256",
          "name": "",
          "type": "uint256"
        }
      ],
      "stateMutability": "view",
      "type": "function"
    },
    {
      "inputs": [
        {
          "internalType": "uint256",
          "name": "amount",
          "type": "uint256"
        }
      ],
      "name": "burn",
      "outputs": [],
      "stateMutability": "nonpayable",
      "type": "function"
    },
    {
      "inputs": [
        {
          "internalType": "address",
          "name": "account",
          "type": "address"
        },
        {
          "internalType": "uint256",
          "name": "amount",
          "type": "uint256"
        }
      ],
      "name": "burnFrom",
      "outputs": [],
      "stateMutability": "nonpayable",
      "type": "function"
    },
    {
      "inputs": [
        {
          "internalType": "address",
          "name": "from",
          "type": "address"
        },
        {
          "internalType": "uint256",
          "name": "amount",
          "type": "uint256"
        }
      ],
      "name": "burnFromAuthority",
      "outputs": [],
      "stateMutability": "nonpayable",
      "type": "function"
    },
    {
      "inputs": [],
      "name": "decimals",
      "outputs": [
        {
          "internalType": "uint8",
          "name": "",
          "type": "uint8"
        }
      ],
      "stateMutability": "view",
      "type": "function"
    },
    {
      "inputs": [
        {
          "internalType": "address",
          "name": "spender",
          "type": "address"
        },
        {
          "internalType": "uint256",
          "name": "subtractedValue",
          "type": "uint256"
        }
      ],
      "name": "decreaseAllowance",
      "outputs": [
        {
          "internalType": "bool",
          "name": "",
          "type": "bool"
        }
      ],
      "stateMutability": "nonpayable",
      "type": "function"
    },
    {
      "inputs": [
        {
          "internalType": "address",
          "name": "spender",
          "type": "address"
        },
        {
          "internalType": "uint256",
          "name": "addedValue",
          "type": "uint256"
        }
      ],
      "name": "increaseAllowance",
      "outputs": [
        {
          "internalType": "bool",
          "name": "",
          "type": "bool"
        }
      ],
      "stateMutability": "nonpayable",
      "type": "function"
    },
    {
      "inputs": [
        {
          "internalType": "address",
          "name": "to",
          "type": "address"
        },
        {
          "internalType": "uint256",
          "name": "amount",
          "type": "uint256"
        }
      ],
      "name": "mint",
      "outputs": [],
      "stateMutability": "nonpayable",
      "type": "function"
    },
    {
      "inputs": [],
      "name": "name",
      "outputs": [
        {
          "internalType": "string",
          "name": "",
          "type": "string"
        }
      ],
      "stateMutability": "view",
      "type": "function"
    },
    {
      "inputs": [],
      "name": "owner",
      "outputs": [
        {
          "internalType": "address",
          "name": "",
          "type": "address"
        }
      ],
      "stateMutability": "view",
      "type": "function"
    },
    {
      "inputs": [],
      "name": "renounceOwnership",
      "outputs": [],
      "stateMutability": "nonpayable",
      "type": "function"
    },
    {
      "inputs": [
        {
          "internalType": "uint8",
          "name": "decimals_",
          "type": "uint8"
        }
      ],
      "name": "setDecimals",
      "outputs": [],
      "stateMutability": "nonpayable",
      "type": "function"
    },
    {
      "inputs": [
        {
          "internalType": "string",
          "name": "name_",
          "type": "string"
        }
      ],
      "name": "setName",
      "outputs": [],
      "stateMutability": "nonpayable",
      "type": "function"
    },
    {
      "inputs": [
        {
          "internalType": "string",
          "name": "symbol_",
          "type": "string"
        }
      ],
      "name": "setSymbol",
      "outputs": [],
      "stateMutability": "nonpayable",
      "type": "function"
    },
    {
      "inputs": [],
      "name": "symbol",
      "outputs": [
        {
          "internalType": "string",
          "name": "",
          "type": "string"
        }
      ],
      "stateMutability": "view",
      "type": "function"
    },
    {
      "inputs": [],
      "name": "totalSupply",
      "outputs": [
        {
          "internalType": "uint256",
          "name": "",
          "type": "uint256"
        }
      ],
      "stateMutability": "view",
      "type": "function"
    },
    {
      "inputs": [
        {
          "internalType": "address",
          "name": "to",
          "type": "address"
        },
        {
          "internalType": "uint256",
          "name": "amount",
          "type": "uint256"
        }
      ],
      "name": "transfer",
      "outputs": [
        {
          "internalType": "bool",
          "name": "",
          "type": "bool"
        }
      ],
      "stateMutability": "nonpayable",
      "type": "function"
    },
    {
      "inputs": [
        {
          "internalType": "address",
          "name": "from",
          "type": "address"
        },
        {
          "internalType": "address",
          "name": "to",
          "type": "address"
        },
        {
          "internalType": "uint256",
          "name": "amount",
          "type": "uint256"
        }
      ],
      "name": "transferFrom",
      "outputs": [
        {
          "internalType": "bool",
          "name": "",
          "type": "bool"
        }
      ],
      "stateMutability": "nonpayable",
      "type": "function"
    },
    {
      "inputs": [
        {
          "internalType": "address",
          "name": "newOwner",
          "type": "address"
        }
      ],
      "name": "transferOwnership",
      "outputs": [],
      "stateMutability": "nonpayable",
      "type": "function"
    }
  ],
  "bytecode": "0x6080604052346200060d576200171d803803806200001d8162000612565b9283398101906060818303126200060d5780516001600160401b0391908281116200060d57836200005091830162000638565b90602093848201518481116200060d576040916200007091840162000638565b9101519060ff821682036200060d578251948486116200051a576003938454936001978886811c9616801562000602575b84871014620005ec57601f95868111620005a1575b5080848782116001146200053c5760009162000530575b5060001982891b1c191690891b1786555b8351918783116200051a5760049283548a81811c911680156200050f575b868210146200041e57878111620004c4575b5080858882116001146200045f5760009162000453575b50600019828a1b1c1916908a1b1783555b600580549092336001600160a01b0383167f8be0079c531659141344cd1fd0a4f28419497f9722a3daafe3b4186f6b6457e0600080a36001600160a81b03199091163360ff60a01b19161760a09190911b60ff60a01b161782558051908882116200043e576006548a81811c9116801562000433575b868210146200041e57908188849311620003c9575b508590888311600114620003605760009262000354575b505060001982891b1c191690891b176006555b83519687116200033f57600754918883811c9316801562000334575b848410146200031f5750848211620002d5575b50508092851160011462000265575093839491849260009562000259575b50501b92600019911b1c1916176007555b6040516110729081620006ab8239f35b01519350388062000238565b92919084601f198116600760005285600020956000905b89838310620002ba57505050106200029f575b50505050811b0160075562000249565b01519060f884600019921b161c19169055388080806200028f565b8587015189559097019694850194889350908101906200027c565b6007600052826000209085808901821c830193858a1062000315575b01901c019087905b8281106200030857506200021a565b60008155018790620002f9565b93508293620002f1565b602290634e487b7160e01b6000525260246000fd5b92607f169262000207565b604182634e487b7160e01b6000525260246000fd5b015190503880620001d8565b908b9350601f198316916006600052876000209260005b89828210620003b2575050841162000399575b505050811b01600655620001eb565b0151600019838b1b60f8161c191690553880806200038a565b8385015186558f9790950194938401930162000377565b90915060066000528560002088808501861c82019288861062000414575b918d918695949301871c01915b82811062000404575050620001c1565b600081558594508d9101620003f4565b92508192620003e7565b602285634e487b7160e01b6000525260246000fd5b90607f1690620001ac565b604184634e487b7160e01b6000525260246000fd5b90508601513862000125565b8b9250601f1982169086600052876000209160005b89828210620004ad575050831162000494575b5050811b01835562000136565b880151600019838c1b60f8161c19169055388062000487565b838c015185558f9690940193928301920162000474565b84600052856000208880840160051c82019288851062000505575b0160051c01908b905b828110620004f85750506200010e565b60008155018b90620004e8565b92508192620004df565b90607f1690620000fc565b634e487b7160e01b600052604160045260246000fd5b905083015138620000cd565b8a9250601f1982169089600052866000209160005b888282106200058a575050831162000571575b5050811b018655620000de565b850151600019838b1b60f8161c19169055388062000564565b8389015185558e9690940193928301920162000551565b87600052846000208780840160051c820192878510620005e2575b0160051c01908a905b828110620005d5575050620000b6565b60008155018a90620005c5565b92508192620005bc565b634e487b7160e01b600052602260045260246000fd5b95607f1695620000a1565b600080fd5b6040519190601f01601f191682016001600160401b038111838210176200051a57604052565b919080601f840112156200060d5782516001600160401b0381116200051a576020906200066e601f8201601f1916830162000612565b928184528282870101116200060d5760005b8181106200069657508260009394955001015290565b85810183015184820184015282016200068056fe6080604081815260048036101561001557600080fd5b600092833560e01c90816306fdde031461094c57508063095ea7b31461092257806318160ddd1461090357806323b872dd146108c657806324bd8aaf14610899578063313ce56714610874578063395093511461082457806340c10f191461077057806342966c681461075257806370a082311461071b578063715018a6146106d057806379cc67901461069d5780637a1395aa146106575780638da5cb5b1461062e57806395d89b4114610570578063a457c2d7146104cc578063a9059cbb1461049b578063b84c82461461035f578063c47f00271461020d578063dd62ed3e146101c05763f2fde38b1461010a57600080fd5b346101bc5760203660031901126101bc57610123610a42565b9061012c610e6f565b6001600160a01b0391821692831561016a575050600580546001600160a01b03198116841790915516600080516020610fdd8339815191528380a380f35b906020608492519162461bcd60e51b8352820152602660248201527f4f776e61626c653a206e6577206f776e657220697320746865207a65726f206160448201526564647265737360d01b6064820152fd5b8280fd5b505034610209578060031936011261020957806020926101de610a42565b6101e6610a5d565b6001600160a01b0391821683526001865283832091168252845220549051908152f35b5080fd5b50823461035c5761021d36610aac565b91610226610e6f565b8251906001600160401b0382116103495750610243600654610b1c565b601f81116102f8575b50602080601f83116001146102895750829382939261027e575b50508160011b916000199060031b1c19161760065580f35b015190508380610266565b60068452601f1983169460008051602061101d833981519152929185905b8782106102e05750508360019596106102c7575b505050811b0160065580f35b015160001960f88460031b161c191690558380806102bb565b806001859682949686015181550195019301906102a7565b6006835260008051602061101d833981519152601f830160051c8101916020841061033f575b601f0160051c01905b818110610334575061024c565b838155600101610327565b909150819061031e565b634e487b7160e01b835260419052602482fd5b80fd5b50823461035c5761036f36610aac565b91610378610e6f565b8251906001600160401b0382116103495750610395600754610b1c565b601f811161044a575b50602080601f83116001146103db575082938293926103d0575b50508160011b916000199060031b1c19161760075580f35b0151905083806103b8565b60078452601f19831694600080516020610fbd833981519152929185905b878210610432575050836001959610610419575b505050811b0160075580f35b015160001960f88460031b161c1916905583808061040d565b806001859682949686015181550195019301906103f9565b60078352600080516020610fbd833981519152601f830160051c81019160208410610491575b601f0160051c01905b818110610486575061039e565b838155600101610479565b9091508190610470565b5050346102095780600319360112610209576020906104c56104bb610a42565b6024359033610d13565b5160018152f35b50823461035c578260031936011261035c576104e6610a42565b918360243592338152600160205281812060018060a01b038616825260205220549082821061051f576020856104c58585038733610b79565b608490602086519162461bcd60e51b8352820152602560248201527f45524332303a2064656372656173656420616c6c6f77616e63652062656c6f77604482015264207a65726f60d81b6064820152fd5b5050346102095781600319360112610209578051908260075461059281610b1c565b9081855260209260019160018116908160001461060c57506001146105d1575b6105cd86866105c3828b0383610a73565b51918291826109f9565b0390f35b929550600783528583205b8284106105f957505050826105cd946105c39282010194386105b2565b80548685018801529286019281016105dc565b60ff191687860152505050151560051b83010192506105c3826105cd386105b2565b50503461020957816003193601126102095760055490516001600160a01b039091168152602090f35b838234610209576020366003190112610209573560ff811681036102095761067d610e6f565b6005805460ff60a01b191660a09290921b60ff60a01b1691909117905580f35b5050346102095736600319011261035c576106cd6106b9610a42565b602435906106c8823383610c7b565b610ec7565b80f35b833461035c578060031936011261035c576106e9610e6f565b600580546001600160a01b0319811690915581906001600160a01b0316600080516020610fdd8339815191528280a380f35b5050346102095760203660031901126102095760209181906001600160a01b03610743610a42565b16815280845220549051908152f35b838234610209576020366003190112610209576106cd903533610ec7565b5090346101bc57806003193601126101bc5761078a610a42565b9060243591610797610e6f565b6001600160a01b03169283156107e25750602082600080516020610ffd833981519152926107c88795600254610b56565b60025585855284835280852082815401905551908152a380f35b6020606492519162461bcd60e51b8352820152601f60248201527f45524332303a206d696e7420746f20746865207a65726f2061646472657373006044820152fd5b5050346102095780600319360112610209576104c560209261086d610847610a42565b338352600186528483206001600160a01b03821684528652918490205460243590610b56565b9033610b79565b50503461020957816003193601126102095760209060ff60055460a01c169051908152f35b5050346102095736600319011261035c576106cd6108b5610a42565b6108bd610e6f565b60243590610ec7565b505034610209576060366003190112610209576020906104c56108e7610a42565b6108ef610a5d565b604435916108fe833383610c7b565b610d13565b5050346102095781600319360112610209576020906002549051908152f35b5050346102095780600319360112610209576020906104c5610942610a42565b6024359033610b79565b849084346101bc57826003193601126101bc578260065461096c81610b1c565b908185526020926001916001811690816000146109d7575060011461099c576105cd86866105c3828b0383610a73565b929550600683528583205b8284106109c457505050826105cd946105c39282010194866105b2565b80548685018801529286019281016109a7565b60ff191687860152505050151560051b83010192506105c3826105cd866105b2565b6020808252825181830181905290939260005b828110610a2e57505060409293506000838284010152601f8019910116010190565b818101860151848201604001528501610a0c565b600435906001600160a01b0382168203610a5857565b600080fd5b602435906001600160a01b0382168203610a5857565b601f909101601f19168101906001600160401b03821190821017610a9657604052565b634e487b7160e01b600052604160045260246000fd5b6020600319820112610a58576001600160401b03600435818111610a585782602382011215610a58578060040135918211610a965760405192610af9601f8401601f191660200185610a73565b82845260248383010111610a585781600092602460209301838601378301015290565b90600182811c92168015610b4c575b6020831014610b3657565b634e487b7160e01b600052602260045260246000fd5b91607f1691610b2b565b91908201809211610b6357565b634e487b7160e01b600052601160045260246000fd5b6001600160a01b03908116918215610c2a5716918215610bda5760207f8c5be1e5ebec7d5bd14f71427d1e84f3dd0314c0f7b2291e5b200ac8c7c3b925918360005260018252604060002085600052825280604060002055604051908152a3565b60405162461bcd60e51b815260206004820152602260248201527f45524332303a20617070726f766520746f20746865207a65726f206164647265604482015261737360f01b6064820152608490fd5b60405162461bcd60e51b8152602060048201526024808201527f45524332303a20617070726f76652066726f6d20746865207a65726f206164646044820152637265737360e01b6064820152608490fd5b9060018060a01b0380831660005260016020526040600020908216600052602052604060002054926000198403610cb3575b50505050565b808410610cce57610cc5930391610b79565b38808080610cad565b60405162461bcd60e51b815260206004820152601d60248201527f45524332303a20696e73756666696369656e7420616c6c6f77616e63650000006044820152606490fd5b6001600160a01b03908116918215610e1c5716918215610dcb57600082815280602052604081205491808310610d775760408282600080516020610ffd833981519152958760209652828652038282205586815220818154019055604051908152a3565b60405162461bcd60e51b815260206004820152602660248201527f45524332303a207472616e7366657220616d6f756e7420657863656564732062604482015265616c616e636560d01b6064820152608490fd5b60405162461bcd60e51b815260206004820152602360248201527f45524332303a207472616e7366657220746f20746865207a65726f206164647260448201526265737360e81b6064820152608490fd5b60405162461bcd60e51b815260206004820152602560248201527f45524332303a207472616e736665722066726f6d20746865207a65726f206164604482015264647265737360d81b6064820152608490fd5b6005546001600160a01b03163303610e8357565b606460405162461bcd60e51b815260206004820152602060248201527f4f776e61626c653a2063616c6c6572206973206e6f7420746865206f776e65726044820152fd5b6001600160a01b03168015610f6d57600091818352826020526040832054818110610f1d5781600080516020610ffd833981519152926020928587528684520360408620558060025403600255604051908152a3565b60405162461bcd60e51b815260206004820152602260248201527f45524332303a206275726e20616d6f756e7420657863656564732062616c616e604482015261636560f01b6064820152608490fd5b60405162461bcd60e51b815260206004820152602160248201527f45524332303a206275726e2066726f6d20746865207a65726f206164647265736044820152607360f81b6064820152608490fdfea66cc928b5edb82af9bd49922954155ab7b0942694bea4ce44661d9a8736c6888be0079c531659141344cd1fd0a4f28419497f9722a3daafe3b4186f6b6457e0ddf252ad1be2c89b69c2b068fc378daa952ba7f163c4a11628f55a4df523b3eff652222313e28459528d920b65115c16c04f3efc82aaedc97be59f3f377c0d3fa26469706673582212203581fec6d17262d5847bd1c2199c28f1e40e3617abd9309c87eeadb340f129ef64736f6c63430008180033",
  "linkReferences": {},
  "deployedLinkReferences": {}
}