{
  "_format": "hh-sol-artifact-1",
  "contractName": "PerpVaultEvmInterface",
  "sourceName": "contracts/PerpVaultEvmInterface.sol",
  "abi": [
    {
      "inputs": [
        {
          "internalType": "string",
          "name": "_initialPerpContractAddress",
          "type": "string"
        },
        {
          "internalType": "uint256",
          "name": "_timelockDelay",
          "type": "uint256"
        }
      ],
      "stateMutability": "nonpayable",
      "type": "constructor"
    },
    {
      "anonymous": false,
      "inputs": [
        {
          "indexed": true,
          "internalType": "address",
          "name": "sender",
          "type": "address"
        },
        {
          "indexed": false,
          "internalType": "uint256",
          "name": "erc20Amount",
          "type": "uint256"
        },
        {
          "indexed": false,
          "internalType": "string",
          "name": "vaultAddress",
          "type": "string"
        },
        {
          "indexed": false,
          "internalType": "string",
          "name": "bankDenom",
          "type": "string"
        },
        {
          "indexed": false,
          "internalType": "address",
          "name": "bankAddress",
          "type": "address"
        }
      ],
      "name": "DepositCollateral",
      "type": "event"
    },
    {
      "anonymous": false,
      "inputs": [
        {
          "indexed": true,
          "internalType": "address",
          "name": "previousOwner",
          "type": "address"
        },
        {
          "indexed": true,
          "internalType": "address",
          "name": "newOwner",
          "type": "address"
        }
      ],
      "name": "OwnershipTransferred",
      "type": "event"
    },
    {
      "anonymous": false,
      "inputs": [
        {
          "indexed": true,
          "internalType": "string",
          "name": "newAddress",
          "type": "string"
        },
        {
          "indexed": false,
          "internalType": "uint256",
          "name": "effectiveTimestamp",
          "type": "uint256"
        }
      ],
      "name": "PerpContractAddressChangeProposed",
      "type": "event"
    },
    {
      "anonymous": false,
      "inputs": [
        {
          "indexed": true,
          "internalType": "string",
          "name": "oldAddress",
          "type": "string"
        },
        {
          "indexed": true,
          "internalType": "string",
          "name": "newAddress",
          "type": "string"
        }
      ],
      "name": "PerpContractAddressChanged",
      "type": "event"
    },
    {
      "inputs": [],
      "name": "PRECISION",
      "outputs": [
        {
          "internalType": "uint256",
          "name": "",
          "type": "uint256"
        }
      ],
      "stateMutability": "view",
      "type": "function"
    },
    {
      "inputs": [
        {
          "internalType": "address",
          "name": "token",
          "type": "address"
        },
        {
          "internalType": "uint256",
          "name": "amount",
          "type": "uint256"
        },
        {
          "internalType": "string",
          "name": "recipient",
          "type": "string"
        }
      ],
      "name": "_performSendToBank",
      "outputs": [
        {
          "internalType": "uint256",
          "name": "",
          "type": "uint256"
        }
      ],
      "stateMutability": "nonpayable",
      "type": "function"
    },
    {
      "inputs": [
        {
          "internalType": "string",
          "name": "denom",
          "type": "string"
        },
        {
          "internalType": "uint256",
          "name": "amount",
          "type": "uint256"
        },
        {
          "internalType": "string",
          "name": "recipient",
          "type": "string"
        }
      ],
      "name": "_performSendToEvm",
      "outputs": [],
      "stateMutability": "nonpayable",
      "type": "function"
    },
    {
      "inputs": [
        {
          "internalType": "string",
          "name": "contractAddress",
          "type": "string"
        },
        {
          "internalType": "bytes",
          "name": "msgExecute",
          "type": "bytes"
        },
        {
          "components": [
            {
              "internalType": "string",
              "name": "denom",
              "type": "string"
            },
            {
              "internalType": "uint256",
              "name": "amount",
              "type": "uint256"
            }
          ],
          "internalType": "struct INibiruEvm.BankCoin[]",
          "name": "funds",
          "type": "tuple[]"
        }
      ],
      "name": "_performWasmExecute",
      "outputs": [
        {
          "internalType": "bytes",
          "name": "result",
          "type": "bytes"
        }
      ],
      "stateMutability": "nonpayable",
      "type": "function"
    },
    {
      "inputs": [],
      "name": "changeEffectiveTimestamp",
      "outputs": [
        {
          "internalType": "uint256",
          "name": "",
          "type": "uint256"
        }
      ],
      "stateMutability": "view",
      "type": "function"
    },
    {
      "inputs": [
        {
          "internalType": "uint256[]",
          "name": "collateralIndices",
          "type": "uint256[]"
        }
      ],
      "name": "claimReferrerRewardsToEvm",
      "outputs": [],
      "stateMutability": "nonpayable",
      "type": "function"
    },
    {
      "inputs": [
        {
          "internalType": "bytes",
          "name": "wasmMsgExecute",
          "type": "bytes"
        },
        {
          "internalType": "uint256",
          "name": "depositAmount",
          "type": "uint256"
        },
        {
          "internalType": "uint256",
          "name": "useErc20Amount",
          "type": "uint256"
        },
        {
          "internalType": "string",
          "name": "_vaultAddress",
          "type": "string"
        },
        {
          "internalType": "address",
          "name": "collateralAddress",
          "type": "address"
        },
        {
          "internalType": "bool",
          "name": "sendSharesToEvm",
          "type": "bool"
        }
      ],
      "name": "deposit",
      "outputs": [],
      "stateMutability": "nonpayable",
      "type": "function"
    },
    {
      "inputs": [],
      "name": "executeNewPerpContractAddress",
      "outputs": [],
      "stateMutability": "nonpayable",
      "type": "function"
    },
    {
      "inputs": [
        {
          "internalType": "bytes",
          "name": "wasmMsgExecute",
          "type": "bytes"
        }
      ],
      "name": "executeSimpleFunctions",
      "outputs": [],
      "stateMutability": "nonpayable",
      "type": "function"
    },
    {
      "inputs": [
        {
          "internalType": "bytes",
          "name": "wasmMsgExecute",
          "type": "bytes"
        },
        {
          "internalType": "string",
          "name": "_vaultAddress",
          "type": "string"
        }
      ],
      "name": "executeVaultSimpleFunctions",
      "outputs": [],
      "stateMutability": "nonpayable",
      "type": "function"
    },
    {
      "inputs": [
        {
          "internalType": "string",
          "name": "_vaultAddress",
          "type": "string"
        }
      ],
      "name": "getCollateralErc20AddressOfVault",
      "outputs": [
        {
          "internalType": "address",
          "name": "collateralAddress",
          "type": "address"
        }
      ],
      "stateMutability": "view",
      "type": "function"
    },
    {
      "inputs": [
        {
          "internalType": "string",
          "name": "userBech32Address",
          "type": "string"
        },
        {
          "internalType": "uint256",
          "name": "tradeId",
          "type": "uint256"
        }
      ],
      "name": "getCollateralIndexOfTrade",
      "outputs": [
        {
          "internalType": "uint256",
          "name": "collateralId",
          "type": "uint256"
        }
      ],
      "stateMutability": "view",
      "type": "function"
    },
    {
      "inputs": [
        {
          "internalType": "uint256",
          "name": "tokenIndex",
          "type": "uint256"
        }
      ],
      "name": "getDenomOfCollateralIndex",
      "outputs": [
        {
          "internalType": "string",
          "name": "denom",
          "type": "string"
        }
      ],
      "stateMutability": "view",
      "type": "function"
    },
    {
      "inputs": [
        {
          "internalType": "string",
          "name": "_vaultAddress",
          "type": "string"
        },
        {
          "internalType": "bytes",
          "name": "wasmMsgExecute",
          "type": "bytes"
        },
        {
          "internalType": "uint256",
          "name": "withdrawAmount",
          "type": "uint256"
        },
        {
          "internalType": "uint256",
          "name": "useErc20Amount",
          "type": "uint256"
        }
      ],
      "name": "makeWithdrawRequest",
      "outputs": [],
      "stateMutability": "nonpayable",
      "type": "function"
    },
    {
      "inputs": [
        {
          "internalType": "bytes",
          "name": "wasmMsgExecute",
          "type": "bytes"
        },
        {
          "internalType": "uint256",
          "name": "collateralIndex",
          "type": "uint256"
        },
        {
          "internalType": "uint256",
          "name": "tradeAmount",
          "type": "uint256"
        },
        {
          "internalType": "uint256",
          "name": "useERC20Amount",
          "type": "uint256"
        }
      ],
      "name": "openTrade",
      "outputs": [],
      "stateMutability": "nonpayable",
      "type": "function"
    },
    {
      "inputs": [],
      "name": "owner",
      "outputs": [
        {
          "internalType": "address",
          "name": "",
          "type": "address"
        }
      ],
      "stateMutability": "view",
      "type": "function"
    },
    {
      "inputs": [],
      "name": "pendingPerpContractAddress",
      "outputs": [
        {
          "internalType": "string",
          "name": "",
          "type": "string"
        }
      ],
      "stateMutability": "view",
      "type": "function"
    },
    {
      "inputs": [],
      "name": "perpContractAddress",
      "outputs": [
        {
          "internalType": "string",
          "name": "",
          "type": "string"
        }
      ],
      "stateMutability": "view",
      "type": "function"
    },
    {
      "inputs": [
        {
          "internalType": "string",
          "name": "_newAddress",
          "type": "string"
        }
      ],
      "name": "proposeNewPerpContractAddress",
      "outputs": [],
      "stateMutability": "nonpayable",
      "type": "function"
    },
    {
      "inputs": [
        {
          "internalType": "bytes",
          "name": "wasmMsgExecute",
          "type": "bytes"
        },
        {
          "internalType": "string",
          "name": "_vaultAddress",
          "type": "string"
        },
        {
          "internalType": "uint256",
          "name": "redeemAmount",
          "type": "uint256"
        },
        {
          "internalType": "bool",
          "name": "sendCollateralToEvm",
          "type": "bool"
        }
      ],
      "name": "redeem",
      "outputs": [],
      "stateMutability": "nonpayable",
      "type": "function"
    },
    {
      "inputs": [],
      "name": "renounceOwnership",
      "outputs": [],
      "stateMutability": "nonpayable",
      "type": "function"
    },
    {
      "inputs": [],
      "name": "timelockDelay",
      "outputs": [
        {
          "internalType": "uint256",
          "name": "",
          "type": "uint256"
        }
      ],
      "stateMutability": "view",
      "type": "function"
    },
    {
      "inputs": [
        {
          "internalType": "address",
          "name": "newOwner",
          "type": "address"
        }
      ],
      "name": "transferOwnership",
      "outputs": [],
      "stateMutability": "nonpayable",
      "type": "function"
    },
    {
      "inputs": [
        {
          "internalType": "uint256",
          "name": "tradeIndex",
          "type": "uint256"
        },
        {
          "internalType": "uint256",
          "name": "newLeverage",
          "type": "uint256"
        },
        {
          "internalType": "uint256",
          "name": "collateralIndex",
          "type": "uint256"
        },
        {
          "internalType": "uint256",
          "name": "collateralAmount",
          "type": "uint256"
        },
        {
          "internalType": "uint256",
          "name": "useErc20Amount",
          "type": "uint256"
        }
      ],
      "name": "updateLeverage",
      "outputs": [],
      "stateMutability": "nonpayable",
      "type": "function"
    },
    {
      "inputs": [
        {
          "internalType": "bytes",
          "name": "wasmMsgUpdateTp",
          "type": "bytes"
        },
        {
          "internalType": "bytes",
          "name": "wasmMsgUpdateSl",
          "type": "bytes"
        },
        {
          "internalType": "uint256",
          "name": "tradeIndex",
          "type": "uint256"
        },
        {
          "internalType": "uint256",
          "name": "newLeverage",
          "type": "uint256"
        },
        {
          "internalType": "uint256",
          "name": "collateralIndex",
          "type": "uint256"
        },
        {
          "internalType": "uint256",
          "name": "collateralAmount",
          "type": "uint256"
        },
        {
          "internalType": "uint256",
          "name": "useErc20Amount",
          "type": "uint256"
        }
      ],
      "name": "updateTpAndLeverage",
      "outputs": [],
      "stateMutability": "nonpayable",
      "type": "function"
    }
  ],
  "bytecode": "0x60806040523480156200001157600080fd5b506040516200444e3803806200444e833981016040819052620000349162000122565b6200003f33620000bc565b6000825111620000955760405162461bcd60e51b815260206004820152601a60248201527f496e697469616c2050657270206164647265737320656d707479000000000000604482015260640160405180910390fd5b6001620000a383826200028c565b506002819055620000b433620000bc565b505062000358565b600080546001600160a01b038381166001600160a01b0319831681178455604051919092169283917f8be0079c531659141344cd1fd0a4f28419497f9722a3daafe3b4186f6b6457e09190a35050565b634e487b7160e01b600052604160045260246000fd5b600080604083850312156200013657600080fd5b82516001600160401b03808211156200014e57600080fd5b818501915085601f8301126200016357600080fd5b8151818111156200017857620001786200010c565b604051601f8201601f19908116603f01168101908382118183101715620001a357620001a36200010c565b81604052828152602093508884848701011115620001c057600080fd5b600091505b82821015620001e45784820184015181830185015290830190620001c5565b6000928101840192909252509401519395939450505050565b600181811c908216806200021257607f821691505b6020821081036200023357634e487b7160e01b600052602260045260246000fd5b50919050565b601f8211156200028757600081815260208120601f850160051c81016020861015620002625750805b601f850160051c820191505b8181101562000283578281556001016200026e565b5050505b505050565b81516001600160401b03811115620002a857620002a86200010c565b620002c081620002b98454620001fd565b8462000239565b602080601f831160018114620002f85760008415620002df5750858301515b600019600386901b1c1916600185901b17855562000283565b600085815260208120601f198616915b82811015620003295788860151825594840194600190910190840162000308565b5085821015620003485787850151600019600388901b60f8161c191681555b5050505050600190811b01905550565b6140e680620003686000396000f3fe608060405234801561001057600080fd5b50600436106101735760003560e01c80638da5cb5b116100de578063c4c20ffa11610097578063de4d330211610071578063de4d33021461031b578063eef09bad14610323578063f2fde38b1461032c578063f3b66cae1461033f57600080fd5b8063c4c20ffa146102e2578063d1ffd122146102f5578063d4d281ac1461030857600080fd5b80638da5cb5b1461027657806394eaae3f14610287578063aaf5eb681461029a578063b102a991146102a9578063b29da1c3146102bc578063b52196d1146102cf57600080fd5b806367898e8d1161013057806367898e8d146102245780636dc9838d14610237578063715018a6146102405780637cb0d58f1461024857806380145d2a1461025b5780638517c7821461026e57600080fd5b8063095aa6d0146101785780631d1882a11461018d57806326794039146101a057806346ad64e7146101c65780634b9b0817146101e6578063629b2af414610211575b600080fd5b61018b610186366004613087565b610347565b005b61018b61019b3660046130c3565b610474565b6101b36101ae366004613136565b61070b565b6040519081526020015b60405180910390f35b6101d96101d436600461319d565b610c1f565b6040516101bd9190613322565b6101f96101f4366004613087565b610cbc565b6040516001600160a01b0390911681526020016101bd565b61018b61021f36600461334a565b610e30565b61018b6102323660046133c7565b6110dd565b6101b360045481565b61018b611261565b61018b610256366004613456565b611275565b61018b6102693660046134fb565b6116f6565b6101d9611ae5565b6000546001600160a01b03166101f9565b61018b610295366004613593565b611b73565b6101b3670de0b6b3a764000081565b6101d96102b73660046135e6565b611e2e565b61018b6102ca3660046135ff565b6121bb565b6101b36102dd36600461363a565b6121c8565b61018b6102f0366004613692565b61225a565b61018b6103033660046136f5565b6122ac565b61018b610316366004613087565b61231b565b6101d9612371565b6101b360025481565b61018b61033a366004613757565b61237e565b61018b6123f7565b61034f6125b4565b600081511161039e5760405162461bcd60e51b81526020600482015260166024820152754e65772050657270206164647265737320656d70747960501b60448201526064015b60405180910390fd5b60016040516103ad9190613821565b604051809103902081805190602001200361040a5760405162461bcd60e51b815260206004820152601e60248201527f4e657720616464726573732069732073616d652061732063757272656e7400006044820152606401610395565b6003610416828261387b565b506002546104249042613950565b600455604051610435908290613963565b6040519081900381206004548252907f9d1ccaf2d14e8f17c3fb8666695f960660740c5bac31a61105feebd7ee3a71419060200160405180910390a250565b600082116104c45760405162461bcd60e51b815260206004820152601b60248201527f576974686472617720616d6f756e74206d757374206265203e203000000000006044820152606401610395565b604080518082018252601c81527f7b226765745f7661756c745f73686172655f64656e6f6d223a7b7d7d00000000602082015290516306d81d2960e01b815260009161056c91610802916306d81d2991610522918a9160040161397f565b600060405180830381865afa15801561053f573d6000803e3d6000fd5b505050506040513d6000823e601f3d908101601f1916820160405261056791908101906139d4565b61260e565b905061058960408051808201909152600081526060602082015290565b604051639090147560e01b8152600090610800906390901475906105b1908690600401613322565b602060405180830381865afa1580156105ce573d6000803e3d6000fd5b505050506040513d601f19601f820116820180604052508101906105f29190613a1c565b9050831561068157610800637d2a8b4e61060d33601461276f565b6040518263ffffffff1660e01b81526004016106299190613322565b600060405180830381865afa158015610646573d6000803e3d6000fd5b505050506040513d6000823e601f3d908101601f1916820160405261066e9190810190613aa7565b915061067f818584602001516121c8565b505b604080516001808252818301909252600091816020015b604080518082019091526060815260006020820152815260200190600190039081610698579050509050604051806040016040528085815260200187815250816000815181106106ea576106ea613adb565b6020026020010181905250610700888883610c1f565b505050505050505050565b600080836107188461290a565b604051602001610729929190613af1565b60408051601f19818403018152908290526306d81d2960e01b82529150600090610802906306d81d2990610764906001908690600401613b94565b600060405180830381865afa158015610781573d6000803e3d6000fd5b505050506040513d6000823e601f3d908101601f191682016040526107a991908101906139d4565b905060008151116108155760405162461bcd60e51b815260206004820152603060248201527f5761736d2071756572792072657475726e656420656d70747920726573706f6e60448201526f736520666f72206765745f747261646560801b6064820152608401610395565b60408051808201909152601f8082527f22636f6c6c61746572616c5f696e646578223a22546f6b656e496e64657828006020830152825183929160009182911161091d5760005b8351855161086a9190613c2a565b811161091b57600160005b85518110156108e95785818151811061089057610890613adb565b01602001516001600160f81b031916876108aa8386613950565b815181106108ba576108ba613adb565b01602001516001600160f81b031916146108d757600091506108e9565b806108e181613c3d565b915050610875565b5080156109085784516108fc9083613950565b9350600192505061091b565b508061091381613c3d565b91505061085c565b505b806109a75760405162461bcd60e51b815260206004820152604e60248201527f436f6c6c61746572616c20696e646578206b657920282722636f6c6c6174657260448201527f616c5f696e646578223a22546f6b656e496e646578282729206e6f7420666f7560648201526d6e6420696e20726573706f6e736560901b608482015260a401610395565b815b8451811080156109e75750600360fc1b6001600160f81b0319168582815181106109d5576109d5613adb565b01602001516001600160f81b03191610155b8015610a215750603960f81b6001600160f81b031916858281518110610a0f57610a0f613adb565b01602001516001600160f81b03191611155b15610a385780610a3081613c3d565b9150506109a9565b828111610a875760405162461bcd60e51b815260206004820152601f60248201527f436f6c6c61746572616c20696e6465782076616c756520697320656d707479006044820152606401610395565b845181108015610ac45750602960f81b6001600160f81b031916858281518110610ab357610ab3613adb565b01602001516001600160f81b031916145b610b475760405162461bcd60e51b815260206004820152604860248201527f436f6c6c61746572616c20696e6465782076616c7565206d616c666f726d656460448201527f20286d697373696e6720272927206f72206e6f6e2d6e756d6572696320636861606482015267726163746572732960c01b608482015260a401610395565b6000610b538483613c2a565b6001600160401b03811115610b6a57610b6a612f9c565b6040519080825280601f01601f191660200182016040528015610b94576020820181803683370190505b50905060005b8151811015610c045786610bae8287613950565b81518110610bbe57610bbe613adb565b602001015160f81c60f81b828281518110610bdb57610bdb613adb565b60200101906001600160f81b031916908160001a90535080610bfc81613c3d565b915050610b9a565b50610c0e8161299c565b985050505050505050505b92915050565b6060610cb26108026361ffaee460e01b868686604051602401610c4493929190613c56565b604051602081830303815290604052906001600160e01b0319166020820180516001600160e01b0383818316178352505050506040518060400160405280601881526020017f5761736d2065786563757465206661696c656420746573740000000000000000815250612b3b565b90505b9392505050565b6000806108026001600160a01b03166306d81d2984604051602001610d04907f7b226765745f636f6c6c61746572616c5f64656e6f6d223a7b7d7d00000000008152601b0190565b6040516020818303038152906040526040518363ffffffff1660e01b8152600401610d3092919061397f565b600060405180830381865afa158015610d4d573d6000803e3d6000fd5b505050506040513d6000823e601f3d908101601f19168201604052610d7591908101906139d4565b90508051600003610dbe5760405162461bcd60e51b815260206004820152601360248201527242616e6b2064656e6f6d20697320656d70747960681b6044820152606401610395565b610dc78161260e565b604051639090147560e01b815290915061080090639090147590610def908490600401613322565b602060405180830381865afa158015610e0c573d6000803e3d6000fd5b505050506040513d601f19601f82011682018060405250810190610cb59190613a1c565b60008211610e805760405162461bcd60e51b815260206004820152601960248201527f52656465656d20616d6f756e74206d757374206265203e2030000000000000006044820152606401610395565b6040805160008082526020820190925281610ebe565b604080518082019091526060815260006020820152815260200190600190039081610e965790505b509050610ecc848683610c1f565b5081156110d657604080518082018252601b81527f7b226765745f636f6c6c61746572616c5f64656e6f6d223a7b7d7d0000000000602082015290516306d81d2960e01b8152600091610f3191610802916306d81d2991610522918a9160040161397f565b90506000610f5060408051808201909152600081526060602082015290565b610800637d2a8b4e610f6333601461276f565b6040518263ffffffff1660e01b8152600401610f7f9190613322565b600060405180830381865afa158015610f9c573d6000803e3d6000fd5b505050506040513d6000823e601f3d908101601f19168201604052610fc49190810190613aa7565b805160405163a22c297f60e01b81529192506108009163a22c297f91610fee918790600401613cf2565b600060405180830381865afa15801561100b573d6000803e3d6000fd5b505050506040513d6000823e601f3d908101601f191682016040526110339190810190613d16565b50815160405163a22c297f60e01b81529193506000916108009163a22c297f9161106291908890600401613cf2565b600060405180830381865afa15801561107f573d6000803e3d6000fd5b505050506040513d6000823e601f3d908101601f191682016040526110a79190810190613d16565b509050828111156107005760006110be8483613c2a565b90506110d0858261030333601461276f565b50505050505b5050505050565b604080516000808252602082019092528161111b565b6040805180820190915260608152600060208201528152602001906001900390816110f35790505b5090506111b36001805461112e90613774565b80601f016020809104026020016040519081016040528092919081815260200182805461115a90613774565b80156111a75780601f1061117c576101008083540402835291602001916111a7565b820191906000526020600020905b81548152906001019060200180831161118a57829003601f168201915b50505050508983610c1f565b50611249600180546111c490613774565b80601f01602080910402602001604051908101604052809291908181526020018280546111f090613774565b801561123d5780601f106112125761010080835404028352916020019161123d565b820191906000526020600020905b81548152906001019060200180831161122057829003601f168201915b50505050508883610c1f565b506112578686868686612bd6565b5050505050505050565b6112696125b4565b6112736000612e74565b565b60008151116112be5760405162461bcd60e51b81526020600482015260156024820152744e6f20636f6c6c61746572616c20696e646963657360581b6044820152606401610395565b60006112cb33601461276f565b604051633e9545a760e11b815290915060009061080090637d2a8b4e906112f6908590600401613322565b600060405180830381865afa158015611313573d6000803e3d6000fd5b505050506040513d6000823e601f3d908101601f1916820160405261133b9190810190613aa7565b83519091506000816001600160401b0381111561135a5761135a612f9c565b60405190808252806020026020018201604052801561138d57816020015b60608152602001906001900390816113785790505b5090506000826001600160401b038111156113aa576113aa612f9c565b6040519080825280602002602001820160405280156113d3578160200160208202803683370190505b50905060005b838110156114c35760006114058883815181106113f8576113f8613adb565b6020026020010151611e2e565b90508084838151811061141a5761141a613adb565b6020908102919091010152855160405163a22c297f60e01b81526108009163a22c297f9161144d91908590600401613cf2565b600060405180830381865afa15801561146a573d6000803e3d6000fd5b505050506040513d6000823e601f3d908101601f191682016040526114929190810190613d16565b508383815181106114a5576114a5613adb565b602090810291909101015250806114bb81613c3d565b9150506113d9565b50604080518082018252601a81527f7b22636c61696d5f72656665727265725f66656573223a7b7d7d00000000000060208083019190915282516000808252918101909352909181611538565b6040805180820190915260608152600060208201528152602001906001900390816115105790505b5090506115d06001805461154b90613774565b80601f016020809104026020016040519081016040528092919081815260200182805461157790613774565b80156115c45780601f10611599576101008083540402835291602001916115c4565b820191906000526020600020905b8154815290600101906020018083116115a757829003601f168201915b50505050508383610c1f565b5060005b858110156107005760006108006001600160a01b031663a22c297f896000015188858151811061160657611606613adb565b60200260200101516040518363ffffffff1660e01b815260040161162b929190613cf2565b600060405180830381865afa158015611648573d6000803e3d6000fd5b505050506040513d6000823e601f3d908101601f191682016040526116709190810190613d16565b50905084828151811061168557611685613adb565b60200260200101518111156116e35760008583815181106116a8576116a8613adb565b6020026020010151826116bb9190613c2a565b90506116e18784815181106116d2576116d2613adb565b6020026020010151828c6122ac565b505b50806116ee81613c3d565b9150506115d4565b600085116117575760405162461bcd60e51b815260206004820152602860248201527f4465706f73697420616d6f756e74206d7573742062652067726561746572207460448201526768616e207a65726f60c01b6064820152608401610395565b6060600061177660408051808201909152600081526060602082015290565b83806117825750600087115b156117fe57610800637d2a8b4e61179a33601461276f565b6040518263ffffffff1660e01b81526004016117b69190613322565b600060405180830381865afa1580156117d3573d6000803e3d6000fd5b505050506040513d6000823e601f3d908101601f191682016040526117fb9190810190613aa7565b90505b83156118d357604080518082018252601c81527f7b226765745f7661756c745f73686172655f64656e6f6d223a7b7d7d00000000602082015290516306d81d2960e01b815261186091610802916306d81d2991610522918b919060040161397f565b815160405163a22c297f60e01b81529194506108009163a22c297f9161188a918790600401613cf2565b600060405180830381865afa1580156118a7573d6000803e3d6000fd5b505050506040513d6000823e601f3d908101601f191682016040526118cf9190810190613d16565b5091505b60405163b203bb9960e01b81523360048201526001600160a01b03861660248201526000906108009063b203bb9990604401600060405180830381865afa158015611922573d6000803e3d6000fd5b505050506040513d6000823e601f3d908101601f1916820160405261194a9190810190613d52565b509250508815905061196757611965868984602001516121c8565b505b604080516001808252818301909252600091816020015b60408051808201909152606081526000602082015281526020019060019003908161197e5790505090506040518060400160405280836020015181526020018b815250816000815181106119d4576119d4613adb565b60200260200101819052506119ea888c83610c1f565b508515611a8d57825160405163a22c297f60e01b81526000916108009163a22c297f91611a1b918a90600401613cf2565b600060405180830381865afa158015611a38573d6000803e3d6000fd5b505050506040513d6000823e601f3d908101601f19168201604052611a609190810190613d16565b50905084811115611a8b576000611a778683613c2a565b9050611a89878261030333601461276f565b505b505b336001600160a01b03167fd7833d9666d640112b219721cba43cefddb7490a6d86a2d1d7f6a029b700584d8a8a85602001518b604051611ad09493929190613dc8565b60405180910390a25050505050505050505050565b60018054611af290613774565b80601f0160208091040260200160405190810160405280929190818152602001828054611b1e90613774565b8015611b6b5780601f10611b4057610100808354040283529160200191611b6b565b820191906000526020600020905b815481529060010190602001808311611b4e57829003601f168201915b505050505081565b60006108006390901475611b8686611e2e565b6040518263ffffffff1660e01b8152600401611ba29190613322565b602060405180830381865afa158015611bbf573d6000803e3d6000fd5b505050506040513d601f19601f82011682018060405250810190611be39190613a1c565b905060008311611c355760405162461bcd60e51b815260206004820152601d60248201527f436f6c6c61746572616c20616d6f756e74206d757374206265203e20300000006044820152606401610395565b8115611cc5576000610800637d2a8b4e611c5033601461276f565b6040518263ffffffff1660e01b8152600401611c6c9190613322565b600060405180830381865afa158015611c89573d6000803e3d6000fd5b505050506040513d6000823e601f3d908101601f19168201604052611cb19190810190613aa7565b9050611cc2828483602001516121c8565b50505b60405163b203bb9960e01b81523360048201526001600160a01b038216602482015260009081906108009063b203bb9990604401600060405180830381865afa158015611d16573d6000803e3d6000fd5b505050506040513d6000823e601f3d908101601f19168201604052611d3e9190810190613d52565b50925092505084821015611da65760405162461bcd60e51b815260206004820152602960248201527f547261646520616d6f756e74206578636565647320617661696c61626c6520636044820152681bdb1b185d195c985b60ba1b6064820152608401610395565b604080516001808252818301909252600091816020015b604080518082019091526060815260006020820152815260200190600190039081611dbd5790505090506040518060400160405280836020015181526020018781525081600081518110611e1357611e13613adb565b60200260200101819052506107006001805461112e90613774565b606060006108026306d81d296001611e458661290a565b604051602001611e559190613e0d565b6040516020818303038152906040526040518363ffffffff1660e01b8152600401611e81929190613b94565b600060405180830381865afa158015611e9e573d6000803e3d6000fd5b505050506040513d6000823e601f3d908101601f19168201604052611ec691908101906139d4565b90508051600003611f0d5760405162461bcd60e51b8152602060048201526011602482015270526573706f6e736520697320656d70747960781b6044820152606401610395565b60408051808201909152600980825268113232b737b6911d1160b91b60208301528251839260009290918391116120025760005b82518551611f4f9190613c2a565b811161200057600160005b8451811015611fce57848181518110611f7557611f75613adb565b01602001516001600160f81b03191687611f8f8386613950565b81518110611f9f57611f9f613adb565b01602001516001600160f81b03191614611fbc5760009150611fce565b80611fc681613c3d565b915050611f5a565b508015611fed578351611fe19083613950565b94506001925050612000565b5080611ff881613c3d565b915050611f41565b505b806120475760405162461bcd60e51b815260206004820152601560248201527411195b9bdb48199a595b19081b9bdd08199bdd5b99605a1b6044820152606401610395565b825b84518110801561207e575084818151811061206657612066613adb565b6020910101516001600160f81b031916601160f91b14155b15612095578061208d81613c3d565b915050612049565b845181106120f15760405162461bcd60e51b815260206004820152602360248201527f44656e6f6d2076616c756520636c6f73696e672071756f7465206e6f7420666f6044820152621d5b9960ea1b6064820152608401610395565b60006120fd8583613c2a565b6001600160401b0381111561211457612114612f9c565b6040519080825280601f01601f19166020018201604052801561213e576020820181803683370190505b50905060005b81518110156121ae57866121588288613950565b8151811061216857612168613adb565b602001015160f81c60f81b82828151811061218557612185613adb565b60200101906001600160f81b031916908160001a905350806121a681613c3d565b915050612144565b5098975050505050505050565b6110d68585858585612bd6565b60008061223b6108008686866040516024016121e693929190613e5e565b60408051601f19818403018152918152602080830180516001600160e01b031663e77a47bf60e01b179052815180830190925260118252701cd95b99151bd0985b9ac819985a5b1959607a1b90820152612b3b565b9050808060200190518101906122519190613e85565b95945050505050565b6040805160008082526020820190925281612298565b6040805180820190915260608152600060208201528152602001906001900390816122705790505b5090506122a6828483610c1f565b50505050565b6122a66108008484846040516024016122c793929190613e9e565b60408051601f19818403018152918152602080830180516001600160e01b0316632e107aa960e01b1790528151808301909252601082526f1cd95b99151bd15d9b4819985a5b195960821b90820152612b3b565b6040805160008082526020820190925281612359565b6040805180820190915260608152600060208201528152602001906001900390816123315790505b50905061236c6001805461154b90613774565b505050565b60038054611af290613774565b6123866125b4565b6001600160a01b0381166123eb5760405162461bcd60e51b815260206004820152602660248201527f4f776e61626c653a206e6577206f776e657220697320746865207a65726f206160448201526564647265737360d01b6064820152608401610395565b6123f481612e74565b50565b6123ff6125b4565b60006003805461240e90613774565b9050116124515760405162461bcd60e51b81526020600482015260116024820152704e6f2070656e64696e67206368616e676560781b6044820152606401610395565b60045442101561249a5760405162461bcd60e51b8152602060048201526014602482015273151a5b595b1bd8dac81b9bdd08195e1c1a5c995960621b6044820152606401610395565b6000600180546124a990613774565b80601f01602080910402602001604051908101604052809291908181526020018280546124d590613774565b80156125225780601f106124f757610100808354040283529160200191612522565b820191906000526020600020905b81548152906001019060200180831161250557829003601f168201915b505050505090506003600190816125399190613ed3565b50604080516020810190915260008152600390612556908261387b565b50600060045560405161256b90600190613821565b6040518091039020816040516125819190613963565b604051908190038120907f27d1364fede851f89414532fa472a0cac0a7a12625d5dda0eb7979a04ca380a090600090a350565b6000546001600160a01b031633146112735760405162461bcd60e51b815260206004820181905260248201527f4f776e61626c653a2063616c6c6572206973206e6f7420746865206f776e65726044820152606401610395565b60606000829050600281511015801561264c57508060008151811061263557612635613adb565b6020910101516001600160f81b031916601160f91b145b8015612689575080600182516126629190613c2a565b8151811061267257612672613adb565b6020910101516001600160f81b031916601160f91b145b156127685760006002825161269e9190613c2a565b6001600160401b038111156126b5576126b5612f9c565b6040519080825280601f01601f1916602001820160405280156126df576020820181803683370190505b50905060015b600183516126f39190613c2a565b8110156127605782818151811061270c5761270c613adb565b01602001516001600160f81b03191682612727600184613c2a565b8151811061273757612737613adb565b60200101906001600160f81b031916908160001a9053508061275881613c3d565b9150506126e5565b509392505050565b5090919050565b6060600061277e836002613fa5565b612789906002613950565b6001600160401b038111156127a0576127a0612f9c565b6040519080825280601f01601f1916602001820160405280156127ca576020820181803683370190505b509050600360fc1b816000815181106127e5576127e5613adb565b60200101906001600160f81b031916908160001a905350600f60fb1b8160018151811061281457612814613adb565b60200101906001600160f81b031916908160001a9053506000612838846002613fa5565b612843906001613950565b90505b60018111156128bb576f181899199a1a9b1b9c1cb0b131b232b360811b85600f166010811061287757612877613adb565b1a60f81b82828151811061288d5761288d613adb565b60200101906001600160f81b031916908160001a90535060049490941c936128b481613fbc565b9050612846565b508315610cb55760405162461bcd60e51b815260206004820181905260248201527f537472696e67733a20686578206c656e67746820696e73756666696369656e746044820152606401610395565b6060600061291783612ec4565b60010190506000816001600160401b0381111561293657612936612f9c565b6040519080825280601f01601f191660200182016040528015612960576020820181803683370190505b5090508181016020015b600019016f181899199a1a9b1b9c1cb0b131b232b360811b600a86061a8153600a850494508461296a57509392505050565b805160009082906129ef5760405162461bcd60e51b815260206004820152601d60248201527f737472696e67546f55696e743a20537472696e6720697320656d7074790000006044820152606401610395565b6000915060005b8151811015612b34576000828281518110612a1357612a13613adb565b016020015160f81c905060308110801590612a32575060398160ff1611155b612a8e5760405162461bcd60e51b815260206004820152602760248201527f737472696e67546f55696e743a204e6f6e2d64696769742063686172616374656044820152661c88199bdd5b9960ca1b6064820152608401610395565b6000612a9b603083613fd3565b60ff169050600a612aae82600019613c2a565b612ab89190613fec565b851115612b075760405162461bcd60e51b815260206004820152601e60248201527f737472696e67546f55696e743a20496e7465676572206f766572666c6f7700006044820152606401610395565b80612b1386600a613fa5565b612b1d9190613950565b945050508080612b2c90613c3d565b9150506129f6565b5050919050565b6060600080856001600160a01b031685604051612b589190613963565b600060405180830381855af49150503d8060008114612b93576040519150601f19603f3d011682016040523d82523d6000602084013e612b98565b606091505b50915091508115612bac579150610cb59050565b805115612bbc5780518060208301fd5b8360405162461bcd60e51b81526004016103959190613322565b60006108006390901475612be986611e2e565b6040518263ffffffff1660e01b8152600401612c059190613322565b602060405180830381865afa158015612c22573d6000803e3d6000fd5b505050506040513d601f19601f82011682018060405250810190612c469190613a1c565b90508115612cd8576000610800637d2a8b4e612c6333601461276f565b6040518263ffffffff1660e01b8152600401612c7f9190613322565b600060405180830381865afa158015612c9c573d6000803e3d6000fd5b505050506040513d6000823e601f3d908101601f19168201604052612cc49190810190613aa7565b9050612cd5828483602001516121c8565b50505b6000612ce38761290a565b612cec8761290a565b604051602001612cfd92919061400e565b60408051601f19818403018152919052905060608415612e225760405163b203bb9960e01b81523360048201526001600160a01b03841660248201526000906108009063b203bb9990604401600060405180830381865afa158015612d66573d6000803e3d6000fd5b505050506040513d6000823e601f3d908101601f19168201604052612d8e9190810190613d52565b50925060019150612d9c9050565b604051908082528060200260200182016040528015612de257816020015b604080518082019091526060815260006020820152815260200190600190039081612dba5790505b5091506040518060400160405280826020015181526020018781525082600081518110612e1157612e11613adb565b602002602001018190525050612e64565b6040805160008082526020820190925290612e60565b604080518082019091526060815260006020820152815260200190600190039081612e385790505b5090505b6107006001805461154b90613774565b600080546001600160a01b038381166001600160a01b0319831681178455604051919092169283917f8be0079c531659141344cd1fd0a4f28419497f9722a3daafe3b4186f6b6457e09190a35050565b60008072184f03e93ff9f4daa797ed6e38ed64bf6a1f0160401b8310612f035772184f03e93ff9f4daa797ed6e38ed64bf6a1f0160401b830492506040015b6d04ee2d6d415b85acef81000000008310612f2f576d04ee2d6d415b85acef8100000000830492506020015b662386f26fc100008310612f4d57662386f26fc10000830492506010015b6305f5e1008310612f65576305f5e100830492506008015b6127108310612f7957612710830492506004015b60648310612f8b576064830492506002015b600a8310610c195760010192915050565b634e487b7160e01b600052604160045260246000fd5b604080519081016001600160401b0381118282101715612fd457612fd4612f9c565b60405290565b604051601f8201601f191681016001600160401b038111828210171561300257613002612f9c565b604052919050565b60006001600160401b0382111561302357613023612f9c565b50601f01601f191660200190565b600082601f83011261304257600080fd5b81356130556130508261300a565b612fda565b81815284602083860101111561306a57600080fd5b816020850160208301376000918101602001919091529392505050565b60006020828403121561309957600080fd5b81356001600160401b038111156130af57600080fd5b6130bb84828501613031565b949350505050565b600080600080608085870312156130d957600080fd5b84356001600160401b03808211156130f057600080fd5b6130fc88838901613031565b9550602087013591508082111561311257600080fd5b5061311f87828801613031565b949794965050505060408301359260600135919050565b6000806040838503121561314957600080fd5b82356001600160401b0381111561315f57600080fd5b61316b85828601613031565b95602094909401359450505050565b60006001600160401b0382111561319357613193612f9c565b5060051b60200190565b6000806000606084860312156131b257600080fd5b83356001600160401b03808211156131c957600080fd5b6131d587838801613031565b94506020915081860135818111156131ec57600080fd5b6131f888828901613031565b94505060408601358181111561320d57600080fd5b8601601f8101881361321e57600080fd5b803561322c6130508261317a565b81815260059190911b8201840190848101908a83111561324b57600080fd5b8584015b838110156132c1578035868111156132675760008081fd5b85016040818e03601f1901121561327e5760008081fd5b613286612fb2565b88820135888111156132985760008081fd5b6132a68f8b83860101613031565b8252506040919091013588820152835291860191860161324f565b508096505050505050509250925092565b60005b838110156132ed5781810151838201526020016132d5565b50506000910152565b6000815180845261330e8160208601602086016132d2565b601f01601f19169290920160200192915050565b602081526000610cb560208301846132f6565b8035801515811461334557600080fd5b919050565b6000806000806080858703121561336057600080fd5b84356001600160401b038082111561337757600080fd5b61338388838901613031565b9550602087013591508082111561339957600080fd5b506133a687828801613031565b935050604085013591506133bc60608601613335565b905092959194509250565b600080600080600080600060e0888a0312156133e257600080fd5b87356001600160401b03808211156133f957600080fd5b6134058b838c01613031565b985060208a013591508082111561341b57600080fd5b506134288a828b01613031565b979a9799505050506040860135956060810135956080820135955060a0820135945060c09091013592509050565b6000602080838503121561346957600080fd5b82356001600160401b0381111561347f57600080fd5b8301601f8101851361349057600080fd5b803561349e6130508261317a565b81815260059190911b820183019083810190878311156134bd57600080fd5b928401925b828410156134db578335825292840192908401906134c2565b979650505050505050565b6001600160a01b03811681146123f457600080fd5b60008060008060008060c0878903121561351457600080fd5b86356001600160401b038082111561352b57600080fd5b6135378a838b01613031565b97506020890135965060408901359550606089013591508082111561355b57600080fd5b5061356889828a01613031565b9350506080870135613579816134e6565b915061358760a08801613335565b90509295509295509295565b600080600080608085870312156135a957600080fd5b84356001600160401b038111156135bf57600080fd5b6135cb87828801613031565b97602087013597506040870135966060013595509350505050565b6000602082840312156135f857600080fd5b5035919050565b600080600080600060a0868803121561361757600080fd5b505083359560208501359550604085013594606081013594506080013592509050565b60008060006060848603121561364f57600080fd5b833561365a816134e6565b92506020840135915060408401356001600160401b0381111561367c57600080fd5b61368886828701613031565b9150509250925092565b600080604083850312156136a557600080fd5b82356001600160401b03808211156136bc57600080fd5b6136c886838701613031565b935060208501359150808211156136de57600080fd5b506136eb85828601613031565b9150509250929050565b60008060006060848603121561370a57600080fd5b83356001600160401b038082111561372157600080fd5b61372d87838801613031565b945060208601359350604086013591508082111561374a57600080fd5b5061368886828701613031565b60006020828403121561376957600080fd5b8135610cb5816134e6565b600181811c9082168061378857607f821691505b6020821081036137a857634e487b7160e01b600052602260045260246000fd5b50919050565b600081546137bb81613774565b600182811680156137d357600181146137e857613817565b60ff1984168752821515830287019450613817565b8560005260208060002060005b8581101561380e5781548a8201529084019082016137f5565b50505082870194505b5050505092915050565b6000610cb582846137ae565b601f82111561236c57600081815260208120601f850160051c810160208610156138545750805b601f850160051c820191505b8181101561387357828155600101613860565b505050505050565b81516001600160401b0381111561389457613894612f9c565b6138a8816138a28454613774565b8461382d565b602080601f8311600181146138dd57600084156138c55750858301515b600019600386901b1c1916600185901b178555613873565b600085815260208120601f198616915b8281101561390c578886015182559484019460019091019084016138ed565b508582101561392a5787850151600019600388901b60f8161c191681555b5050505050600190811b01905550565b634e487b7160e01b600052601160045260246000fd5b80820180821115610c1957610c1961393a565b600082516139758184602087016132d2565b9190910192915050565b60408152600061399260408301856132f6565b828103602084015261225181856132f6565b60006139b26130508461300a565b90508281528383830111156139c657600080fd5b610cb58360208301846132d2565b6000602082840312156139e657600080fd5b81516001600160401b038111156139fc57600080fd5b8201601f81018413613a0d57600080fd5b6130bb848251602084016139a4565b600060208284031215613a2e57600080fd5b8151610cb5816134e6565b600060408284031215613a4b57600080fd5b613a53612fb2565b90508151613a60816134e6565b815260208201516001600160401b03811115613a7b57600080fd5b8201601f81018413613a8c57600080fd5b613a9b848251602084016139a4565b60208301525092915050565b600060208284031215613ab957600080fd5b81516001600160401b03811115613acf57600080fd5b6130bb84828501613a39565b634e487b7160e01b600052603260045260246000fd5b7f7b226765745f7472616465223a7b226e69626931676332346c7437347365733981527f73776b7136673763756734653579373270376533346a7167756c223a22000000602082015260008351613b4f81603d8501602088016132d2565b6911161134b73232bc111d60b11b603d918401918201528351613b798160478401602088016132d2565b617d7d60f01b60479290910191820152604901949350505050565b604081526000808454613ba681613774565b8060408601526060600180841660008114613bc85760018114613be257613c13565b60ff1985168884015283151560051b880183019550613c13565b8960005260208060002060005b86811015613c0a5781548b8201870152908401908201613bef565b8a018501975050505b5050505050828103602084015261225181856132f6565b81810381811115610c1957610c1961393a565b600060018201613c4f57613c4f61393a565b5060010190565b606081526000613c6960608301866132f6565b602083820381850152613c7c82876132f6565b91506040848303818601528286518085528385019150838160051b86010184890160005b83811015613ce157878303601f1901855281518051878552613cc4888601826132f6565b918901519489019490945294870194925090860190600101613ca0565b50909b9a5050505050505050505050565b6001600160a01b0383168152604060208201819052600090610cb2908301846132f6565b60008060408385031215613d2957600080fd5b8251915060208301516001600160401b03811115613d4657600080fd5b6136eb85828601613a39565b60008060008060808587031215613d6857600080fd5b845193506020850151925060408501516001600160401b0380821115613d8d57600080fd5b613d9988838901613a39565b93506060870151915080821115613daf57600080fd5b50613dbc87828801613a39565b91505092959194509250565b848152608060208201526000613de160808301866132f6565b8281036040840152613df381866132f6565b91505060018060a01b038316606083015295945050505050565b7f7b226765745f636f6c6c61746572616c223a7b22696e646578223a0000000000815260008251613e4581601b8501602087016132d2565b617d7d60f01b601b939091019283015250601d01919050565b60018060a01b038416815282602082015260606040820152600061225160608301846132f6565b600060208284031215613e9757600080fd5b5051919050565b606081526000613eb160608301866132f6565b8460208401528281036040840152613ec981856132f6565b9695505050505050565b818103613ede575050565b613ee88254613774565b6001600160401b03811115613eff57613eff612f9c565b613f0d816138a28454613774565b6000601f821160018114613f415760008315613f295750848201545b600019600385901b1c1916600184901b1784556110d6565b600085815260209020601f19841690600086815260209020845b83811015613f7b5782860154825560019586019590910190602001613f5b565b508583101561392a5793015460001960f8600387901b161c19169092555050600190811b01905550565b8082028115828204841417610c1957610c1961393a565b600081613fcb57613fcb61393a565b506000190190565b60ff8281168282160390811115610c1957610c1961393a565b60008261400957634e487b7160e01b600052601260045260246000fd5b500490565b7f7b227570646174655f6c65766572616765223a7b2274726164655f696e6465788152710447444aae6cae4a8e4c2c8ca92dcc8caf0560731b6020820152600083516140618160328501602088016132d2565b72149116113732bbafb632bb32b930b3b2911d1160691b60329184019182015283516140948160458401602088016132d2565b62227d7d60e81b6045929091019182015260480194935050505056fea2646970667358221220b7cae64dcfe69e12cbea24f248115a020172b5fd3df3ac979bd147a10dd6a5be64736f6c63430008130033",
  "linkReferences": {},
  "deployedLinkReferences": {}
}