{
  "_format": "hh-sol-artifact-1",
  "contractName": "TestNativeSendThenPrecompileSend",
  "sourceName": "contracts/TestNativeSendThenPrecompileSend.sol",
  "abi": [
    {
      "inputs": [
        {
          "internalType": "address",
          "name": "erc20_",
          "type": "address"
        }
      ],
      "stateMutability": "nonpayable",
      "type": "constructor"
    },
    {
      "inputs": [
        {
          "internalType": "string",
          "name": "precompileRecipient",
          "type": "string"
        },
        {
          "internalType": "uint256",
          "name": "precompileAmount",
          "type": "uint256"
        }
      ],
      "name": "justPrecompileSend",
      "outputs": [],
      "stateMutability": "nonpayable",
      "type": "function"
    },
    {
      "inputs": [
        {
          "internalType": "address payable",
          "name": "nativeRecipient",
          "type": "address"
        },
        {
          "internalType": "uint256",
          "name": "nativeAmount",
          "type": "uint256"
        },
        {
          "internalType": "string",
          "name": "precompileRecipient",
          "type": "string"
        },
        {
          "internalType": "uint256",
          "name": "precompileAmount",
          "type": "uint256"
        }
      ],
      "name": "nativeSendThenPrecompileSend",
      "outputs": [],
      "stateMutability": "nonpayable",
      "type": "function"
    }
  ],
  "bytecode": "0x60803461007457601f61061938819003918201601f19168301916001600160401b038311848410176100795780849260209460405283398101031261007457516001600160a01b0381169081900361007457600080546001600160a01b03191691909117905560405161058990816100908239f35b600080fd5b634e487b7160e01b600052604160045260246000fdfe60406080815260048036101561001457600080fd5b600091823560e01c80630a04fd4d146101915763a4de55741461003657600080fd5b3461012a57608036600319011261012a576001600160a01b038235818116939084900361018d5760243591856044356001600160401b03811161018957818061008381933690880161024a565b9660643599828215610180575bf11561013f57916020916100bb8694885416928651978894859463e77a47bf60e01b865285016102de565b0381876108005af1918215610136575083916100fc575b6100f992506100f26100e3836103f0565b6100ec836103f0565b90610305565b91146103c0565b80f35b90506020823d60201161012e575b81610117602093836101f6565b8101031261012a576100f99151906100d2565b8280fd5b3d915061010a565b513d85823e3d90fd5b835162461bcd60e51b8152602081840152601b60248201527a2330b4b632b2103a379039b2b732103730ba34bb32903a37b5b2b760291b6044820152606490fd5b506108fc610090565b5080fd5b8480fd5b503461012a578060031936011261012a5781356001600160401b0381116101f2576101bf903690840161024a565b8354825163e77a47bf60e01b81529360243592602092869283926100bb92909187916001600160a01b03169085016102de565b8380fd5b601f909101601f19168101906001600160401b0382119082101761021957604052565b634e487b7160e01b600052604160045260246000fd5b6001600160401b03811161021957601f01601f191660200190565b81601f82011215610291578035906102618261022f565b9261026f60405194856101f6565b8284526020838301011161029157816000926020809301838601378301015290565b600080fd5b60005b8381106102a95750506000910152565b8181015183820152602001610299565b906020916102d281518092818552858086019101610296565b601f01601f1916010190565b610302939260609260018060a01b03168252602082015281604082015201906102b9565b90565b60736103be919392936040519485917f4946756e546f6b656e2e73656e64546f42616e6b20737563636565646564206260208401527f7574207472616e73666572726564207468652077726f6e6720616d6f756e740060408401526a039b2b73a20b6b7bab73a160ad1b605f840152610388815180926020606a87019101610296565b820168032bc3832b1ba32b2160bd1b606a8201526103af8251809360208785019101610296565b010360538101855201836101f6565b565b156103c85750565b60405162461bcd60e51b8152602060048201529081906103ec9060248301906102b9565b0390fd5b6000908072184f03e93ff9f4daa797ed6e38ed64bf6a1f0160401b80821015610545575b506904ee2d6d415b85acef8160201b80831015610536575b50662386f26fc1000080831015610527575b506305f5e10080831015610518575b5061271080831015610509575b5060648210156104f9575b600a809210156104ef575b60019081602160018601956104848761022f565b9661049260405198896101f6565b8088526104a1601f199161022f565b01366020890137860101905b6104b9575b5050505090565b600019019083906f181899199a1a9b1b9c1cb0b131b232b360811b8282061a8353049182156104ea579190826104ad565b6104b2565b9160010191610470565b9190606460029104910191610465565b6004919392049101913861045a565b6008919392049101913861044d565b6010919392049101913861043e565b6020919392049101913861042c565b60409350810491503861041456fea2646970667358221220ae904e57c5801c2d44e41de80386ff0a35fc8b9d7c6483074a2d9b2cc7f6c40664736f6c63430008180033",
  "linkReferences": {},
  "deployedLinkReferences": {}
}