{
  "_format": "hh-sol-artifact-1",
  "contractName": "TestFunTokenPrecompileLocalGas",
  "sourceName": "contracts/TestFunTokenPrecompileLocalGas.sol",
  "abi": [
    {
      "inputs": [
        {
          "internalType": "address",
          "name": "erc20_",
          "type": "address"
        }
      ],
      "stateMutability": "nonpayable",
      "type": "constructor"
    },
    {
      "inputs": [
        {
          "internalType": "uint256",
          "name": "amount",
          "type": "uint256"
        },
        {
          "internalType": "string",
          "name": "bech32Recipient",
          "type": "string"
        }
      ],
      "name": "callBankSend",
      "outputs": [],
      "stateMutability": "nonpayable",
      "type": "function"
    },
    {
      "inputs": [
        {
          "internalType": "uint256",
          "name": "amount",
          "type": "uint256"
        },
        {
          "internalType": "string",
          "name": "bech32Recipient",
          "type": "string"
        },
        {
          "internalType": "uint256",
          "name": "customGas",
          "type": "uint256"
        }
      ],
      "name": "callBankSendLocalGas",
      "outputs": [],
      "stateMutability": "nonpayable",
      "type": "function"
    }
  ],
  "bytecode": "0x60803461007457601f6105c438819003918201601f19168301916001600160401b038311848410176100795780849260209460405283398101031261007457516001600160a01b0381169081900361007457600080546001600160a01b03191691909117905560405161053490816100908239f35b600080fd5b634e487b7160e01b600052604160045260246000fdfe60406080815260048036101561001457600080fd5b600091823560e01c806359b6ed891461011a576390d2b5e71461003657600080fd5b346101015780600319360112610101578135916024356001600160401b03811161011657839161006b602092369083016101f5565b9061009260018060a01b03885416928651978894859463e77a47bf60e01b86528501610289565b0381876108005af191821561010d575083916100d3575b6100d092506100c96100ba8361039b565b6100c38361039b565b906102b0565b911461036b565b80f35b90506020823d602011610105575b816100ee602093836101a1565b81010312610101576100d09151906100a9565b8280fd5b3d91506100e1565b513d85823e3d90fd5b8480fd5b5034610101576060366003190112610101578135916024356001600160401b038111610116578391610151602092369083016101f5565b9061017860018060a01b03885416928651978894859463e77a47bf60e01b86528501610289565b038187610800604435f191821561010d575083916100d3576100d092506100c96100ba8361039b565b601f909101601f19168101906001600160401b038211908210176101c457604052565b634e487b7160e01b600052604160045260246000fd5b6001600160401b0381116101c457601f01601f191660200190565b81601f8201121561023c5780359061020c826101da565b9261021a60405194856101a1565b8284526020838301011161023c57816000926020809301838601378301015290565b600080fd5b60005b8381106102545750506000910152565b8181015183820152602001610244565b9060209161027d81518092818552858086019101610241565b601f01601f1916010190565b6102ad939260609260018060a01b0316825260208201528160408201520190610264565b90565b6073610369919392936040519485917f4946756e546f6b656e2e73656e64546f42616e6b20737563636565646564206260208401527f7574207472616e73666572726564207468652077726f6e6720616d6f756e740060408401526a039b2b73a20b6b7bab73a160ad1b605f840152610333815180926020606a87019101610241565b820168032bc3832b1ba32b2160bd1b606a82015261035a8251809360208785019101610241565b010360538101855201836101a1565b565b156103735750565b60405162461bcd60e51b815260206004820152908190610397906024830190610264565b0390fd5b6000908072184f03e93ff9f4daa797ed6e38ed64bf6a1f0160401b808210156104f0575b506904ee2d6d415b85acef8160201b808310156104e1575b50662386f26fc10000808310156104d2575b506305f5e100808310156104c3575b50612710808310156104b4575b5060648210156104a4575b600a8092101561049a575b600190816021600186019561042f876101da565b9661043d60405198896101a1565b80885261044c601f19916101da565b01366020890137860101905b610464575b5050505090565b600019019083906f181899199a1a9b1b9c1cb0b131b232b360811b8282061a83530491821561049557919082610458565b61045d565b916001019161041b565b9190606460029104910191610410565b60049193920491019138610405565b600891939204910191386103f8565b601091939204910191386103e9565b602091939204910191386103d7565b6040935081049150386103bf56fea26469706673582212206e25f932f0bc247e0ebf2ef84d2ac46a8579804e8469f02934038e4a2b8a53cc64736f6c63430008180033",
  "linkReferences": {},
  "deployedLinkReferences": {}
}