{
  "_format": "hh-sol-artifact-1",
  "contractName": "TestRandom",
  "sourceName": "contracts/TestRandom.sol",
  "abi": [
    {
      "inputs": [],
      "name": "getRandom",
      "outputs": [
        {
          "internalType": "uint256",
          "name": "",
          "type": "uint256"
        }
      ],
      "stateMutability": "view",
      "type": "function"
    }
  ],
  "bytecode": "0x608080604052346014576078908161001a8239f35b600080fdfe6080806040526004361015601257600080fd5b600090813560e01c63aacc5a1714602857600080fd5b34603e5781600319360112603e57602090448152f35b5080fdfea264697066735822122089904a42324e804bc5b74c49335cea03b13bbd17a57d5d26962e3a1d93e892a864736f6c63430008180033",
  "linkReferences": {},
  "deployedLinkReferences": {}
}