{
  "_format": "hh-sol-artifact-1",
  "contractName": "ErisEvm",
  "sourceName": "contracts/ErisEvm.sol",
  "abi": [
    {
      "inputs": [
        {
          "internalType": "uint256",
          "name": "amount",
          "type": "uint256"
        }
      ],
      "name": "liquidStake",
      "outputs": [],
      "stateMutability": "nonpayable",
      "type": "function"
    },
    {
      "inputs": [],
      "name": "redeem",
      "outputs": [],
      "stateMutability": "nonpayable",
      "type": "function"
    },
    {
      "inputs": [],
      "name": "state",
      "outputs": [
        {
          "internalType": "bytes",
          "name": "respJson",
          "type": "bytes"
        }
      ],
      "stateMutability": "view",
      "type": "function"
    },
    {
      "inputs": [
        {
          "internalType": "uint256",
          "name": "stAmount",
          "type": "uint256"
        }
      ],
      "name": "unstake",
      "outputs": [],
      "stateMutability": "nonpayable",
      "type": "function"
    }
  ],
  "bytecode": "0x608080604052346100165761106f908161001c8239f35b600080fdfe6040608081526004908136101561001557600080fd5b600090813560e01c80632e17de78146107e95780635c764266146101ee578063be040fb01461015f5763c19d93fb1461004d57600080fd5b346101505760031992828436011261014c578183916100c382519661007188610a8b565b600c88526b7b227374617465223a7b7d7d60a01b6020890152610092610cc4565b976100b48551998a9687966306d81d2960e01b88528701526044860190610a66565b91848303016024850152610a66565b03816108025afa9182156101545780926100f1575b8151602080825281906100ed90820186610a66565b0390f35b9091503d8082853e6101038185610abc565b830192602081850312610150578051906001600160401b03821161014c57019083601f8301121561014957506100ed9281602061014293519101610afa565b90386100d8565b80fd5b8280fd5b5080fd5b9051903d90823e3d90fd5b5034610150578160031936011261015057805161017b81610a8b565b60188152777b2277697468647261775f756e626f6e646564223a7b7d7d60401b602080830191909152825192908301906001600160401b038211848310176101d9576101d594955052600082526101d0610cc4565b610ea0565b5080f35b604186634e487b7160e01b6000525260246000fd5b509134610150576020908160031936011261014c5764e8d4a5100090803582811061079457829004828102908082048414901517156107815761023033610d87565b91865193633e9545a760e11b855260249486838201528061025387820187610a66565b039088816108009381855afa908115610777578991610730575b5033318a51906370a0823160e01b82523386830152730cacf669f8446beca826913a3c6b96acd4b02a97918a818b81865afa90811561054e579086918d916106ff575b500490858202918083048714901517156106ed576102cf889183610b9d565b106106ae578b908781106106a8575086915b8b8b8b8515948515610558575b9450505050506103a1959493929150519561030887610a8b565b600b87526a7b22626f6e64223a7b7d7d60a81b8a880152610327610bcd565b938c519161033483610a8b565b6005835264756e69626960d81b8c8401528d519261035184610a8b565b8352048a82015261036184610ca1565b5261036b83610ca1565b5080516001600160a01b03908116939091908b8d610387610c1f565b90518099819263a22c297f60e01b998a84528b8401610d65565b0381875afa96871561054e57908c95949392918698610529575b506103cd906103ec98996101d0610cc4565b5051166103d8610c1f565b928c51968794859384938452888401610d65565b03915afa91821561051f5787926104fa575b508282111561049b57506060936104766f1cd95b99151bd15d9b4819985a5b195960821b946104356101d5999a9561048495610bc0565b9061045f610441610c1f565b8751998a96632e107aa960e01b8d8901528701526084860190610a66565b916044850152602319848303016064850152610a66565b03601f198101855284610abc565b519261048f84610a8b565b60108452830152610f99565b875162461bcd60e51b81529081018690526034818601527f5761736d206f7065726174696f6e206661696c656420746f206d696e742073746044820152732724a1249037b91036b4b73a32b2103d32b9379760611b6064820152608490fd5b6105179192503d8089833e61050f8183610abc565b810190610d33565b5090386103fe565b88513d89823e3d90fd5b6103ec9850906105456103cd923d808a833e61050f8183610abc565b509850906103bb565b8d513d8e823e3d90fd5b60649051809481936323b872dd60e01b83528d33908401523090830152886044830152865af190811561069e578d91610664575b501561062657803b15610622578b80918b8f5180948193632e1a7d4d60e01b8352888d8401525af1801561054e576105f4575b508a808093819382906105eb575b3390f1156105e1573880808b8b8b8f6102ee565b89513d8a823e3d90fd5b506108fc6105cd565b919a90916001600160401b038111610610578c529990386105bf565b634e487b7160e01b8252604187528982fd5b8b80fd5b8c5162461bcd60e51b81528088018c90526019818c01527815d3925092481d1c985b9cd9995c919c9bdb4819985a5b1959603a1b6044820152606490fd5b90508b81813d8311610697575b61067b8183610abc565b8101031261069357518015158103610693573861058c565b8c80fd5b503d610671565b8e513d8f823e3d90fd5b916102e1565b508a5162461bcd60e51b81528086018a90526019818a015278496e73756666696369656e74204e494249202b20574e49424960381b6044820152606490fd5b634e487b7160e01b8c5260118752898cfd5b8092508c8092503d8311610729575b6107188183610abc565b8101031261062257859051386102b0565b503d61070e565b90503d808a833e6107418183610abc565b8101908881830312610773578051906001600160401b03821161076f57610769929101610b36565b3861026d565b8a80fd5b8980fd5b8a513d8b823e3d90fd5b634e487b7160e01b855260118252602485fd5b855162461bcd60e51b8152808301859052602960248201527f416d6f756e74206d757374206265203e3d203165313220776569202831206d6960448201526863726f204e4942492960b81b6064820152608490fd5b5034610150576020908160031936011261014c5783359061080933610d87565b815163b203bb9960e01b8152338782015273ca0a9fb5fbf692fa12fd13c0a900ec56bb3f0a7b60248201529585876044816108005afa908115610a395786879888936109c2575b5061085c898792610b9d565b10610981575094956101d59590848110610971575086905b816108e6575b50505080519161088983610a8b565b60138352727b2271756575655f756e626f6e64223a7b7d7d60681b848401526108b0610bcd565b936108b9610c1f565b9251926108c584610a8b565b83528201526108d383610ca1565b526108dd82610ca1565b506101d0610cc4565b51835163e77a47bf60e01b878201526001600160a01b0390911660248201526044810191909152606060648201526109689161093a90829061092c906084830190610a66565b03601f198101835282610abc565b82519061094682610a8b565b60118252701cd95b99151bd0985b9ac819985a5b1959607a1b86830152610f99565b5038808061087a565b61097b9085610bc0565b90610874565b835162461bcd60e51b8152908101869052601b60248201527a496e73756666696369656e742073744e4942492062616c616e636560281b6044820152606490fd5b98505090503d8087893e6109d68189610abc565b870190608088830312610a3557875186890151858a01519093906001600160401b039081811161076f5782610a0c918d01610b36565b9a606081015191821161076f5761085c92899492610a2a9201610b36565b509399939150610850565b8680fd5b83513d88823e3d90fd5b60005b838110610a565750506000910152565b8181015183820152602001610a46565b90602091610a7f81518092818552858086019101610a43565b601f01601f1916010190565b604081019081106001600160401b03821117610aa657604052565b634e487b7160e01b600052604160045260246000fd5b601f909101601f19168101906001600160401b03821190821017610aa657604052565b6001600160401b038111610aa657601f01601f191660200190565b90929192610b0781610adf565b91610b156040519384610abc565b829482845282820111610b31576020610b2f930190610a43565b565b600080fd5b9190604083820312610b315760405190610b4f82610a8b565b8351919384926001600160a01b0381168103610b315783526020810151906001600160401b038211610b31570181601f82011215610b31576020918183610b9893519101610afa565b910152565b91908201809211610baa57565b634e487b7160e01b600052601160045260246000fd5b91908203918211610baa57565b60409060405191610bdd83610a8b565b60018352829160009160005b602080821015610c1657825160209291610c0282610a8b565b606082528681830152828901015201610be9565b50505091925050565b60405190608082016001600160401b03811183821017610aa657604052604a825269386d2f616d704e49424960b01b6060837f74662f6e69626931756471717833306377386e776a78746c346c3238796d396860208201527f6872703933337a6c7138647178666a7a636468766c387932347a6371707a6d6860408201520152565b805115610cae5760200190565b634e487b7160e01b600052603260045260246000fd5b60405190606082016001600160401b03811183821017610aa657604052603f82527f3933337a6c7138647178666a7a636468766c387932347a6371707a6d68386d006040837f6e69626931756471717833306377386e776a78746c346c3238796d396868727060208201520152565b919091604081840312610b3157805160208201519093906001600160401b038111610b3157610d629201610b36565b90565b6001600160a01b039091168152604060208201819052610d6292910190610a66565b60405190606082016001600160401b03811183821017610aa657604052602a825260208083016040368237835115610cae576030905382519060019160011015610cae5790607860218501536029915b818311610e2c57505050610de85790565b606460405162461bcd60e51b815260206004820152602060248201527f537472696e67733a20686578206c656e67746820696e73756666696369656e746044820152fd5b909192600f81166010811015610e8b578551851015610e8b576f181899199a1a9b1b9c1cb0b131b232b360811b901a85850183015360041c928015610e7657600019019190610dd7565b60246000634e487b7160e01b81526011600452fd5b60246000634e487b7160e01b81526032600452fd5b909291926040805191610ee2610ecf60209563187febb960e21b87870152606060248701526084860190610a66565b6023199283868303016044870152610a66565b9083820301606484015285519081815284810185808460051b8401019801936000925b848410610f5957505050505050610f2981610d62949503601f198101835282610abc565b7215d85cdb48195e1958dd5d194819985a5b1959606a1b60405192610f4d84610a8b565b60138452830152611018565b9091929394988780600192601f198582030187528c51908280610f8384518a85528a850190610a66565b9301519101529b01940194019294939190610f05565b600080916020815191016108005af4913d15611010573d92610fba84610adf565b93610fc86040519586610abc565b84523d6000602086013e5b61100c5750815191826110055760405162461bcd60e51b815260206004820152806110016024820185610a66565b0390fd5b6020915001fd5b9050565b606092610fd3565b600080916020815191016108025af4913d15611010573d92610fba84610adf56fea2646970667358221220d75ba4f4df44849e120dd6330b3988fd68b4c40590afdcb88bf864de2238aebe64736f6c63430008180033",
  "linkReferences": {},
  "deployedLinkReferences": {}
}