{
  "_format": "hh-sol-artifact-1",
  "contractName": "TestDirtyStateAttack5",
  "sourceName": "contracts/TestDirtyStateAttack5.sol",
  "abi": [
    {
      "inputs": [],
      "stateMutability": "payable",
      "type": "constructor"
    },
    {
      "inputs": [
        {
          "internalType": "string",
          "name": "wasmAddr",
          "type": "string"
        },
        {
          "internalType": "bytes",
          "name": "msgArgs",
          "type": "bytes"
        }
      ],
      "name": "attack",
      "outputs": [],
      "stateMutability": "nonpayable",
      "type": "function"
    }
  ],
  "bytecode": "0x6080604052610760806100136000396000f3fe608060405234801561001057600080fd5b506004361061002b5760003560e01c806333c8899714610030575b600080fd5b61004a6004803603810190610045919061028d565b61004c565b005b6000600167ffffffffffffffff8111156100695761006861030e565b5b6040519080825280602002602001820160405280156100a257816020015b61008f6101a4565b8152602001906001900390816100875790505b50905060405180604001604052806040518060400160405280600581526020017f756e6962690000000000000000000000000000000000000000000000000000008152508152602001624c4b40815250816000815181106101065761010561033d565b5b602002602001018190525061080273ffffffffffffffffffffffffffffffffffffffff166361ffaee486868686866040518663ffffffff1660e01b815260040161015495949392919061059f565b6000604051808303816000875af1158015610173573d6000803e3d6000fd5b505050506040513d6000823e3d601f19601f8201168201806040525081019061019c91906106e1565b505050505050565b604051806040016040528060608152602001600081525090565b6000604051905090565b600080fd5b600080fd5b600080fd5b600080fd5b600080fd5b60008083601f8401126101f7576101f66101d2565b5b8235905067ffffffffffffffff811115610214576102136101d7565b5b6020830191508360018202830111156102305761022f6101dc565b5b9250929050565b60008083601f84011261024d5761024c6101d2565b5b8235905067ffffffffffffffff81111561026a576102696101d7565b5b602083019150836001820283011115610286576102856101dc565b5b9250929050565b600080600080604085870312156102a7576102a66101c8565b5b600085013567ffffffffffffffff8111156102c5576102c46101cd565b5b6102d1878288016101e1565b9450945050602085013567ffffffffffffffff8111156102f4576102f36101cd565b5b61030087828801610237565b925092505092959194509250565b7f4e487b7100000000000000000000000000000000000000000000000000000000600052604160045260246000fd5b7f4e487b7100000000000000000000000000000000000000000000000000000000600052603260045260246000fd5b600082825260208201905092915050565b82818337600083830152505050565b6000601f19601f8301169050919050565b60006103a9838561036c565b93506103b683858461037d565b6103bf8361038c565b840190509392505050565b600082825260208201905092915050565b60006103e783856103ca565b93506103f483858461037d565b6103fd8361038c565b840190509392505050565b600081519050919050565b600082825260208201905092915050565b6000819050602082019050919050565b600081519050919050565b600082825260208201905092915050565b60005b8381101561046e578082015181840152602081019050610453565b60008484015250505050565b600061048582610434565b61048f818561043f565b935061049f818560208601610450565b6104a88161038c565b840191505092915050565b6000819050919050565b6104c6816104b3565b82525050565b600060408301600083015184820360008601526104e9828261047a565b91505060208301516104fe60208601826104bd565b508091505092915050565b600061051583836104cc565b905092915050565b6000602082019050919050565b600061053582610408565b61053f8185610413565b93508360208202850161055185610424565b8060005b8581101561058d578484038952815161056e8582610509565b94506105798361051d565b925060208a01995050600181019050610555565b50829750879550505050505092915050565b600060608201905081810360008301526105ba81878961039d565b905081810360208301526105cf8185876103db565b905081810360408301526105e3818461052a565b90509695505050505050565b600080fd5b6105fd8261038c565b810181811067ffffffffffffffff8211171561061c5761061b61030e565b5b80604052505050565b600061062f6101be565b905061063b82826105f4565b919050565b600067ffffffffffffffff82111561065b5761065a61030e565b5b6106648261038c565b9050602081019050919050565b600061068461067f84610640565b610625565b9050828152602081018484840111156106a05761069f6105ef565b5b6106ab848285610450565b509392505050565b600082601f8301126106c8576106c76101d2565b5b81516106d8848260208601610671565b91505092915050565b6000602082840312156106f7576106f66101c8565b5b600082015167ffffffffffffffff811115610715576107146101cd565b5b610721848285016106b3565b9150509291505056fea2646970667358221220035e628d5c38012c486ab00ce495fa418401de59d5a1cbfe1e48245374f7d1be64736f6c63430008180033",
  "linkReferences": {},
  "deployedLinkReferences": {}
}