{
  "_format": "hh-sol-artifact-1",
  "contractName": "TestNativeSendThenPrecompileSend",
  "sourceName": "contracts/TestNativeSendThenPrecompileSend.sol",
  "abi": [
    {
      "inputs": [
        {
          "internalType": "address",
          "name": "erc20_",
          "type": "address"
        }
      ],
      "stateMutability": "nonpayable",
      "type": "constructor"
    },
    {
      "inputs": [
        {
          "internalType": "string",
          "name": "precompileRecipient",
          "type": "string"
        },
        {
          "internalType": "uint256",
          "name": "precompileAmount",
          "type": "uint256"
        }
      ],
      "name": "justPrecompileSend",
      "outputs": [],
      "stateMutability": "nonpayable",
      "type": "function"
    },
    {
      "inputs": [
        {
          "internalType": "address payable",
          "name": "nativeRecipient",
          "type": "address"
        },
        {
          "internalType": "uint256",
          "name": "nativeAmount",
          "type": "uint256"
        },
        {
          "internalType": "string",
          "name": "precompileRecipient",
          "type": "string"
        },
        {
          "internalType": "uint256",
          "name": "precompileAmount",
          "type": "uint256"
        }
      ],
      "name": "nativeSendThenPrecompileSend",
      "outputs": [],
      "stateMutability": "nonpayable",
      "type": "function"
    }
  ],
  "bytecode": "0x608060405234801561001057600080fd5b50604051610ca1380380610ca1833981810160405281019061003291906100db565b806000806101000a81548173ffffffffffffffffffffffffffffffffffffffff021916908373ffffffffffffffffffffffffffffffffffffffff16021790555050610108565b600080fd5b600073ffffffffffffffffffffffffffffffffffffffff82169050919050565b60006100a88261007d565b9050919050565b6100b88161009d565b81146100c357600080fd5b50565b6000815190506100d5816100af565b92915050565b6000602082840312156100f1576100f0610078565b5b60006100ff848285016100c6565b91505092915050565b610b8a806101176000396000f3fe608060405234801561001057600080fd5b50600436106100365760003560e01c80630a04fd4d1461003b578063a4de557414610057575b600080fd5b610055600480360381019061005091906106e4565b610073565b005b610071600480360381019061006c919061079e565b610195565b005b600061080073ffffffffffffffffffffffffffffffffffffffff1663e77a47bf60008054906101000a900473ffffffffffffffffffffffffffffffffffffffff1684866040518463ffffffff1660e01b81526004016100d4939291906108d0565b6020604051808303816000875af11580156100f3573d6000803e3d6000fd5b505050506040513d601f19601f820116820180604052508101906101179190610923565b905081811461012582610333565b61012e84610333565b60405160200161013f929190610a4a565b6040516020818303038152906040529061018f576040517f08c379a00000000000000000000000000000000000000000000000000000000081526004016101869190610a97565b60405180910390fd5b50505050565b60008473ffffffffffffffffffffffffffffffffffffffff166108fc859081150290604051600060405180830381858888f1935050505090508061020e576040517f08c379a000000000000000000000000000000000000000000000000000000000815260040161020590610b05565b60405180910390fd5b600061080073ffffffffffffffffffffffffffffffffffffffff1663e77a47bf60008054906101000a900473ffffffffffffffffffffffffffffffffffffffff1685876040518463ffffffff1660e01b815260040161026f939291906108d0565b6020604051808303816000875af115801561028e573d6000803e3d6000fd5b505050506040513d601f19601f820116820180604052508101906102b29190610923565b90508281146102c082610333565b6102c985610333565b6040516020016102da929190610a4a565b6040516020818303038152906040529061032a576040517f08c379a00000000000000000000000000000000000000000000000000000000081526004016103219190610a97565b60405180910390fd5b50505050505050565b60606000600161034284610401565b01905060008167ffffffffffffffff81111561036157610360610583565b5b6040519080825280601f01601f1916602001820160405280156103935781602001600182028036833780820191505090505b509050600082602001820190505b6001156103f6578080600190039150507f3031323334353637383961626364656600000000000000000000000000000000600a86061a8153600a85816103ea576103e9610b25565b5b049450600085036103a1575b819350505050919050565b600080600090507a184f03e93ff9f4daa797ed6e38ed64bf6a1f010000000000000000831061045f577a184f03e93ff9f4daa797ed6e38ed64bf6a1f010000000000000000838161045557610454610b25565b5b0492506040810190505b6d04ee2d6d415b85acef8100000000831061049c576d04ee2d6d415b85acef8100000000838161049257610491610b25565b5b0492506020810190505b662386f26fc1000083106104cb57662386f26fc1000083816104c1576104c0610b25565b5b0492506010810190505b6305f5e10083106104f4576305f5e10083816104ea576104e9610b25565b5b0492506008810190505b612710831061051957612710838161050f5761050e610b25565b5b0492506004810190505b6064831061053c576064838161053257610531610b25565b5b0492506002810190505b600a831061054b576001810190505b80915050919050565b6000604051905090565b600080fd5b600080fd5b600080fd5b600080fd5b6000601f19601f8301169050919050565b7f4e487b7100000000000000000000000000000000000000000000000000000000600052604160045260246000fd5b6105bb82610572565b810181811067ffffffffffffffff821117156105da576105d9610583565b5b80604052505050565b60006105ed610554565b90506105f982826105b2565b919050565b600067ffffffffffffffff82111561061957610618610583565b5b61062282610572565b9050602081019050919050565b82818337600083830152505050565b600061065161064c846105fe565b6105e3565b90508281526020810184848401111561066d5761066c61056d565b5b61067884828561062f565b509392505050565b600082601f83011261069557610694610568565b5b81356106a584826020860161063e565b91505092915050565b6000819050919050565b6106c1816106ae565b81146106cc57600080fd5b50565b6000813590506106de816106b8565b92915050565b600080604083850312156106fb576106fa61055e565b5b600083013567ffffffffffffffff81111561071957610718610563565b5b61072585828601610680565b9250506020610736858286016106cf565b9150509250929050565b600073ffffffffffffffffffffffffffffffffffffffff82169050919050565b600061076b82610740565b9050919050565b61077b81610760565b811461078657600080fd5b50565b60008135905061079881610772565b92915050565b600080600080608085870312156107b8576107b761055e565b5b60006107c687828801610789565b94505060206107d7878288016106cf565b935050604085013567ffffffffffffffff8111156107f8576107f7610563565b5b61080487828801610680565b9250506060610815878288016106cf565b91505092959194509250565b600061082c82610740565b9050919050565b61083c81610821565b82525050565b61084b816106ae565b82525050565b600081519050919050565b600082825260208201905092915050565b60005b8381101561088b578082015181840152602081019050610870565b60008484015250505050565b60006108a282610851565b6108ac818561085c565b93506108bc81856020860161086d565b6108c581610572565b840191505092915050565b60006060820190506108e56000830186610833565b6108f26020830185610842565b81810360408301526109048184610897565b9050949350505050565b60008151905061091d816106b8565b92915050565b6000602082840312156109395761093861055e565b5b60006109478482850161090e565b91505092915050565b600081905092915050565b7f4946756e546f6b656e2e73656e64546f42616e6b20737563636565646564206260008201527f7574207472616e73666572726564207468652077726f6e6720616d6f756e7400602082015250565b60006109b7603f83610950565b91506109c28261095b565b603f82019050919050565b7f73656e74416d6f756e7420000000000000000000000000000000000000000000815250565b60006109fe82610851565b610a088185610950565b9350610a1881856020860161086d565b80840191505092915050565b7f6578706563746564200000000000000000000000000000000000000000000000815250565b6000610a55826109aa565b9150610a60826109cd565b600b82019150610a7082856109f3565b9150610a7b82610a24565b600982019150610a8b82846109f3565b91508190509392505050565b60006020820190508181036000830152610ab18184610897565b905092915050565b7f4661696c656420746f2073656e64206e617469766520746f6b656e0000000000600082015250565b6000610aef601b8361085c565b9150610afa82610ab9565b602082019050919050565b60006020820190508181036000830152610b1e81610ae2565b9050919050565b7f4e487b7100000000000000000000000000000000000000000000000000000000600052601260045260246000fdfea26469706673582212200d00fcf0f8c292ec663c93dd26e426953911b9d9cfb7f41829934866e308cbde64736f6c63430008180033",
  "linkReferences": {},
  "deployedLinkReferences": {}
}