{
  "_format": "hh-sol-artifact-1",
  "contractName": "TestNativeSendThenPrecompileSend",
  "sourceName": "contracts/TestNativeSendThenPrecompileSend.sol",
  "abi": [
    {
      "inputs": [
        {
          "internalType": "address",
          "name": "erc20_",
          "type": "address"
        }
      ],
      "stateMutability": "nonpayable",
      "type": "constructor"
    },
    {
      "inputs": [
        {
          "internalType": "address payable",
          "name": "nativeRecipient",
          "type": "address"
        },
        {
          "internalType": "uint256",
          "name": "nativeAmount",
          "type": "uint256"
        },
        {
          "internalType": "string",
          "name": "precompileRecipient",
          "type": "string"
        },
        {
          "internalType": "uint256",
          "name": "precompileAmount",
          "type": "uint256"
        }
      ],
      "name": "nativeSendThenPrecompileSend",
      "outputs": [],
      "stateMutability": "nonpayable",
      "type": "function"
    }
  ],
  "bytecode": "0x608060405234801561001057600080fd5b50604051610afc380380610afc833981810160405281019061003291906100db565b806000806101000a81548173ffffffffffffffffffffffffffffffffffffffff021916908373ffffffffffffffffffffffffffffffffffffffff16021790555050610108565b600080fd5b600073ffffffffffffffffffffffffffffffffffffffff82169050919050565b60006100a88261007d565b9050919050565b6100b88161009d565b81146100c357600080fd5b50565b6000815190506100d5816100af565b92915050565b6000602082840312156100f1576100f0610078565b5b60006100ff848285016100c6565b91505092915050565b6109e5806101176000396000f3fe608060405234801561001057600080fd5b506004361061002b5760003560e01c8063a4de557414610030575b600080fd5b61004a600480360381019061004591906105f9565b61004c565b005b60008473ffffffffffffffffffffffffffffffffffffffff166108fc859081150290604051600060405180830381858888f193505050509050806100c5576040517f08c379a00000000000000000000000000000000000000000000000000000000081526004016100bc906106d9565b60405180910390fd5b600061080073ffffffffffffffffffffffffffffffffffffffff166303003bc560008054906101000a900473ffffffffffffffffffffffffffffffffffffffff1685876040518463ffffffff1660e01b815260040161012693929190610797565b6020604051808303816000875af1158015610145573d6000803e3d6000fd5b505050506040513d601f19601f8201168201806040525081019061016991906107ea565b9050828114610177826101ea565b610180856101ea565b604051602001610191929190610911565b604051602081830303815290604052906101e1576040517f08c379a00000000000000000000000000000000000000000000000000000000081526004016101d8919061095e565b60405180910390fd5b50505050505050565b6060600060016101f9846102b8565b01905060008167ffffffffffffffff811115610218576102176104ce565b5b6040519080825280601f01601f19166020018201604052801561024a5781602001600182028036833780820191505090505b509050600082602001820190505b6001156102ad578080600190039150507f3031323334353637383961626364656600000000000000000000000000000000600a86061a8153600a85816102a1576102a0610980565b5b04945060008503610258575b819350505050919050565b600080600090507a184f03e93ff9f4daa797ed6e38ed64bf6a1f0100000000000000008310610316577a184f03e93ff9f4daa797ed6e38ed64bf6a1f010000000000000000838161030c5761030b610980565b5b0492506040810190505b6d04ee2d6d415b85acef81000000008310610353576d04ee2d6d415b85acef8100000000838161034957610348610980565b5b0492506020810190505b662386f26fc10000831061038257662386f26fc10000838161037857610377610980565b5b0492506010810190505b6305f5e10083106103ab576305f5e10083816103a1576103a0610980565b5b0492506008810190505b61271083106103d05761271083816103c6576103c5610980565b5b0492506004810190505b606483106103f357606483816103e9576103e8610980565b5b0492506002810190505b600a8310610402576001810190505b80915050919050565b6000604051905090565b600080fd5b600080fd5b600073ffffffffffffffffffffffffffffffffffffffff82169050919050565b600061044a8261041f565b9050919050565b61045a8161043f565b811461046557600080fd5b50565b60008135905061047781610451565b92915050565b6000819050919050565b6104908161047d565b811461049b57600080fd5b50565b6000813590506104ad81610487565b92915050565b600080fd5b600080fd5b6000601f19601f8301169050919050565b7f4e487b7100000000000000000000000000000000000000000000000000000000600052604160045260246000fd5b610506826104bd565b810181811067ffffffffffffffff82111715610525576105246104ce565b5b80604052505050565b600061053861040b565b905061054482826104fd565b919050565b600067ffffffffffffffff821115610564576105636104ce565b5b61056d826104bd565b9050602081019050919050565b82818337600083830152505050565b600061059c61059784610549565b61052e565b9050828152602081018484840111156105b8576105b76104b8565b5b6105c384828561057a565b509392505050565b600082601f8301126105e0576105df6104b3565b5b81356105f0848260208601610589565b91505092915050565b6000806000806080858703121561061357610612610415565b5b600061062187828801610468565b94505060206106328782880161049e565b935050604085013567ffffffffffffffff8111156106535761065261041a565b5b61065f878288016105cb565b92505060606106708782880161049e565b91505092959194509250565b600082825260208201905092915050565b7f4661696c656420746f2073656e64206e617469766520746f6b656e0000000000600082015250565b60006106c3601b8361067c565b91506106ce8261068d565b602082019050919050565b600060208201905081810360008301526106f2816106b6565b9050919050565b60006107048261041f565b9050919050565b610714816106f9565b82525050565b6107238161047d565b82525050565b600081519050919050565b60005b83811015610752578082015181840152602081019050610737565b60008484015250505050565b600061076982610729565b610773818561067c565b9350610783818560208601610734565b61078c816104bd565b840191505092915050565b60006060820190506107ac600083018661070b565b6107b9602083018561071a565b81810360408301526107cb818461075e565b9050949350505050565b6000815190506107e481610487565b92915050565b600060208284031215610800576107ff610415565b5b600061080e848285016107d5565b91505092915050565b600081905092915050565b7f4946756e546f6b656e2e62616e6b53656e64207375636365656465642062757460008201527f207472616e73666572726564207468652077726f6e6720616d6f756e74000000602082015250565b600061087e603d83610817565b915061088982610822565b603d82019050919050565b7f73656e74416d6f756e7420000000000000000000000000000000000000000000815250565b60006108c582610729565b6108cf8185610817565b93506108df818560208601610734565b80840191505092915050565b7f6578706563746564200000000000000000000000000000000000000000000000815250565b600061091c82610871565b915061092782610894565b600b8201915061093782856108ba565b9150610942826108eb565b60098201915061095282846108ba565b91508190509392505050565b60006020820190508181036000830152610978818461075e565b905092915050565b7f4e487b7100000000000000000000000000000000000000000000000000000000600052601260045260246000fdfea2646970667358221220df7092cb424bd549df3b9d958db66a63c029a1e42d78f468fb93c7574ccea23864736f6c63430008180033",
  "linkReferences": {},
  "deployedLinkReferences": {}
}