{
  "_format": "hh-sol-artifact-1",
  "contractName": "TestNativeSendThenPrecompileSend",
  "sourceName": "contracts/TestNativeSendThenPrecompileSend.sol",
  "abi": [
    {
      "inputs": [
        {
          "internalType": "address",
          "name": "erc20_",
          "type": "address"
        }
      ],
      "stateMutability": "nonpayable",
      "type": "constructor"
    },
    {
      "inputs": [
        {
          "internalType": "address payable",
          "name": "nativeRecipient",
          "type": "address"
        },
        {
          "internalType": "uint256",
          "name": "nativeAmount",
          "type": "uint256"
        },
        {
          "internalType": "string",
          "name": "precompileRecipient",
          "type": "string"
        },
        {
          "internalType": "uint256",
          "name": "precompileAmount",
          "type": "uint256"
        }
      ],
      "name": "nativeSendThenPrecompileSend",
      "outputs": [],
      "stateMutability": "nonpayable",
      "type": "function"
    }
  ],
  "bytecode": "0x608060405234801561001057600080fd5b50604051610877380380610877833981810160405281019061003291906100db565b806000806101000a81548173ffffffffffffffffffffffffffffffffffffffff021916908373ffffffffffffffffffffffffffffffffffffffff16021790555050610108565b600080fd5b600073ffffffffffffffffffffffffffffffffffffffff82169050919050565b60006100a88261007d565b9050919050565b6100b88161009d565b81146100c357600080fd5b50565b6000815190506100d5816100af565b92915050565b6000602082840312156100f1576100f0610078565b5b60006100ff848285016100c6565b91505092915050565b610760806101176000396000f3fe608060405234801561001057600080fd5b506004361061002b5760003560e01c8063a4de557414610030575b600080fd5b61004a6004803603810190610045919061043c565b61004c565b005b60008473ffffffffffffffffffffffffffffffffffffffff166108fc859081150290604051600060405180830381858888f193505050509050806100c5576040517f08c379a00000000000000000000000000000000000000000000000000000000081526004016100bc9061051c565b60405180910390fd5b600061080073ffffffffffffffffffffffffffffffffffffffff1660008054906101000a900473ffffffffffffffffffffffffffffffffffffffff168486604051602401610115939291906105da565b6040516020818303038152906040527f03003bc5000000000000000000000000000000000000000000000000000000007bffffffffffffffffffffffffffffffffffffffffffffffffffffffff19166020820180517bffffffffffffffffffffffffffffffffffffffffffffffffffffffff838183161783525050505060405161019f919061065f565b6000604051808303816000865af19150503d80600081146101dc576040519150601f19603f3d011682016040523d82523d6000602084013e6101e1565b606091505b50509050806040516020016101f5906106f3565b60405160208183030381529060405290610245576040517f08c379a000000000000000000000000000000000000000000000000000000000815260040161023c9190610708565b60405180910390fd5b50505050505050565b6000604051905090565b600080fd5b600080fd5b600073ffffffffffffffffffffffffffffffffffffffff82169050919050565b600061028d82610262565b9050919050565b61029d81610282565b81146102a857600080fd5b50565b6000813590506102ba81610294565b92915050565b6000819050919050565b6102d3816102c0565b81146102de57600080fd5b50565b6000813590506102f0816102ca565b92915050565b600080fd5b600080fd5b6000601f19601f8301169050919050565b7f4e487b7100000000000000000000000000000000000000000000000000000000600052604160045260246000fd5b61034982610300565b810181811067ffffffffffffffff8211171561036857610367610311565b5b80604052505050565b600061037b61024e565b90506103878282610340565b919050565b600067ffffffffffffffff8211156103a7576103a6610311565b5b6103b082610300565b9050602081019050919050565b82818337600083830152505050565b60006103df6103da8461038c565b610371565b9050828152602081018484840111156103fb576103fa6102fb565b5b6104068482856103bd565b509392505050565b600082601f830112610423576104226102f6565b5b81356104338482602086016103cc565b91505092915050565b6000806000806080858703121561045657610455610258565b5b6000610464878288016102ab565b9450506020610475878288016102e1565b935050604085013567ffffffffffffffff8111156104965761049561025d565b5b6104a28782880161040e565b92505060606104b3878288016102e1565b91505092959194509250565b600082825260208201905092915050565b7f4661696c656420746f2073656e64206e617469766520746f6b656e0000000000600082015250565b6000610506601b836104bf565b9150610511826104d0565b602082019050919050565b60006020820190508181036000830152610535816104f9565b9050919050565b600061054782610262565b9050919050565b6105578161053c565b82525050565b610566816102c0565b82525050565b600081519050919050565b60005b8381101561059557808201518184015260208101905061057a565b60008484015250505050565b60006105ac8261056c565b6105b681856104bf565b93506105c6818560208601610577565b6105cf81610300565b840191505092915050565b60006060820190506105ef600083018661054e565b6105fc602083018561055d565b818103604083015261060e81846105a1565b9050949350505050565b600081519050919050565b600081905092915050565b600061063982610618565b6106438185610623565b9350610653818560208601610577565b80840191505092915050565b600061066b828461062e565b915081905092915050565b600081905092915050565b7f4661696c656420746f2063616c6c20707265636f6d70696c652062616e6b536560008201527f6e64000000000000000000000000000000000000000000000000000000000000602082015250565b60006106dd602283610676565b91506106e882610681565b602282019050919050565b60006106fe826106d0565b9150819050919050565b6000602082019050818103600083015261072281846105a1565b90509291505056fea26469706673582212206bab9cbf21b89041a55ee0f768a9443ae5e5ebfde23fe8a91daf9d4b339427db64736f6c63430008180033",
  "linkReferences": {},
  "deployedLinkReferences": {}
}