{
  "_format": "hh-sol-artifact-1",
  "contractName": "TestOracleAsLZNativeFeeHandler",
  "sourceName": "contracts/TestOracleAsLZNativeFeeHandler.sol",
  "abi": [
    {
      "inputs": [
        {
          "internalType": "address",
          "name": "oracle_",
          "type": "address"
        }
      ],
      "stateMutability": "nonpayable",
      "type": "constructor"
    },
    {
      "inputs": [],
      "name": "DEFAULT_USD_FEE",
      "outputs": [
        {
          "internalType": "uint256",
          "name": "",
          "type": "uint256"
        }
      ],
      "stateMutability": "view",
      "type": "function"
    },
    {
      "inputs": [],
      "name": "NATIVE_PAIR",
      "outputs": [
        {
          "internalType": "string",
          "name": "",
          "type": "string"
        }
      ],
      "stateMutability": "view",
      "type": "function"
    },
    {
      "inputs": [],
      "name": "oracle",
      "outputs": [
        {
          "internalType": "contract IOracle",
          "name": "",
          "type": "address"
        }
      ],
      "stateMutability": "view",
      "type": "function"
    },
    {
      "inputs": [],
      "name": "quoteNativeFee",
      "outputs": [
        {
          "internalType": "uint256",
          "name": "",
          "type": "uint256"
        }
      ],
      "stateMutability": "view",
      "type": "function"
    }
  ],
  "bytecode": "0x60803461007457601f61036a38819003918201601f19168301916001600160401b038311848410176100795780849260209460405283398101031261007457516001600160a01b0381169081900361007457600080546001600160a01b0319169190911790556040516102da90816100908239f35b600080fd5b634e487b7160e01b600052604160045260246000fdfe604060808152600436101561001357600080fd5b600090813560e01c80630199ca6c146100c3578063344bfb59146100975780637dc0d1d0146100705763cbe95f8d1461004b57600080fd5b3461006c578160031936011261006c5760209051670de0b6b3a76400008152f35b5080fd5b503461006c578160031936011261006c57905490516001600160a01b039091168152602090f35b503461006c578160031936011261006c576100bf906100b46101f6565b905191829182610242565b0390f35b5090346101cd57806003193601126101cd57805461010a906060906001600160a01b03166100ef6101f6565b9085518080958194636bd1902f60e01b835260048301610242565b03915afa9182156101eb578092610171575b5050801561013d5760209151906a0c097ce7bc90715b34b9f160241b048152f35b815162461bcd60e51b815260206004820152600d60248201526c696e76616c696420707269636560981b6044820152606490fd5b90915060603d6060116101e4575b601f8101601f191683016001600160401b038111848210176101d05760609184918652810103126101cd57506101c5828251926101be6020820161028b565b500161028b565b50388061011c565b80fd5b634e487b7160e01b83526041600452602483fd5b503d61017f565b8351903d90823e3d90fd5b60408051919082016001600160401b0381118382101761022c57604052600a8252691d5b9a589a4e9d5d5cd960b21b6020830152565b634e487b7160e01b600052604160045260246000fd5b6020808252825181830181905290939260005b82811061027757505060409293506000838284010152601f8019910116010190565b818101860151848201604001528501610255565b51906001600160401b038216820361029f57565b600080fdfea2646970667358221220d9d0807f80c4af21ca1200bc6f127c7b9dc29283227ae530d9805cad9564c39564736f6c63430008180033",
  "linkReferences": {},
  "deployedLinkReferences": {}
}