{
  "_format": "hh-sol-artifact-1",
  "contractName": "TestPrecompileSendToBankThenERC20Transfer",
  "sourceName": "contracts/TestPrecompileSendToBankThenERC20Transfer.sol",
  "abi": [
    {
      "inputs": [
        {
          "internalType": "address",
          "name": "_erc20",
          "type": "address"
        },
        {
          "internalType": "string",
          "name": "_recipient",
          "type": "string"
        }
      ],
      "stateMutability": "nonpayable",
      "type": "constructor"
    },
    {
      "inputs": [],
      "name": "attack",
      "outputs": [],
      "stateMutability": "nonpayable",
      "type": "function"
    },
    {
      "inputs": [],
      "name": "erc20",
      "outputs": [
        {
          "internalType": "contract IERC20",
          "name": "",
          "type": "address"
        }
      ],
      "stateMutability": "view",
      "type": "function"
    },
    {
      "inputs": [],
      "name": "recipient",
      "outputs": [
        {
          "internalType": "string",
          "name": "",
          "type": "string"
        }
      ],
      "stateMutability": "view",
      "type": "function"
    }
  ],
  "bytecode": "0x6080604052346102135761064b8038038061001981610218565b9283398101906040818303126102135780516001600160a01b0381169190829003610213576020918282015160018060401b0392838211610213570192601f918583860112156102135784518481116101e957601f199561007f82860188168501610218565b9782895284838301011161021357839060005b8381106101ff5750506000918801015260018060a01b0319600054161760005584519283116101e95760019384548581811c911680156101df575b838210146101c957838111610183575b5081928411600114610124575050819293600092610119575b5050600019600383901b1c191690821b1790555b60405161040d908161023e8239f35b0151905038806100f6565b6000858152828120918516969193925b87821061016c57505083859610610153575b505050811b01905561010a565b015160001960f88460031b161c19169055388080610146565b808785968294968601518155019501930190610134565b85600052826000208480870160051c8201928588106101c0575b0160051c019086905b8281106101b45750506100dd565b600081550186906101a6565b9250819261019d565b634e487b7160e01b600052602260045260246000fd5b90607f16906100cd565b634e487b7160e01b600052604160045260246000fd5b8181018301518a8201840152859201610092565b600080fd5b6040519190601f01601f191682016001600160401b038111838210176101e95760405256fe6080604090808252600436101561001557600080fd5b600090813560e01c90816366d003ac1461026857508063785e9e861461024057639e5faafc1461004457600080fd5b3461015f578060031936011261015f57805482516370a0823160e01b81523060048201526001600160a01b039182169360209290918381602481895afa9081156101a457859161020f575b5082519563e77a47bf60e01b87526004870152602486015260606044860152839460018054906100be82610364565b918260648501526084906001811690816000146101e857506001146101ae575b50505083818087980381886108005af180156101a457908491610176575b5090845416604483518096819363a9059cbb60e01b835261dead6004840152600160248401525af190811561016d5750610134578280f35b81813d8311610166575b610148818361039e565b8101031261016257518015150361015f5738808280f35b80fd5b5080fd5b503d61013e565b513d85823e3d90fd5b813d831161019d575b610189818361039e565b810103126101985782386100fc565b505050fd5b503d61017f565b83513d87823e3d90fd5b9750600187528587209787985b838a106101d55750505050948501608401948381806100de565b8054858b018301529887019882016101bb565b899a508593508392506084915093889460ff191682840152151560051b82010198506100de565b90508381813d8311610239575b610226818361039e565b8101031261023557513861008f565b8480fd5b503d61021c565b509034610162578160031936011261016257905490516001600160a01b039091168152602090f35b8391503461036057826003193601126103605782600193826001549161028d83610364565b80835260209788946001811690811561033f5750600114610301575b50506102bb925095939295038261039e565b82519382859384528251928382860152825b8481106102eb57505050828201840152601f01601f19168101030190f35b81810183015188820188015287955082016102cd565b600186528486209492508591905b8183106103275750889450508201016102bb886102a9565b8554888401850152948501948794509183019161030f565b9150506102bb94925060ff191682840152151560051b8201018692886102a9565b8280fd5b90600182811c92168015610394575b602083101461037e57565b634e487b7160e01b600052602260045260246000fd5b91607f1691610373565b601f909101601f19168101906001600160401b038211908210176103c157604052565b634e487b7160e01b600052604160045260246000fdfea2646970667358221220a956d41feb294b0bb60bfc2c2045eddf77d3ddbaeead4d692ff5bd6497ddb42064736f6c63430008180033",
  "linkReferences": {},
  "deployedLinkReferences": {}
}